:020000040800F2
:1000000000040020010300080303000803030008A4
:1000100003030008030300080303000803030008A8
:10002000030300080303000803030008612100081C
:100030000303000803030008030300080303000888
:100040000303000803030008030300080303000878
:100050000303000803030008216D0008D16C0008A9
:10006000816C0008316C0008E16B0008916A00089F
:10007000416A0008F1690008A16900086169000887
:1000800011690008C16800080303000803030008A1
:10009000030300080303000803030008616B000862
:1000A0000303000803030008030300080303000818
:1000B000215200080303000803030008030300089B
:1000C00003030008030300080303000803030008F8
:1000D00003030008030300080303000803030008E8
:1000E000D16A0008030300080303000803030008A3
:1000F00003030008030300080303000871680008F5
:10010000030300080303000851600008030300080C
:1001100003030008030300080303000803030008A7
:1001200031680008E1670008415C0008F15B0008E5
:10013000B15B000803030008030300080303000881
:10014000030300080303000803030008915A000892
:10015000615B0008115B0008C15A00080303000836
:100160000303000803030008030300080303000857
:1001700003030008615A0008030300080303000892
:100180000303000803030008030300080303000837
:100190000303000803030008030300080303000827
:1001A0000303000803030008030300080303000817
:1001B0000303000803030008030300080303000807
:1001C00003030008030300080303000803030008F7
:1001D00003030008030300080303000803030008E7
:1001E00072B6384880F30888374880F30988374862
:1001F0004EF60851CEF20001086040F20000CCF249
:1002000000004EF63471CEF200010860BFF34F8F4C
:10021000BFF36F8F40F20000C0F2F0004EF688513D
:10022000CEF200010860BFF34F8FBFF36F8F4FF026
:100230000000E1EE100A4EF63C71CEF200010860BB
:10024000062080F31488BFF36F8F07F0B9FB04F02A
:1002500077FE1F481F491B4A91423CBF41F8040BDF
:10026000FAE71D49184A91423CBF41F8040BFAE7EE
:100270001A491B4A1B4B9A423EBF51F8040B42F8E5
:10028000040BF8E700201849184A91423CBF41F896
:10029000040BFAE707F05CFB07F08AFB144C154DE2
:1002A000AC4203DA54F8041B8847F9E701F030F850
:1002B000114C124DAC4203DA54F8041B8847F9E79D
:1002C00007F06EBB000400200008002000000008BA
:1002D00055555555000000200004002080D6000828
:1002E00000080020741100207811002050BF002069
:1002F000E0010008E0010008E0010008E00100085A
:100300006EE700F000F8FEE72DE9F04F2DED108AC2
:10031000C1F80CD0C3689D46BDEC108ABDE8F08FD3
:1003200004F096FD002383F311882846A04700209F
:1003300002F076FAFEE704F09BFD02F051F904F0BA
:1003400087FD00DFFEE70000844641EA000313F06A
:1003500003036DD1403A41D351F8043B40F8043BCC
:1003600051F8043B40F8043B51F8043B40F8043B8F
:1003700051F8043B40F8043B51F8043B40F8043B7F
:1003800051F8043B40F8043B51F8043B40F8043B6F
:1003900051F8043B40F8043B51F8043B40F8043B5F
:1003A00051F8043B40F8043B51F8043B40F8043B4F
:1003B00051F8043B40F8043B51F8043B40F8043B3F
:1003C00051F8043B40F8043B51F8043B40F8043B2F
:1003D00051F8043B40F8043B403ABDD2303211D3CF
:1003E00051F8043B40F8043B51F8043B40F8043B0F
:1003F00051F8043B40F8043B51F8043B40F8043BFF
:10040000103AEDD20C3205D351F8043B40F8043BCE
:10041000043AF9D2043208D0D2071CBF11F8013BCC
:1004200000F8013B01D30B8803806046704700BF92
:10043000082A13D38B078DD010F003038AD0C3F1A1
:100440000403D21ADB071CBF11F8013B00F8013B83
:1004500080D331F8023B20F8023B7BE7043AD9D342
:10046000013A11F8013B00F8013BF9D20B78037017
:100470004B7843708B7883706046704781F0004101
:1004800002E000BF83F0004330B54FEA41044FEA79
:10049000430594EA050F08BF90EA020F1FBF54EA14
:1004A000000C55EA020C7FEA645C7FEA655C00F0B0
:1004B000E2804FEA5454D4EB5555B8BF6D420CDD81
:1004C0002C4480EA020281EA030382EA000083EA04
:1004D000010180EA020281EA0303362D88BF30BDA4
:1004E00011F0004F4FEA01314FF4801C4CEA1131FA
:1004F00002D0404261EB410113F0004F4FEA033359
:100500004CEA133302D0524263EB430394EA050FE3
:1005100000F0A780A4F10104D5F1200E0DDB02FA52
:100520000EFC22FA05F2801841F1000103FA0EF2E6
:10053000801843FA05F359410EE0A5F120050EF1AC
:10054000200E012A03FA0EFC28BF4CF0020C43FADD
:1005500005F3C01851EBE37101F0004507D54FF0EA
:10056000000EDCF1000C7EEB00006EEB0101B1F53A
:10057000801F1BD3B1F5001F0CD349085FEA300080
:100580004FEA3C0C04F101044FEA445212F5800F8B
:1005900080F09A80BCF1004F08BF5FEA500C50F128
:1005A000000041EB045141EA050130BD5FEA4C0C0B
:1005B000404141EB010111F4801FA4F10104E9D194
:1005C00091F0000F04BF01460020B1FA81F308BF8B
:1005D0002033A3F10B03B3F120020CDA0C3208DD57
:1005E00002F1140CC2F10C0201FA0CF021FA02F132
:1005F0000CE002F11402D8BFC2F1200C01FA02F1A2
:1006000020FA0CFCDCBF41EA0C019040E41AA2BFC6
:1006100001EB0451294330BD6FEA04041F3C1CDA8E
:100620000C340EDC04F11404C4F1200220FA04F0AE
:1006300001FA02F340EA030021FA04F345EA030158
:1006400030BDC4F10C04C4F1200220FA02F001FA1A
:1006500004F340EA0300294630BD21FA04F029469C
:1006600030BD94F0000F83F4801306BF81F4801135
:100670000134013D4EE77FEA645C18BF7FEA655CA8
:1006800029D094EA050F08BF90EA020F05D054EA7A
:10069000000C04BF1946104630BD91EA030F1EBF7F
:1006A0000021002030BD5FEA545C05D14000494183
:1006B00028BF41F0004130BD14F580043CBF01F576
:1006C000801130BD01F0004545F0FE4141F470015C
:1006D0004FF0000030BD7FEA645C1ABF1946104637
:1006E0007FEA655C1CBF0B46024650EA013406BF38
:1006F00052EA033591EA030F41F4002130BD00BFF7
:1007000090F0000F04BF0021704730B54FF48064B3
:1007100004F132044FF000054FF0000150E700BF34
:1007200090F0000F04BF0021704730B54FF4806493
:1007300004F1320410F0004548BF40424FF0000180
:100740003EE700BF42004FEAE2014FEA31014FEAC3
:1007500002701FBF12F07F4393F07F4F81F0605112
:10076000704792F0000F14BF93F07F4F704730B581
:100770004FF4607401F0004521F0004120E700BF14
:1007800050EA010208BF704730B54FF000050AE09B
:1007900050EA010208BF704730B511F0004502D59C
:1007A000404261EB41014FF4806404F132045FEA9E
:1007B000915C3FF4DCAE4FF003025FEADC0C18BF43
:1007C00003325FEADC0C18BF033202EBDC02C2F139
:1007D000200300FA03FC20FA02F001FA03FE40EACB
:1007E0000E0021FA02F11444C1E600BF70B54FF0CB
:1007F000FF0C4CF4E06C1CEA11541DBF1CEA1355AD
:1008000094EA0C0F95EA0C0F00F0DEF82C4481EA14
:10081000030621EA4C5123EA4C5350EA013518BF34
:1008200052EA033541F4801143F4801338D0A0FB21
:1008300002CE4FF00005E1FB02E506F00042E0FBCE
:1008400003E54FF00006E1FB03569CF0000F18BFD4
:100850004EF0010EA4F1FF04B6F5007F64F540747C
:1008600004D25FEA4E0E6D4146EB060642EAC6210F
:1008700041EA55514FEAC52040EA5E504FEACE2E7C
:10088000B4F1FD0C88BFBCF5E06F1ED8BEF1004F7F
:1008900008BF5FEA500E50F1000041EB045170BDFB
:1008A00006F0004646EA010140EA020081EA03013F
:1008B000B4EB5C04C2BFD4EB0C0541EA045170BD3B
:1008C00041F480114FF0000E013C00F3AB8014F1B5
:1008D000360FDEBF002001F0004170BDC4F10004FE
:1008E000203C35DA0C341BDC04F11404C4F120057F
:1008F00000FA05F320FA04F001FA05F240EA0200DA
:1009000001F0004221F0004110EBD37021FA04F60F
:1009100042EB06015EEA430E08BF20EAD37070BDC9
:10092000C4F10C04C4F1200500FA04F320FA05F028
:1009300001FA04F240EA020001F0004110EBD3702A
:1009400041F100015EEA430E08BF20EAD37070BD9A
:10095000C4F1200500FA05F24EEA020E20FA04F373
:1009600001FA05F243EA020321FA04F001F0004122
:1009700021FA04F220EA020000EBD3705EEA430E93
:1009800008BF20EAD37070BD94F0000F0FD101F0C2
:100990000046400041EB010111F4801F08BF013CFB
:1009A000F7D041EA060195F0000F18BF704703F039
:1009B0000046520043EB030313F4801F08BF013DC0
:1009C000F7D043EA0603704794EA0C0F0CEA13557C
:1009D00018BF95EA0C0F0CD050EA410618BF52EA36
:1009E0004306D1D181EA030101F000414FF000003C
:1009F00070BD50EA410606BF1046194652EA43064A
:100A000019D094EA0C0F02D150EA013613D195EABD
:100A10000C0F05D152EA03361CBF104619460AD105
:100A200081EA030101F0004141F0FE4141F470010F
:100A30004FF0000070BD41F0FE4141F4780170BDFF
:100A400070B54FF0FF0C4CF4E06C1CEA11541DBF64
:100A50001CEA135594EA0C0F95EA0C0F00F0A7F866
:100A6000A4EB050481EA030E52EA03354FEA013193
:100A700000F088804FEA03334FF0805545EA1313A6
:100A800043EA12634FEA022245EA111545EA10656E
:100A90004FEA00260EF000419D4208BF964244F105
:100AA000FD0404F5407402D25B084FEA3202B61A24
:100AB00065EB03055B084FEA32024FF480104FF4F8
:100AC000002CB6EB020E75EB030E22BFB61A75466C
:100AD00040EA0C005B084FEA3202B6EB020E75EBFF
:100AE000030E22BFB61A754640EA5C005B084FEA67
:100AF0003202B6EB020E75EB030E22BFB61A754634
:100B000040EA9C005B084FEA3202B6EB020E75EB3E
:100B1000030E22BFB61A754640EADC0055EA060EFF
:100B200018D04FEA051545EA16754FEA06164FEA42
:100B3000C30343EA52734FEAC2025FEA1C1CC0D1EE
:100B400011F4801F0BD141EA00014FF000004FF07B
:100B5000004CB6E711F4801F04BF01430020B4F13C
:100B6000FD0C88BFBCF5E06F3FF6AFAEB5EB030CF4
:100B700004BFB6EB020C5FEA500C50F1000041EBF1
:100B8000045170BD0EF0004E4EEA113114EB5C04BE
:100B9000C2BFD4EB0C0541EA045170BD41F4801191
:100BA0004FF0000E013C90E645EA060E8DE60CEA99
:100BB000135594EA0C0F08BF95EA0C0F3FF43BAFB6
:100BC00094EA0C0F0AD150EA01347FF434AF95EA6D
:100BD0000C0F7FF425AF104619462CE795EA0C0F51
:100BE00006D152EA03353FF4FDAE1046194622E71E
:100BF00050EA410618BF52EA43067FF4C5AE50EAF8
:100C000041047FF40DAF52EA43057FF4EBAE12E7E7
:100C10004FF0FF3C06E000BF4FF0010C02E000BFC8
:100C20004FF0010C4DF804CD4FEA410C7FEA6C5CAB
:100C30004FEA430C18BF7FEA6C5C1BD001B050EA4E
:100C4000410C0CBF52EA430C91EA030F02BF90EA39
:100C5000020F0020704710F1000F91EA030F58BFF8
:100C6000994208BF90422CBFD8176FEAE37040F05A
:100C7000010070474FEA410C7FEA6C5C02D150EAF8
:100C8000013C07D14FEA430C7FEA6C5CD6D152EAB3
:100C9000033CD3D05DF8040B704700BF8446104678
:100CA00062468C461946634600E000BF01B5FFF777
:100CB000B7FF002848BF10F1000F01BD4DF808ED47
:100CC000FFF7F4FF0CBF012000205DF808FB00BF18
:100CD0004DF808EDFFF7EAFF34BF012000205DF872
:100CE00008FB00BF4DF808EDFFF7E0FF94BF0120BF
:100CF00000205DF808FB00BF4DF808EDFFF7CEFFC0
:100D000094BF012000205DF808FB00BF4DF808EDFE
:100D1000FFF7C4FF34BF012000205DF808FB00BFCF
:100D20004FEA410212F5001215D211D56FF4787313
:100D3000B3EB625212D94FEAC12343F0004343EAB6
:100D4000505311F0004F23FA02F018BF4042704791
:100D50004FF00000704750EA013005D111F000401B
:100D600008BF6FF0004070474FF00000704700BFB1
:100D700053B94AB9002908BF00281CBF4FF0FF3102
:100D80004FF0FF3000F03CB882B0EC462DE9005047
:100D900000F01EF8DDF804E002B00CBC704700BFA4
:100DA0002DE9F041069C154606460F46984600F090
:100DB00029F805FB01F300FB0838A5FB0023B21A54
:100DC000434467EB0303C4E90023BDE8F08100BF9F
:100DD0002DE9F041069C904606460F461D4600F060
:100DE0005FF900FB05F5A0FB082308FB0155B21ACB
:100DF0002B4467EB0303C4E90023BDE8F08100BF87
:100E0000704700BF00292DE9F043C0F2A6800026FC
:100E1000002BC0F29C80884694469E4615460446A8
:100E20000F46002B3DD18A4259D9B2FA82F33BB129
:100E3000C3F120029F4020FA02F29D4017439C40DC
:100E4000290C220CB7FBF1FEA8B201FB1E7742EA87
:100E5000074700FB0EF3BB420AD97F190EF1FF32A0
:100E600080F00581BB4240F20281AEF1020E2F44B8
:100E7000FF1AA4B2B7FBF1F301FB137744EA07476B
:100E800000FB03F0B84208D97F1903F1FF3280F06C
:100E9000F080B84240F2ED80023B43EA0E4300226C
:100EA00003E08B420FD900221346341C18BF0124E3
:100EB00060424FF0000565EB450158405140001974
:100EC0006941BDE8F083B3FA83F2002A40F08680DE
:100ED0008B4202D3844500F2DB800123E5E712B99F
:100EE0000123B3FBF2F5B5FA85F000283BD1781B5E
:100EF0004FEA154E1FFA85FC0122B0FBFEF8210CCB
:100F00000EFB180741EA07470CFB08F3BB4207D961
:100F10007F1908F1FF3102D2BB4200F2BD80884642
:100F2000FF1AA4B2B7FBFEF30EFB137744EA0747A0
:100F30000CFB03FCBC4507D97F1903F1FF3102D23A
:100F4000BC4500F2A7800B4643EA0843ADE7524296
:100F50006FEA060663EB43035DE7404261EB410144
:100F60004FF0FF3654E7C0F1200224FA02F107FAED
:100F700000F385404FEA154ED7401943B7FBFEF208
:100F80000B0C0EFB12771FFA85FC43EA07430CFBA0
:100F900002F79F4204FA00F407D95B1902F1FF300F
:100FA00074D29F4272D9023A2B44DF1B89B2B7FB3D
:100FB000FEF80EFB187341EA03430CFB08F79F424F
:100FC00008D95B1908F1FF315CD29F425AD9A8F1C8
:100FD00002082B44D81B48EA02428EE7C2F12003E4
:100FE0002CFA03F10EFA02FE20FA03F741EA0E0E84
:100FF00008FA02F028FA03F14FEA1E453843B1FB24
:10100000F5F8030C05FB18111FFA8EF743EA0141AE
:1010100007FB08F38B420CFA02FC09D911EB0E0115
:1010200008F1FF3930D28B422ED9A8F10208714461
:10103000C91A80B2B1FBF5F305FB131140EA014177
:1010400007FB03F78F4208D911EB0E0103F1FF30C4
:1010500016D28F4214D9023B714443EA0843C91B9C
:10106000A3FB0C89494509D305D000221DE796460C
:10107000FEE6134611E794404445F6D2013BF4E7FF
:101080000346EAE78846A5E7C846D1E702468CE76B
:1010900013460AE7023B57E7A8F102082F443FE74F
:1010A0002DE9F041002B44D18A42154604464FD920
:1010B000B2FA82F70E464FB1C7F12003B94020FAC9
:1010C00003F602FA07F50E4300FA07F44FEA154E4D
:1010D000230CB6FBFEF0AFB20EFB106143EA0143F6
:1010E00007FB00F1994209D95B1900F1FF3280F04A
:1010F000EC80994240F2E98002382B445A1AA4B29B
:10110000B2FBFEF30EFB132244EA024207FB03F795
:10111000974208D9521903F1FF3180F0D8809742E5
:1011200040F2D580023B43EA004000263146BDE84C
:10113000F0818B4247D8B3FA83F6002E48D18B4218
:1011400002D3824200F2CD8001203146BDE8F08119
:1011500012B90125B5FBF2F5B5FA85F8B8F1000F23
:1011600077D14A1B4FEA154EAFB20126B2FBFEF013
:10117000230C0EFB102143EA014107FB00F38B42D5
:1011800007D9491900F1FF3202D28B4200F2BA802E
:101190001046C91AA4B2B1FBFEF30EFB131144EAC8
:1011A000014407FB03F7A74208D9641903F1FF3292
:1011B00080F08F80A74240F28C80023B43EA0040DF
:1011C0003146BDE8F081002630463146BDE8F08169
:1011D000C6F1200422FA04F5B3402B4320FA04FCA4
:1011E00001FA06F721FA04F54FEA134E4CEA070715
:1011F000B5FBFEF8390C0EFB18551FFA83FC41EACB
:1012000005450CFB08F1A94202FA06F204D9ED18D3
:1012100008F1FF3467D3A0466D1ABFB2B5FBFEF4E8
:101220000EFB145547EA05410CFB04FC8C4504D920
:10123000C91804F1FF355CD32C4644EA0844CCEBD2
:101240000101A4FB0223994248D344D02046002642
:101250006CE7C8F1200401FA08F305FA08F520FA52
:1012600004F7E1404FEA154E1F43B1FBFEF63A0C7E
:101270000EFB16111FFA85FC42EA01430CFB06F235
:101280009A4200FA08F407D95B1906F1FF3137D208
:101290009A4235D9023E2B449B1ABFB2B3FBFEF0F3
:1012A0000EFB103347EA03430CFB00F1994207D9C8
:1012B0005B1900F1FF3221D299421FD902382B4429
:1012C0005A1A40EA0646674650E7104616E70B46AC
:1012D00029E7134672E7B0409042B7D2601E00265D
:1012E00024E7304622E7A94295D9A8F102081D4417
:1012F00092E78C45A0D9023C19449EE71046DFE7EF
:101300000E46C9E70238294443E700BF0000000049
:10131000BE4BBF481A696FEAC2526FEAD2522DE93A
:1013200080481A611A69C2F308021A614FF0FF344B
:101330001A695A695C6100215A6959615A691A6AC5
:1013400062F080521A621A6A02F080521A621A6AB5
:101350005A6A5C625A6A59625A6A1A6C42F080523E
:101360001A641A6E42F080521A661A6E026842F4CB
:10137000807202601A6F02F44072B2F5007F87B08B
:1013800003D04FF480321A671967A14DA1496A68EA
:10139000A14C002022F400726A6003460A460860ED
:1013A0000146E0580C33C02B016002F1080242F8FC
:1013B000041CF6D199499A4ADFF890A2994B60240F
:1013C0004FF0FF364FF480754FF080084FF0400922
:1013D0004FF4007C4FF4806E4FF40007966003EBEF
:1013E0000800D660CAF808600022CAF80C6081F8CC
:1013F0000643C1F88091C1F8009081F80743C1F815
:101400008081C1F8008081F80843C1F880510D60E7
:1014100081F80943C1F880C1C1F800C081F80A43CE
:10142000C1F880E1C1F800E081F81743C1F880718C
:101430000F6081F82843C1F884514D601A605A60EA
:10144000083383424FF00001F8D1DFF80482764D73
:101450007648C8F8101008F118020123C8F81820BF
:10146000C8F81C2088F800302B70C8F81410C8F891
:101470002010C8F82C10C8F82800696005F1200376
:1014800005F1340243F8041F93424FF00000596104
:10149000F8D1674A674B288101214FF0A0461170AF
:1014A0006881506002F1200102F13404EE662B677E
:1014B00041F8040FA1424FF000034861F8D15349AD
:1014C0005D4F0E6C138146F001060E640E6E538163
:1014D00046F001060E66096EBE68584C4F486460BF
:1014E0004FF0804146F0010E4FF0FF3C42F2CF0634
:1014F0004FF6F07BC7F808E0DFF858A18E624FF096
:10150000010EC1F82CC08027C4F824C04FF08056CB
:101510008B61DFF84491A36004F1400C4B632461BC
:10152000CB6064614B60A4F838B004F11C0BA3627B
:10153000C1F814E06787C1F800E0C4F81CB080F877
:101540001C73C4F820B0C0F88061C2F86CA00660BB
:10155000C2F870902460C4F83CC0013304EB03125D
:10156000802B92F8301035486FF3020182F830106A
:10157000F3D1334B3349344A0A600026002701F186
:101580000C0BCDE9046703F11002142603F12407C4
:10159000DFF8C8E0C1F80CB0C1F810B01A6103F16F
:1015A000280B1C229E615F6203F13C0603F1400799
:1015B000DFF8ACC0DFF8ACA0DFF8AC90C3F828B01F
:1015C0001A6303F1440B0022DE631F6404264FF00C
:1015D000FF371B605B60C3F844B04A608A604A61B1
:1015E0009A605A61DA6202634263C0F88428019209
:1015F00002920392DE615E63C3F820C0C3F838C074
:10160000CEF800A0CEF8049000972FE000380240FA
:1016100000700040D8A4002060C8000800E100E08D
:101620000060024098A00020CCA3002020C9000840
:1016300044A4002014C80008002004E08CB6002058
:1016400020A3002060A50020E128000800640240DB
:1016500084A900200000044070CC000814BF0020C2
:10166000C123000850BF002000000220684600F09F
:10167000AFFD684600F084FD013EF7D19F4BD4F8E2
:1016800014C0DFF8BCB2DFF8BC92009884F861683F
:1016900003F5046280274FF0010E03F66C0103F698
:1016A000680AC4F84878C4F87C78C4F87868C4F844
:1016B0007468C4F85048C4F854C8C4F8840884F85E
:1016C00062E8C4F858B82027CCF810206261A26103
:1016D00084F860E8C4F868A8C4F86C18C4F87018F6
:1016E000C4F85C9887F3118862B6854A8549D2F8B8
:1016F0000CA0DFF8549284484FF6FF0C0AEA0C0C59
:101700004CEA0101D160D9F80C1041F08071C9F8A0
:101710000C1001684FF0100C41EA0E01016082F8D4
:101720001FC082F82270226B0AB95B6B13B1774835
:1017300003F026FB86F3118862B6754801F0F8F8CD
:1017400010B1744803F01CFB714A552393550136C0
:10175000B6F5B07FDFF8B891F8D1202383F3118874
:1017600003F086FB00F0F4FD00236669DFF8DCC1BE
:10177000C9F8F830012109F58C724FF0020E89F892
:101780003931C9F85031C9F84C31C9F8201109F57F
:10179000A273C9F8541189F83A115F485F4FC9F82C
:1017A000F4C009F5A07109F1B40A89F838E1C9F863
:1017B0003001C9F834911046C9F82841C9F824A16C
:1017C000C9F82C61C9F814713261C9F84431C9F8FB
:1017D0004831C9F84011626106F05AFD03F038FB48
:1017E0002368464AA34204D092699B6892689A4251
:1017F00051D3002282F31188494E4A4BDFF850E161
:10180000B261304606F28C4940F8043B06F17C0197
:1018100006F5217306F10C0A06F1440CDFF834B129
:101820007263B263F2663267C6F83CE001224FF49D
:10183000827EC6F85C904FF002097362B3657365EF
:10184000B3663664B667C6F874B07060C6F80CA0AC
:10185000C6F810A03162F1613163C6F844C0C6F821
:1018600048C03272327586F84C20C6F828E0C6F8B7
:1018700060E0C6F82C90C6F85090C6F8649020231B
:1018800083F3118803F0F4FA337A013B012B05D975
:10189000254803F075FA254803F072FA244BC6F880
:1018A0008C346E62AE63AE6286F8089003F0D0FAB4
:1018B0002368124AA34204D092699B6892689A42B4
:1018C00019D34FF0000989F31188EA6E194E936B12
:1018D00023F40023936343F6982001F031FA202388
:1018E00083F3118803F0C4FA2B785A1E012A33D9E6
:1018F000114803F045FA114803F042FA8CB6002073
:1019000000ED00E00003FA05001000E07CCC0008C8
:1019100040A10020A0C7000884CC000821030008D3
:10192000FCB10020B8C70008ECC70008ACC700082D
:1019300020C80008CCA30020E0C70008F8C70008B2
:1019400034C8000800040020F0ED00E0514D00080C
:10195000E1770008E1780008BA4AC6F80C90012B3C
:10196000C6F81090C6F81490C6F81890C6F81C90E7
:10197000C6F820907260F66E00F0CF8102232B70C3
:1019800003F066FA2368B04AA34205D092699B68C7
:1019900092689A42C0F04182002383F31188EA6E74
:1019A000DFF8F8A2936BA94D43F40023936341F24F
:1019B000883001F0C5F944F6206001F0C1F9A4496E
:1019C000A44806F08DFA41F2883001F0B9F9A24A34
:1019D000A24BA3491160C3F800A04026DFF8BC92D7
:1019E0002946484600F04CFFDAF80430013E1D4419
:1019F000F4D19C489C4B9D4D9D4A9E49DFF8A0C266
:101A00001E6141F2444E00F5807BB24645F80E104F
:101A10001E7503F1180E03F120061860D860986057
:101A2000C3F804B002F59D6002F25C7B1E625E6248
:101A30006861C3F818E0C3F81CE04B60C1F800907F
:101A4000C1F808C02A606A60C5F818B056464FF45D
:101A500000402A68D5F818E0844B02EBCA020AF16C
:101A6000010151600EF80A606A6902EB8A028A4637
:101A7000BAF19D0F50804FF00001EAD118687E4EF8
:101A8000DFF82092DFF820C2DFF820E2C3F80CA0D4
:101A90004FF0FF3B4FF4006AC0F8E4B440F2333B30
:101AA000C3F808A0C3F81C90C3F824C019610A4603
:101AB00083F82C103046C3F820E0C3F828B04FF06C
:101AC00003094FF0020C4FF0FF0A16EB020B00F077
:101AD000AD8102F13C0E10EB0E0E00F0A7816032DA
:101AE000B2F5165FC3F8F4B0C3F8F890C3F8FC1071
:101AF000C3F800C1C3F80411C3F808E1C3F80C919E
:101B0000C3F81011C3F814C1C3F8181183F81C11DD
:101B100083F81DA103F12C03D7D1584AEE6902F1D5
:101B2000C0094FF0000C4FF02A0E4FF0FF304FF07D
:101B3000FF31002E00F0748106F1A8031661D36016
:101B4000C2F814C0C2F818E0C2E90A0130324A45AE
:101B500006F580764FF00003EBD141F2444241F2AA
:101B60002826A958464ADFF848A1137041F2382EBA
:101B70000422AA5145F80E2041F22C2B41F22429CF
:101B800041F2302C41F23C2641F234223D4845F8E6
:101B90000B304FF0010E45F809A005F80CE0AB51F1
:101BA000A850002900F04281DFF808C1364E3748BE
:101BB000374ACCF800104FF0FF3CC6F800C0036075
:101BC000106CDFF8F490334989F8003040F00800D9
:101BD0001064106EDFF8E4A02F4E40F0080010668D
:101BE000106E106A40F008001062106A20F00800C1
:101BF00010627020126A81F832034FF48022C1F81B
:101C000084214A60DAF80020002000219362C9E9AB
:101C10000201C2F82CC0C2F834C09363D3631364CA
:101C2000C2F820E05362C2F814E0C2F800E0D068C5
:101C3000032140EA0E00D060894610204FF00F0CBF
:101C40003EE000BF04C800088CB60020C823002076
:101C50008CCC0008FCB1002068A3002080A90020E3
:101C6000215D00087819002018A10020584F00209D
:101C70007811002014A30020C8290020884F0020DC
:101C8000986100206CA30020504F00205CA500202C
:101C90000038024000E100E000000240000800209F
:101CA000615D00087CA500203CC90008C82900200F
:101CB000A0A200207CA9002000A300201008002082
:101CC000042B4FEA500000F02981C2074FEA81013E
:101CD00003F10103F4D572680EFA03FA22EA0A024C
:101CE00072604FEA430AB26809FA0AFA6FEA0A0A0E
:101CF0000AEA0202B260F2680AEA0202F26032689C
:101D00000AEA02020A433260326A4FEA830A0CFA94
:101D10000AFA22EA0A023262D2E7BD4BBD4A596B87
:101D2000DFF840E3BC4841F080015963596D41F050
:101D300080015965596D596941F0800159615969AE
:101D400021F0800159614FF0E00B08214FF0C00AEB
:101D50004FF4502C5B6982F843B3C2F8881191604C
:101D6000C6F80CE0C6F80008C6F8009EC6F800A049
:101D7000C6F838C03369002BFCDA012333610C202C
:101D800002F0EEFF3369D907FCD4122002F0E8FF1D
:101D90003369002BFCDA2B6FE86ED3F80890002330
:101DA000B3604FF0FF3C59014218D2F800E9BEF190
:101DB000000F05DAD2F800E94EF0804EC2F800E9D3
:101DC000D2F800EBBEF1000F05DAD2F800EB4EF0CE
:101DD000804EC2F800EB421801334B45C2F808C9E7
:101DE000C2F808CBDFD96B68DA684FF00111002325
:101DF000C0F81C18C6F81038C6F81438C6F81C38D5
:101E0000002A00F08880854BB3614FF0FF33736187
:101E1000B36843F00103B360B0E5814802F0B0FF5E
:101E20004FF0FF304FF0FF31C2E90A017D487E4993
:101E300006F056F8DFF830827C4B7D48C8F8005039
:101E4000C8F8043000F074FD10B17A4802F098FF31
:101E5000774B552103F5156203F8011B9342744D2E
:101E6000FAD3202383F3118803F002F862697248E1
:101E7000DFF8F891C5F81C2900236C214FF0020C03
:101E80004FF0010E05F60816C5F81019C5F84419EB
:101E900085F82939C5F84039C5F83C3905F513618D
:101EA00005F6341305F6A40A85F828C985F82AE949
:101EB000C5F82009C5F82459C5F8E888C5F804799B
:101EC000C5F81849C5F814A9C5F8E4983046166154
:101ED000C5F83439C5F83839C5F83019666106F0E7
:101EE000D7F902F0B5FF2368544AA34205D092699E
:101EF0009B6892689A42FFF4CEAC002383F311886A
:101F00004F4B48484F491E6005F0EAFF42F21070FF
:101F100000F016FFFAE74C4BB36176E74B4EDFF863
:101F20005091C6F81080002340F2FF72B375B36180
:101F3000B360B282202383F3118802F099FF98F8EE
:101F400000305A1E012A02D9414802F019FF06F159
:101F50001402012BC9F810201ED12D4BD9F82800EE
:101F60001A6CD0F800E0B18A42F000521A641A6E7E
:101F700042F000521A66B2691B6EC368DEF800C0F8
:101F8000806842F0010282400CEA03031343484692
:101F9000CEF8003005F07CFF022388F8003002F014
:101FA00057FF2368254AA34204D092699B68926830
:101FB0009A422AD3002383F3118841F2442C41F240
:101FC000482341F24C2141F2502841F2542E41F273
:101FD000582241F25C2B012045F80C60E854DFF8F0
:101FE00094A0DFF89490DFF894C01A4E1A4B45F88D
:101FF00001A045F80890194945F80EC0AE5045F8C3
:102000000B30084805F06CFF14E7154802F0B8FEE5
:102010000038024000E100E003002002083C30C02C
:1020200088C70008FCB10020B4CC0008CCCC000864
:10203000781A00204CC80008D0CC00088CB60020CC
:1020400010A30020D8CC0008003C30C0BCA4002065
:1020500028C80008015D0008F15C00089CCC00085D
:1020600094C7000840140040484F0020A1630008B6
:1020700084A90020C15C000821600008115D0008EF
:1020800030B50B6801330B6090F82C30013303EB53
:10209000430300EB031383B004465A6801466846C5
:1020A00006F0F6FC94F82C309DE80300013303EBB6
:1020B000430304EB031484E8030003B030BD00BF06
:1020C00030B50B6801330B6090F82C30013303EB13
:1020D000430300EB031383B004465A680146684685
:1020E00006F0E6FC94F82C309DE80300013303EB86
:1020F000430304EB031484E8030003B030BD00BFC6
:10210000202383F31188104B5B6813F4006302D122
:1021100083F311887047F1EE103AEFF30983683BBF
:102120004FF08071094AD961D2681A6683F3098831
:10213000074A116892698968926891428CBF054A82
:10214000054A9A61704700BF00ED00E030EF00E003
:102150008CB600203703000842030008000000008E
:10216000EFF3098305494A6822F0010268334A60A7
:1021700083F30988002383F31188704730EF00E070
:102180000F4B10495A688368F0B4D1F884784168DD
:10219000C668D0E90445D31ADB1BE41802688360E3
:1021A00045F100058B4206F1010688BF436093426A
:1021B000C660C0E9044538BF0360F0BC704700BF8B
:1021C000001000E08CB600200000000000000000BD
:1021D000014B5B6883607047001000E00000000066
:1021E00010B40B4A0B48D36B4FF080441968646AF3
:1021F0005C60406860F31F2143F8101B02F5046126
:102200008B4228BF02F14003D3635DF8044B704753
:102210008CB60020001000E000000000000000006C
:102220000B4B10B51C8F04F00204A4B27CB9202221
:1022300082F31188DA6B13789060032161F3020353
:1022400064F3C7031370FFF7CBFF84F3118810BD4D
:102250008CB600200000000000000000000000001C
:102260000B4B10B51C8F04F00204A4B27CB92022E1
:1022700082F31188DA6B13789060022161F3020314
:1022800064F3C7031370FFF7ABFF84F3118810BD2D
:102290008CB60020000000000000000000000000DC
:1022A0000C4B1A8FD20700D57047DA6B10B49C69BB
:1022B0001378012060F30203137091F820009460FA
:1022C00060F3C70313704B6AD3605DF8044BFFF7EC
:1022D00087BF00BF8CB60020000000000000000097
:1022E00008B5054B1A6B1AB95B6B002B00DD08BDF6
:1022F000024802F045FD00BF8CB6002084CD0008E6
:1023000070B5114CA5690646FFF7EAFF236885F80A
:1023100020601A68226001215460184683F820105A
:102320002946A361FFF7BCFFEFF30983EA69643B29
:102330009A4205D8A0692946BDE87040FDF7E4BF80
:10234000024802F01DFD00BF8CB600208CCD0008B5
:1023500008B5054B1A6B002A03DB5B6B002B00DD15
:1023600008BD024802F00CFD8CB600209CCD000890
:10237000F8B50C4606461546FFF7EAFF8CB1601E1D
:1023800010EA04010DD1094F7B6864429E1B06EAE6
:1023900004003C68421BA24206D3934204D37A60F5
:1023A000F8BD034802F0ECFC0846F8BD14BF00205D
:1023B000D8CD000800000000000000000000000070
:1023C0000022FFF7D5BF00BF0000000000000000A2
:1023D0002DE9F043894687B00646FFF781FFB9F142
:1023E000FF3F56D0594FBC69FFF7B2FFB9F1000F5C
:1023F0004CD0B846B9F1010F58F81C3F5448059429
:102400004FF0804208BF4FF002094345516A0490E3
:102410007FD0B86A0D1A19EB050443D29A6894422A
:1024200055D3944201AD06D9AB422FD01B68A41AF4
:102430009A689442F8D85A680292019315605D60D8
:1024400003949A684FF0FF31141B9C607962304608
:10245000FFF756FFFFF77CFF049BF3B1FFF778FF10
:10246000FB693A48AB4238D0029A019B1360019B4A
:10247000002143455A6004910FD09968039A0A4499
:102480009A60BB69586A07B0BDE8F083314802F032
:1024900077FC3046FFF734FF2C4FBB69586A07B012
:1024A000BDE8F0839868854245D91A4600219160BD
:1024B00012682D1A9068A842F9D3BC6A42452C4490
:1024C000BC6201D0451B95604C469A68A9E7204440
:1024D00005F02EFAFB699A68A3E7019BC36100210E
:1024E0004345C3F804801A4604912AD0039C9B6894
:1024F0004FF0804123449360806A4A6A121A9342E3
:10250000CBD9991A012998BF931C184405F010FAE9
:10251000C3E7B962CDF80C90D068019301AD10F01B
:1025200002000293FD613D6208D1494402235163D8
:102530001061D3608BE7B9621A46C3E7064802F020
:102540001FFC4FF08043D960A7E700BF8CB6002086
:1025500081270008ECCD0008F8CD0008000000003D
:1025600069B1084B10B4024644689B69042083E8B3
:102570001400236053605DF8044BFFF729BF4FF050
:10258000FF3070478CB60020000000000000000003
:1025900010B50446FFF7DCFEA4B194F820308BB1EF
:1025A0000F2B0FD00022A168084B84F820201B6855
:1025B0009A688A42FBD85A68626023602046146099
:1025C0005C6010BD024802F0DBFB00BF8CB600204F
:1025D000C4CD000800000000000000000000000062
:1025E00038B5104C2368A0691A6822600121546034
:1025F00083F82010A361FFF7CBFF01460546A069D1
:10260000FFF74EFEEFF30983EA69643B9A4205D86F
:10261000A0692946BDE83840FDF776BE024802F0C1
:10262000AFFB00BF8CB600208CCD0008000000007E
:1026300038B5144CFFF754FEFFF78AFE2368A069F3
:1026400099688268914200D838BD1A6822600121D9
:10265000546083F82010A361FFF79AFF01460546F6
:10266000A069FFF71DFEEFF30983EA69643B9A4214
:1026700005D8A0692946BDE83840FDF745BE0248A7
:1026800002F07EFB8CB600208CCD0008000000001C
:1026900010B50446FFF75CFEA4B194F820308BB16E
:1026A0000F2B0FD00022A168084B84F820201B6854
:1026B0009A688A42FBD25A6862602360204614609E
:1026C0005C6010BD024802F05BFB00BF8CB60020CE
:1026D000ACCD000800000000000000000000000079
:1026E0002DE9F84306468846FFF732FE002E3AD021
:1026F0003468A6422AD0002702E02468A64225D0EA
:10270000E36843EA0803E360B8F1000F03D02369EC
:1027100018EA030FF1D06568D4F80890FFF718FEA7
:10272000F5B16B6B95F8202049EA03030A2A6B6325
:102730000ED00B2AE1D16A6A13409A42DDD16F6252
:102740002846FFF7A5FF2468A642D9D1BDE8F88343
:102750006A6A1342D1D06F622846FFF799FFF2E709
:10276000024802F00DFB024802F00AFB58CD0008B7
:1027700034CD000800000000000000000000000050
:1027800038B50446202383F3118802F049FB94F8FE
:102790002030072B10D8DFE803F0150F0F1B0A04B9
:1027A0000F0A656AFFF7D4FDAB680133AB6094E8AC
:1027B0000C001A60226853604FF0FF3363622046BA
:1027C000FFF766FF02F014FB002383F3118838BD86
:1027D000636A00221A604FF0FF3363622046FFF7FE
:1027E00057FFEFE7000000000000000000000000BD
:1027F00008B5202383F31188064A136B002B01DDF3
:10280000516B11B1044802F0BBFA013B136381F331
:10281000118808BD8CB60020A4CD0008000000007F
:1028200008B50546202383F3118802F021FB104BE5
:102830009C69A06A656204F12805A84206D0036875
:10284000A362FFF725FFA06AA842F8D194F82230CE
:1028500043B994F821309B0704D1636922691A6156
:10286000226953610F20FFF74BFD024802F088FAFE
:102870008CB60020B8CD0008000000000000000069
:1028800038B504460D46202383F3118802F0F0FA90
:10289000FFF75EFD24B11DB1A368013B1D4202D0CC
:1028A0000B4802F06DFA23682B60256002F0D0FA25
:1028B000084B1A689A4204D0996993688A689A42C8
:1028C00003D3002383F3118838BD034802F058FA7C
:1028D00000CD00088CB6002020CE000800000000CB
:1028E00070B5202306460D46144683F3118802F086
:1028F000BFFA224629463046FFF73AFD044602F069
:10290000A7FA084B1A689A4204D0996993688A68B2
:102910009A4204D3002383F31188204670BD0248F5
:1029200002F02EFA8CB60020F4D40008000000005B
:102930002DE9F04F202385B0074683F31188B24D6F
:1029400002F096FAD5F8109099F82230013389F800
:10295000223002F07DFA2B68AB4204D0AA699B6852
:1029600092689A424AD34FF0000A8AF31188DFF83E
:1029700098822026D9F81C30BB4200F0CA8086F32A
:10298000118802F075FAD9F81040AC4200F0C58009
:1029900094F82230FF2B4DD0013384F8223002F01E
:1029A00057FA2B68AB4205D0D8F818209B6892687C
:1029B0009A4223D38AF3118886F3118802F058FAD9
:1029C00099F822309BB3013B89F82230D9F82030A6
:1029D00003F0FF130F2B14D002F03AFA2B68AB422E
:1029E00005D0D8F818209B6892689A421CD38AF3C5
:1029F0001188002C00F09680A146BBE7834802F0C6
:102A0000BFF9D9F81430D9F810201A61D9F810207C
:102A1000536102F01DFA2B68AB420ED0D8F8182093
:102A20009B6892689A4208D2794802F0A9F97948DD
:102A300002F0A6F9784802F0A3F98AF3118899F810
:102A4000213003F00303012B08D0022BD1D1D9F898
:102A50004000D9F81C10FFF713FFCAE7D9F81C1083
:102A600000295CD04B075AD111E90C000733DB0871
:102A7000019241F8043C029102F10C0B86F311889B
:102A800002F0F6F9FFF72CFCD5F818900299BBF18B
:102A9000000F2DD0019B5869002800F0AC80D9F8B8
:102AA00008208368934207D290F820308260062B7A
:102AB00052D0072B38D0F3B15A4604E09068D9F8C9
:102AC0000830984202D312689345F7D153680291B7
:102AD00089E80C000620C3F80090C2F80490C9F8F9
:102AE00024B0FFF70DFC019B02995B69994552D018
:102AF0004A4802F045F94268036802914FF0010E1E
:102B000080F820E0136003685A60FFF7C1FD029966
:102B1000D2E7484605B0BDE8F08F00243FE74048C3
:102B200002F02EF92046F5E7426803681360036857
:102B30005A60436A8C461A4604E091688E46816862
:102B40008E4502D312689342F7D15368614680E8FC
:102B50000C0018605060AFE74268036813600368B8
:102B60005A60436A8C461A4604E091688E46816832
:102B70008E4502D312689342F7D1536880E80C0067
:102B800018605060436AD9F80820986883689A42B0
:102B9000614689D890E7D9F838309B45A8D1029191
:102BA00002F056F92A680299AA4205D0D8F81830DE
:102BB00092689B6893425AD3019BA1F1080003F1EC
:102BC000040E8AF311887246904205D3536801338C
:102BD00002EBC3039842A2D3964505D0904203D896
:102BE00012689042F8D3F1E71368002B42D0984264
:102BF00040D31A46E8E70198D9F838308361C0F825
:102C00001490C9F838B0CAE78CB600200CCD000883
:102C1000ACC7000868CD000818CD000878CD0008C2
:102C20004CCD00084C46DDF8089001983B46C9F8A9
:102C30000830C368039F1A68996BC260C2F804B079
:102C4000019A184653619161C3F838B0FFF720FD2F
:102C5000FFF7EEFC02F0FCF82B68AB423FF4C7AE86
:102C6000D8F818209B6892689A42BFF4C0AE3148E9
:102C700002F086F851F8049C41F8083C106009F114
:102C8000010E51F8083C00EBCE0C9C4546D0D2F822
:102C900004E00EF1010302EBC303984235D0D5F8EE
:102CA000189086F3118802F0E3F8D9F8382012B1B1
:102CB0009368994502D0204802F062F89345FAD112
:102CC000019B9A69C9F838200392FFF709FB019B21
:102CD000DB689B4515D0D9F83C30039ACDF80890B5
:102CE0000397A1461F461446002C9BD0FFF7F8FA25
:102CF0002268944203D093689F4238BF1F46E4681D
:102D0000F2E7019BC3F814A0A4E711E90A00734499
:102D1000013311605360D5F81890C2E7DCF804C0A5
:102D200050F83E3041F8083C0CEB0903013341F800
:102D3000043CACE708CE000828CD000800000000E5
:102D400010B52023044683F3118802F091F8ACB14A
:102D500021460820FFF73CFB02F07AF8094B1A687D
:102D60009A4204D0996993688A689A4203D30023EF
:102D700083F3118810BD044802F002F8034801F003
:102D8000FFFF00BF8CB60020ACC7000814CE0008BF
:102D900090F82C30013303EB43031B0130B4C4180B
:102DA00000256268C552531E63600B6801330B60D7
:102DB00030BC704700000000000000000000000070
:102DC00090F82C30013303EB43031B0130B4C418DB
:102DD00000256268C55282F0010363600B6801330D
:102DE0000B6030BC704700BF000000000000000016
:102DF00090F82C30013303EB43031B0130B4C418AB
:102E000000256268C552534263600B6801330B6052
:102E100030BC70470000000000000000000000000F
:102E200090F82C30013303EB43031B0130B4C4187A
:102E300000256268C55282EAE273A3EBE273636025
:102E40000B6801330B6030BC704700BF000000000E
:102E5000426A0B6813445A789B7843EA02230B605A
:102E6000704700BF000000000000000000000000EC
:102E70000B6801330B607047000000000000000089
:102E80000B6801330B6090F82C30013303EB4303E4
:102E90001B01C1180022C2524A60704700000000A6
:102EA00090F82C300A6830B40133446A03EB4303D2
:102EB0001B0122440025C4185278C55262600B6879
:102EC00002330B6030BC70470000000000000000BF
:102ED000F0B40A68466A90F82C40324401345578C0
:102EE000937843EA05239B000733F518F75CEA78EB
:102EF0006B78AE7804EB440442EA0762240142EAAC
:102F0000034300250219055343EA062353600B6867
:102F100003330B60F0BC70470000000000000000AD
:102F2000F0B590F82C300A680D460133416A03EB86
:102F300043030A4400EB0313044693E8030087B0FD
:102F40005778937802AE43EA0723002286E803000D
:102F500020460593ADF8102005F06AFD431C02469B
:102F60001AD094F82C30013396E8030003EB4303A6
:102F70001B014FF40047E7528DE80300E61806AB4B
:102F800072601146204613E90C0005F061FD2B68C4
:102F900003332B6007B0F0BD286007B0F0BD00BF61
:102FA000F0B590F82C300A680D460133416A03EB06
:102FB00043030A4400EB0313044693E8030087B07D
:102FC0005778937802AE43EA0723002286E803008D
:102FD00020460593ADF8102005F02AFD431C02465B
:102FE0001BD094F82C3006A9013311E9030003EB40
:102FF00043031B014FF4004E24F803E08DE8030067
:10300000E71811467A60204696E80C0005F020FD8E
:103010002B6803332B6007B0F0BD286007B0F0BD0C
:10302000F0B50B6801330B6090F82C305A1C02EBA2
:10303000420200EB021204460D4692E8030087B0FC
:1030400003EB430304EB031302AE04AF86E8030073
:1030500003F13C00394605F0EBFB20B94FF0FF339C
:103060002B6007B0F0BD204605F0E2FC431C024691
:10307000F4D094F82C30013397E8030003EB4303BA
:103080001B014FF40047E7528DE80300E518114695
:103090006A60204696E80C0005F0DAFC07B0F0BD47
:1030A00070B5044690F82C0000EB400082B004EBB1
:1030B00000100E463C30694605F0BAFB78B194F832
:1030C0002C309DE80300013303EB430304EB0314AE
:1030D00084E8030033680133336002B070BD4FF001
:1030E000FF33336002B070BD00000000000000003C
:1030F000F0B50B6801330B60044690F82C00431CBC
:1031000003EB430300EB400083B004EB031304EB39
:10311000001000250E463C3069465F68ADF800504F
:10312000019505F085FB78B194F82C30019A0133B4
:1031300003EB43031B01E118D71BB7FA87F77F099D
:10314000E5524F6003B0F0BD4FF0FF33336003B082
:10315000F0BD00BF00000000000000000000000003
:10316000F0B50B6801330B60044690F82C00431C4B
:1031700003EB430300EB400083B004EB031304EBC9
:10318000001000250E463C3069465F68ADF80050DF
:10319000019505F04DFBB8B194F82C309DED017A06
:1031A00007EE907A013303EB43031B01F4EE477AF9
:1031B000F1EE10FA04EB03020CBF4FF07E51002138
:1031C000E552516003B0F0BD4FF0FF33336003B000
:1031D000F0BD00BF00000000000000000000000083
:1031E000F0B50B6801330B60044690F82C00431CCB
:1031F00003EB430300EB400083B004EB031304EB49
:10320000001000250E463C3069465F68ADF800505E
:10321000019505F00DFB78B194F82C30019A01333B
:1032200003EB43031B01E118D71BB7FA87F77F09AC
:10323000E5524F6003B0F0BD4FF0FF33336003B091
:10324000F0BD00BF00000000000000000000000012
:10325000F0B50B6801330B60044690F82C00431C5A
:1032600003EB430300EB400083B004EB031304EBD8
:10327000001000250E463C3069465F68ADF80050EE
:10328000019505F0D5FA78B194F82C30019A013304
:1032900003EB43031B01E118D71BB7FA87F77F093C
:1032A000E5524F6003B0F0BD4FF0FF33336003B021
:1032B000F0BD00BF000000000000000000000000A2
:1032C000F0B50B6801330B60044690F82C00431CEA
:1032D00003EB430300EB400083B004EB031304EB68
:1032E000001000250E463C3069465F68ADF800507E
:1032F000019505F09DFAB8B194F82C309DED017A56
:1033000007EE907A013303EB43031B01F4EEC77A17
:10331000F1EE10FA04EB0302ACBF4FF07E51002136
:10332000E552516003B0F0BD4FF0FF33336003B09E
:10333000F0BD00BF00000000000000000000000021
:10334000F0B50B6801330B60044690F82C00431C69
:1033500003EB430300EB400083B004EB031304EBE7
:10336000001000250E463C3069465F68ADF80050FD
:10337000019505F05DFAB8B194F82C309DED017A15
:1033800007EE907A013303EB43031B01F4EEC77A97
:10339000F1EE10FA04EB030294BF4FF07E510021CE
:1033A000E552516003B0F0BD4FF0FF33336003B01E
:1033B000F0BD00BF000000000000000000000000A1
:1033C000F0B50B6801330B60044690F82C00431CE9
:1033D00003EB430300EB400083B004EB031304EB67
:1033E000001000250E463C3069465F68ADF800507D
:1033F000019505F01DFAB8B194F82C309DED017AD5
:1034000007EE907A013303EB43031B01F4EEC77A16
:10341000F1EE10FA04EB0302CCBF4FF07E51002115
:10342000E552516003B0F0BD4FF0FF33336003B09D
:10343000F0BD00BF00000000000000000000000020
:10344000F0B50B6801330B60044690F82C00431C68
:1034500003EB430300EB400083B004EB031304EBE6
:10346000001000250E463C3069465F68ADF80050FC
:10347000019505F0DDF9B8B194F82C309DED017A95
:1034800007EE907A013303EB43031B01F4EEC77A96
:10349000F1EE10FA04EB03024CBF4FF07E51002115
:1034A000E552516003B0F0BD4FF0FF33336003B01D
:1034B000F0BD00BF000000000000000000000000A0
:1034C000F0B50B6801330B60044690F82C00431CE8
:1034D00003EB430300EB400083B004EB031304EB66
:1034E000001000250E463C3069465F68ADF800507C
:1034F000019505F09DF980B194F82C30019A0133C3
:1035000003EB43031B01BA4204EB0301CCBF0027CA
:103510000127E5524F6003B0F0BD4FF0FF33336039
:1035200003B0F0BD0000000000000000000000003B
:10353000F0B50B6801330B60044690F82C00431C77
:1035400003EB430300EB400083B004EB031304EBF5
:10355000001000250E463C3069465F68ADF800500B
:10356000019505F065F980B194F82C30019A01338A
:1035700003EB43031B01BA4204EB0301B4BF002772
:103580000127E5524F6003B0F0BD4FF0FF333360C9
:1035900003B0F0BD000000000000000000000000CB
:1035A000F0B50B6801330B60044690F82C00431C07
:1035B00003EB430300EB400083B004EB031304EB85
:1035C000001000250E463C3069465F68ADF800509B
:1035D000019505F02DF980B194F82C30019A013352
:1035E00003EB43031B01BA4204EB0301ACBF00270A
:1035F0000127E5524F6003B0F0BD4FF0FF33336059
:1036000003B0F0BD0000000000000000000000005A
:10361000F0B50B6801330B60044690F82C00431C96
:1036200003EB430300EB400083B004EB031304EB14
:10363000001000250E463C3069465F68ADF800502A
:10364000019505F0F5F880B194F82C30019A01331A
:1036500003EB43031B01BA4204EB0301D4BF002771
:103660000127E5524F6003B0F0BD4FF0FF333360E8
:1036700003B0F0BD000000000000000000000000EA
:10368000F0B50B6801330B60044690F82C00431C26
:1036900003EB430300EB400083B004EB031304EBA4
:1036A000001000250E463C3069465F68ADF80050BA
:1036B000019505F0BDF880B194F82C30019A0133E2
:1036C00003EB43031B01BA4204EB03018CBF002749
:1036D0000127E5524F6003B0F0BD4FF0FF33336078
:1036E00003B0F0BD0000000000000000000000007A
:1036F000F0B50B6801330B60044690F82C00431CB6
:1037000003EB430300EB400083B004EB031304EB33
:10371000001000250E463C3069465F68ADF8005049
:10372000019505F085F880B194F82C30019A0133A9
:1037300003EB43031B01BA4204EB030134BF002730
:103740000127E5524F6003B0F0BD4FF0FF33336007
:1037500003B0F0BD00000000000000000000000009
:10376000F0B50B6801330B60044690F82C00431C45
:1037700003EB430300EB400083B004EB031304EBC3
:10378000001000250E463C3069465F68ADF80050D9
:10379000019505F04DF880B194F82C30019A013371
:1037A00003EB43031B01BA4204EB03012CBF0027C8
:1037B0000127E5524F6003B0F0BD4FF0FF33336097
:1037C00003B0F0BD00000000000000000000000099
:1037D000F0B50B6801330B60044690F82C00431CD5
:1037E00003EB430300EB400083B004EB031304EB53
:1037F000001000250E463C3069465F68ADF8005069
:10380000019505F015F880B194F82C30019A013338
:1038100003EB43031B01BA4204EB030194BF0027EF
:103820000127E5524F6003B0F0BD4FF0FF33336026
:1038300003B0F0BD00000000000000000000000028
:10384000F0B50B6801330B60044690F82C00431C64
:1038500003EB430300EB400083B004EB031304EBE2
:10386000001000250E463C3069465F68ADF80050F8
:10387000019504F0DDFF88B194F82C30DDED017A7C
:1038800007EE107A013303EB43031B0177EEC77A8F
:10389000E118E552C1ED017A03B0F0BD4FF0FF33FE
:1038A000336003B0F0BD00BF000000000000000066
:1038B000F0B50B6801330B60044690F82C00431CF4
:1038C00003EB430300EB400083B004EB031304EB72
:1038D000001000250E463C3069465F68ADF8005088
:1038E000019504F0A5FF88B194F82C309DED017A84
:1038F00007EE907A013303EB43031B0167EE877AEF
:10390000E218E552C2ED017A03B0F0BD4FF0FF338B
:10391000336003B0F0BD00BF0000000000000000F5
:10392000F0B50B6801330B60044690F82C00431C83
:1039300003EB430300EB400083B004EB031304EB01
:10394000001000250E463C3069465F68ADF8005017
:10395000019504F06DFF88B194F82C309DED017A4B
:1039600007EE907A013303EB43031B0177EE877A6E
:10397000E218E552C2ED017A03B0F0BD4FF0FF331B
:10398000336003B0F0BD00BF000000000000000085
:10399000F0B50B6801330B60044690F82C00431C13
:1039A00003EB430300EB400083B004EB031304EB91
:1039B000001000250E463C3069465F68ADF80050A7
:1039C000019504F035FF60B194F82C30019A013371
:1039D00003EB43031B01E118D71BE5524F6003B013
:1039E000F0BD4FF0FF33336003B0F0BD00000000C6
:1039F000F0B50B6801330B60044690F82C00431CB3
:103A000003EB430300EB400083B004EB031304EB30
:103A1000001000250E463C3069465F68ADF8005046
:103A2000019504F005FF68B194F82C30019A013338
:103A300003EB43031B01E11802FB07F7E5524F605C
:103A400003B0F0BD4FF0FF33336003B0F0BD00BFF3
:103A5000F0B50B6801330B60044690F82C00431C52
:103A600003EB430300EB400083B004EB031304EBD0
:103A7000001000250E463C3069465F68ADF80050E6
:103A8000019504F0D5FE60B194F82C30019A013311
:103A900003EB43031B01E1181744E5524F6003B0E9
:103AA000F0BD4FF0FF33336003B0F0BD0000000005
:103AB000F0B50B6801330B60044690F82C00431CF2
:103AC00003EB430300EB400083B004EB031304EB70
:103AD000001000250E463C3069465F68ADF8005086
:103AE000019504F0A5FE60B194F82C30019A0133E1
:103AF00003EB43031B01E118D71BE5524F6003B0F2
:103B0000F0BD4FF0FF33336003B0F0BD00000000A4
:103B1000F0B50B6801330B60044690F82C00431C91
:103B200003EB430300EB400083B004EB031304EB0F
:103B3000001000250E463C3069465F68ADF8005025
:103B4000019504F075FE68B194F82C30019A0133A8
:103B500003EB43031B01E11802FB07F7E5524F603B
:103B600003B0F0BD4FF0FF33336003B0F0BD00BFD2
:103B7000F0B50B6801330B60044690F82C00431C31
:103B800003EB430300EB400083B004EB031304EBAF
:103B9000001000250E463C3069465F68ADF80050C5
:103BA000019504F045FE60B194F82C30019A013380
:103BB00003EB43031B01E1181744E5524F6003B0C8
:103BC000F0BD4FF0FF33336003B0F0BD00000000E4
:103BD000F0B5044690F82C00431C03EB430300EBC4
:103BE000400083B004EB031304EB001000220F46E7
:103BF0003C3069465E68ADF80020019204F018FE82
:103C0000D8B194F82C309DE80300013303EB430353
:103C100004EB031383E80300F30704D53B68033385
:103C20003B6003B0F0BD626A3B6813445A789B78EE
:103C300043EA02233B6003B0F0BD4FF0FF333B602B
:103C400003B0F0BD00000000000000000000000014
:103C500010B590F82C3003EB430382B000EB031057
:103C60000C4600233C306946ADF80030019304F067
:103C7000DFFD18B1019B236002B010BD4FF0FF3390
:103C8000236002B010BD00BF000000000000000073
:103C9000F0B50B6801330B6090F82C305A1C02EB26
:103CA000420200EB021204460D4692E8030087B080
:103CB00003EB430304EB031302AE04AF86E80300F7
:103CC000002203F13C003946ADF81020059204F0C3
:103CD000AFFD20B94FF0FF332B6007B0F0BD204699
:103CE00004F0A6FE431C0246F4D094F82C300133B5
:103CF00096E8030003EB43031B014FF40046E65232
:103D00008DE80300E51811466A60204697E80C002C
:103D100004F09EFE07B0F0BD0000000000000000AF
:103D200030B590F82C305A1C02EB420200EB021224
:103D300004460D4692E8030083B08DE8030003EBD0
:103D4000430304EB03103C309DE8060004F088FDBB
:103D500070B194F82C30013303EB43031B01E118DD
:103D60000022E2524A602B6801332B6003B030BD61
:103D70004FF0FF332B6003B030BD00BF00000000E8
:103D800070B50B6890F82C20456A82B0DE1C02EBFF
:103D900042020C46002101962B4400EB02100091D8
:103DA00002AA12E906003C305E789D7804F058FDC6
:103DB00020B145EA0625256002B070BD4FF0FF3303
:103DC000236002B070BD00BF0000000000000000D2
:103DD000F0B590F82C305A1C02EB420200EB0212B4
:103DE00004460D4692E8030085B003EB430304EB61
:103DF000031302AF8DE80300002203F13C003946B3
:103E0000ADF80820039204F013FD20B94FF0FF3302
:103E10002B6005B0F0BD94F82C0000EB400004EBE3
:103E200000103C309DE8060004F01AFD0028EDD09B
:103E300094F82C3097E80300013303EB430304EBC1
:103E4000031484E803002B6801332B6005B0F0BD38
:103E500030B590F82C40631C03EB430300EB0313D5
:103E600002460D4693E8030083B08DE8030004EB9F
:103E7000440402EB04103C309DE8060004F0F0FC22
:103E800020B12B6801332B6003B030BD4FF0FF33FE
:103E90002B6003B030BD00BF000000000000000038
:103EA0002DE9F047044690F82C00431C88B003EB42
:103EB000430300EB400002AE04EB031304EB0010DD
:103EC00000220D463C303146D3F80480ADF808207E
:103ED000039204F0ADFC28B94FF0FF332B6008B01B
:103EE000BDE8F08704A82146424606AF04F0E0FD95
:103EF00042463846214604F0CBFD2B68606A5A1CC6
:103F0000991C10F802E002EB8E0E7145E4D8DDF842
:103F100014C003444FF6FF7A03E052450FD07145B9
:103F2000DAD89878DA7893F8049093F8058042EA22
:103F30000022624501F1040103F10403EDD12046A2
:103F400004F076FD431C0246C6D094F82C300133B1
:103F500097E8030003EB43031B014FF4004E24F8E2
:103F600003E08DE80300E71811467A60204696E8E2
:103F70000C0004F06DFD48EA09232B60AFE700BF99
:103F80002DE9F047044690F82C00431C8CB003EB5D
:103F9000430300EB400002AD04EB031304EB0010FD
:103FA00000260F463C302946D3F80480ADF808605F
:103FB000039604F03DFC28B94FF0FF333B600CB092
:103FC000BDE8F0870DF1100942464846214604F04D
:103FD0006FFD424606A82146DDF814A004F058FD06
:103FE000DDF81C80B8F1FF3F37D099E803000DF1F0
:103FF000200A8AE80300204604F01AFDB0F1FF3FD2
:104000008146D9D095E803009AE80C008DE80300BA
:104010002046494604F01CFD94F82C300A960133E2
:1040200003EB43031B01E2184FF40041E152C2F8D5
:1040300004903B6894F82C00013300EB40000B9394
:1040400004EB00100CAB13E906003C3004F008FC54
:104050000028B1D0C7F80080B1E794F82C300A9658
:1040600095E803005A1C02EB420204EB021282E8BC
:1040700003003A6803EB4303013204EB03100B9295
:104080000CAB13E906003C3004F0EAFB002814BF37
:1040900053464FF0FF333B6091E700BF0000000044
:1040A0002DE9F041426A0B681A4482B05578044603
:1040B0000E46F5B190F82C304FF0000801336F46F2
:1040C00003EB430304EB031338465A68214604F01C
:1040D000EFFC94F82C3097E80300013303EB430224
:1040E00008F1010804EB0212A84582E80300E7D1B9
:1040F00033680233336002B0BDE8F0810000000095
:104100002DE9F041426A0B68134482B05C780646A0
:104110000D46CCB390F82C3000270133E84603EB72
:10412000430306EB031340465A68314604F0C0FCD3
:1041300096F82CE098E803000EF1010303EB43022C
:10414000013706EB0212A74282E80300E7D10EF125
:10415000010E0EEB4E0E06EB0E1E40463146DEF80B
:10416000042004F095FC96F82C3098E80300013305
:1041700003EB430306EB031686E803002B680233C8
:104180002B6002B0BDE8F08190F82CE0E846DEE755
:1041900010B590F82C3003440446002283F8F02038
:1041A00004F096FB94F8F01094F8F13094F8F220B3
:1041B0000B43134306D194F8F3301BB941F2484343
:1041C0000122E25410BD00BF00000000000000000A
:1041D00090F82C30013303EB430300EB03135B68CF
:1041E000DB0703D50B6803330B607047426A0B682B
:1041F00013445A789B7843EA02230B60704700BF50
:104200002DE9F04390F82C30013303EB430300EB2E
:10421000031385B05C68064622460F4602AD014690
:10422000684604F045FC22463146284604F030FC3E
:104230003B68706A5A1C991C845C02EB8404A1429E
:1042400028D8DDF804C003444FF6FF7903E04A455F
:104250000FD0A1421ED89878DA7893F8048093F8AA
:1042600005E042EA0022624501F1040103F1040382
:10427000EDD196F82C3095E80300013303EB4302AF
:1042800006EB02164EEA082386E803003B6005B001
:10429000BDE8F0834FF0FF333B6005B0BDE8F0832D
:1042A000F0B5426A0B68134487B05A789B780026B1
:1042B00043EA022303930D460446ADF8086004F078
:1042C000B7FB431C024620D094F82C3004964FF0E4
:1042D000FF310591013306A911E9030003EB430304
:1042E0001B014FF4004E24F803E08DE80300E718AB
:1042F00002AE7A601146204696E80C0004F0A8FB56
:104300002B6803332B6007B0F0BD286007B0F0BD09
:104310002DE9F04F426A0B681344A9B05B7804465C
:104320008846082B0CD8DFE813F09800DE00FA006E
:104330006B01BA019702CC02EE021200DDF81C807C
:104340004FF0FF33C8F8003029B0BDE8F08F90F887
:104350002C00431C03EB430300EB400004EB03136E
:1043600004EB00103C3018A95D6804F061FA0028E5
:10437000E6D094F82C0000EB400004EB00101DAFD9
:104380003C30394604F054FA0028D9D094F82CE097
:10439000199A4FEA4E0303EB0E0104EB0111D1E928
:1043A00014AB0EF1010697E80300542707FB05F54F
:1043B00006EB460607FB02F204EB06161AEB050AAB
:1043C0004BF1000B86E803000027002A00F0D98299
:1043D0001AEB02004BEB070106460F46734404EB51
:1043E0000313C3E916018DF888E0CDE924ABCDE9CC
:1043F000260101F0ADFF594508BF5045C0F0DB82F2
:104400008F4208BF86422CBF0122002247F22F5361
:104410009D4240F2BF828F4208BF8642C0F0BA82FE
:10442000002A40F0B7825046594604F039FA01306C
:1044300086D028AB13E90F008DE80F0022AD04F5FC
:10444000915095E80C00143004F012F901303FF45B
:1044500077AF204604F03CFACAE090F82C300133E4
:1044600003EB430300EB031318AD5E6828463246A6
:10447000214604F01DFB32461DA82146199F04F079
:1044800007FB1E9E731C00F0B88395E8030022AD65
:1044900085E80300204604F0CBFA074601303FF4DC
:1044A0004FAF0023ADF84C30149313AB93E80300E7
:1044B00095E80C008DE803002046394604F0C8FA60
:1044C00094F82C30013303EB43031B01E2184FF443
:1044D0000040E052B1B22046576004F011FA0130BA
:1044E00040F086802CE70346002203E00132642A74
:1044F0003FF426AF93F81C112C330029F6D12C235E
:1045000003FB0243012083F81C0194F82C30034480
:1045100003EB43031B01E018E152426068E090F8AE
:104520002C00431C03EB43031B0100EB400004EB96
:104530000010E2183C3011A95568E65A04F078F9E9
:1045400000283FF4FDAE4FF0FF3300272046ADF8C2
:1045500024600A95ADF84C701493129E03F0D8FEB7
:10456000411C05463FF4ECAE0DA821462A4604F056
:104570008FFADDF838A00BA8524621460DF14C0900
:1045800004F086FA99E803008DE80300F6B2199664
:10459000ADF8607018AB0CCB204629460C9E04F099
:1045A00057FA09AB93E803008DE803004FF4004786
:1045B0001E95ADF874701DAB514620460CCB04F02F
:1045C00047FA99E80300ADF88870CDF88CA08DE823
:1045D000030022AB0CCB3146204604F039FA94F8A4
:1045E0002C30013303EB43031B01E218E752566002
:1045F000D8F800300233C8F8003029B0BDE8F08F99
:1046000090F82C30013303EB430300EB03134FF01E
:10461000FF3A00275E68ADF83470CDF838A003F09B
:1046200077FE504583463FF48BAE11A821465A468B
:1046300004F02EFADDF848900FA84A4621460DAD49
:1046400004F026FAF6B295E8030046F48076149654
:10465000ADF84C7013AB0CCB8DE8030020465946E7
:10466000109E04F0F5F9ADF87470CDF878A01DAB8C
:1046700093E803008DE803004FF40047CDF864B0E1
:10468000ADF8607018AB494620460CCB04F0E0F959
:1046900095E80300ADF88870CDF88C9097E790F816
:1046A0002C30013303EB43031B01C218C35A576874
:1046B000B3F5004F7FF444AE0DF1880B0DF1340AD1
:1046C0003E460CE0B9F1010F00F051813A4618A8BE
:1046D000214604F0DDF9199F7A1C00F0C78109A872
:1046E00021463A4604F0E4F90A9D0BA82A462146E1
:1046F00004F0DEF92A460C9D5046214604F0C8F924
:104700002A460FA8214604F0D3F92A4611A82146CB
:10471000109D04F0BDF911AB93E803001EAB83E8D4
:104720000300C5F30729EDB21DAB8DF874908DF829
:10473000755093E807002C2303FB05FC04EB0C0EDB
:104740008BE807009EF81D219AE8030025ABFF2A9D
:1047500083E803004FF02C0E40F03681B9F1000FD2
:10476000B0D104EB0C0101F58471204604F098FAF5
:104770000028ABD08DF888908DF889505D460FCD1C
:1047800013AD2F460FC7269B17930FCD18AF0FC73A
:104790002B683B601BAB93E803009DF860A09DF87D
:1047A00061901A9D0FAB83E80300BAF1000F00F08F
:1047B0006082BAF1010F7FF4C3AD2C2000FB0940E9
:1047C0001DA9F43004F004FA01303FF4B9AD2368B8
:1047D000219A616943F832A0002321F82230ADF814
:1047E000443012930193CDF8009011AB9DF87410F2
:1047F0000CCB204603F0BCFD01303FF4A1AD4FF0DF
:10480000FF324FF0FF33CDE92423CDE9262328AB37
:1048100013E90F008DE80F009DF874608DF8886033
:1048200004F591509BE80C00043003F021FF0130A7
:104830003FF486AD6E1C00F0708294F82C3000932B
:10484000CDF804A01EAB294620460CCB04F040F95D
:1048500001307FF4CDAE73E590F82C00431C03EBE0
:10486000430300EB400004EB031304EB00103C3067
:104870001DA95F6803F0DCFF00283FF461AD1E9EB8
:104880000DF1880B354600E01D462A465846214664
:1048900004F0FEF8239B5A1CF6D16369226802EBF0
:1048A000C50203EB85054FF400415760698094F819
:1048B0002C30013303EB43031B01E218E152566035
:1048C00096E690F82C00431C03EB430300EB4000FA
:1048D00004EB031304EB00103C3022A95D6803F0E5
:1048E000A7FF00283FF42CAD05F1920304EB43131E
:1048F000239A1B7A002B60D104EB451404F59254E3
:1049000084F8202074E690F82C00431C03EB43034A
:104910001B0100EB400004EB0010E2183C3018A92A
:104920005668E75A03F084FF00283FF409AD199D4B
:104930001DA82A46214604F0BBF821461E9A22A84B
:1049400004F0B6F823992268636902EBC10203EB15
:10495000810356605F8094F82C30013303EB4303EE
:104960001B01E2184FF40041E152556040E604EBB0
:104970000C01F431204604F04BF900283FF4A6AEB8
:10498000F8E612EB0A0647EB0B074FF0FF304FF04B
:10499000FF3123E528AB13E90F008DE80F0022ADAE
:1049A00004F5915095E80C00043003F061FE0130ED
:1049B0007FF44FADC4E4002228E5D2B22C2303FBE0
:1049C000024484F81D5113E68DF889508DF88890C3
:1049D0005E460FCE13AD0FC533682B601DAB83E869
:1049E00007009DF874509DF875301F9E269A002D83
:1049F00000F01D81012D7FF4A3AC0EFB03432A467A
:104A000093F81D1104EB411303F5925304EB41108D
:104A1000083300F592505B680430594698470128E6
:104A20007FF48EAC9DF88A209DF88B109DF888301D
:104A30009DF88950120442EA0162134343EA0525B6
:104A4000701C00F0E9800023ADF8883094F82C3019
:104A50002395009301259BE80C00314620460195E3
:104A600004F036F801307FF4C3AD69E4204603F06A
:104A7000DFFF216862690590002341F83030374636
:104A800022F82030CDF81C80CDF818B00AE0012BB8
:104A900073D03A4621461DA803F0FAFF1E9F791CE9
:104AA00000F0A5800BA821463A4604F001F80C9DC1
:104AB00050462A46214603F0FBFFDDF838802A469F
:104AC0000FA8214603F0E4FF11A82146424603F057
:104AD000EFFF129D424618A8214603F0D9FFC5F307
:104AE0000723002BD3D10FAB93E803001EAB83E861
:104AF000030048F20003ADF880301DAA059B94F82E
:104B00002C9021938DF874909646BEE80F00DDF846
:104B100018C0EDB22C2606FB05F504EB0508E646A9
:104B2000AEE80F0008F1F4035A681B690599CEF846
:104B300000109A4208F1F80B08F580753FF4FEABBF
:104B4000D8F800318DF88890013393FBF2FE02FB18
:104B50001E3EBCE80F00D8F8F480CBF808E00EEB5E
:104B60008E0E08EB8E0EAEE80F00DCF80030CEF8AB
:104B700000306B6801336B608BE7EDB22C2303FBD5
:104B800005F348F20002E518ADF8782094F82CC03F
:104B9000059A1F9205F584798DF874C01DAA07CA7D
:104BA000D9F804E0D9F810B013ABDE4505F58878E4
:104BB00083E807003FF4C2ABD5F814218DF84CC050
:104BC000013292FBFEF10EFB112E93E80700D5F89F
:104BD0000851C9F80CE00EEB4E0305EB830585E8A0
:104BE0000700D8F808300133C8F8083051E72046EC
:104BF000DDF81C8003F06CFEFAE494F82C300133ED
:104C000003EB43031B01E5180022E252B9B2204630
:104C10006A6003F075FE62E494F82C30013303EB14
:104C200043031B01E2180021E1525560E0E40EFB52
:104C30000343170E93F81D118DF8882004EB4113E0
:104C400003F5925304EB41100833110C00F5925018
:104C5000120A8DF88A108DF889209B688DF88B7068
:104C6000043059460422984704283FF4E9AEFFF780
:104C700067BB2C2000FB09401DA900F5847003F0E0
:104C8000EFFF01303FF45CAB9DF87430216862693E
:104C900018461E461F9B012741F8337022F823A0B7
:104CA0000197CDF800900FAB01460CCB204603F0E6
:104CB0005FFB01303FF444AB4FF0FF324FF0FF3366
:104CC000CDE92423CDE9262328AB13E90F0094F87E
:104CD0002CE08DF888E08DE80F0004F591509BE8FA
:104CE0000C00043003F0C4FC01303FF429AB6B1C12
:104CF0001ED094F82C00ADF844A0CDF848A0019740
:104D000011AB0CCB29460090204603F0E1FE0130A8
:104D10003FF416AB84F82C606AE494F82C201EA9AA
:104D2000302303C902FB03331C4484E803005FE41F
:104D300094F82C20302302FB0333E21824F803A05C
:104D4000C2F804A0E6E700BF000000000000000079
:104D5000FEE700BF000000000000000000000000AF
:104D6000034A516853685B1A9842FBD8704700BFEA
:104D7000001000E000000000000000000000000043
:104D800008B5054672B60A4C238F03F004039BB2A4
:104D90000BB1E562FEE7E16B0A788860042060F3FE
:104DA000020263F3C7020A70FDF71AFAF1E700BFC7
:104DB0008CB6002000000000000000000000000091
:104DC00008B5202383F31188064A136B002B01DBFF
:104DD000516B11B10448FFF7D3FF0133136381F323
:104DE000118808BD8CB6002090CE0008000000009D
:104DF00008B5064B1A6B002A05DD5A6B002A02DD46
:104E000000225A6308BD0248FFF7BAFF8CB60020A3
:104E100098CE000800000000000000000000000024
:104E200008B5064B1A6B002A01DD5A6B12B1044813
:104E3000FFF7A6FF01225A6308BD00BF8CB6002011
:104E4000A0CE0008000000000000000000000000EC
:104E500008B5054B1A6B22B9596B002901DD5A635D
:104E600008BD0248FFF78CFF8CB60020A8CE0008D2
:104E700008B5054B1A6B0AB95A6B12B10348FFF714
:104E80007FFF01225A6308BD8CB60020B0CE000817
:104E900000EB81032DE9F041DA68D0F86C805669A7
:104EA00096E828009D4235D208EB411EB2F810C0AA
:104EB0005D1BDEF81839654528BF65469BB2B5EB2A
:104EC000830F32D8B76815B34C1C08EB04343B6829
:104ED0002360042D07D92B463A46043B52F8040FB1
:104EE0002060042BF9D896E80C002F441D44AA42F8
:104EF000B76075600ED9551BDEF81839654528BFB7
:104F000065469BB2B5EB830F0FD8002DDFD1084863
:104F1000FFF736FFD8F83438012000FA01F223EA0F
:104F20000203C8F83438BDE8F0810020BDE8F08104
:104F300038CE000800000000000000000000000063
:104F4000984ADFF8A0C2136997486FEA53236FEAC3
:104F500043232DE9F04F13611369DFF88C82DFF8EA
:104F60008C92DFF88CB2DFF88CE2904F904E914D2E
:104F7000914C23F4FF7323F0010313611369136B46
:104F80006FEA53236FEA43231363136D6FEA5323CE
:104F90006FEA432313656FF4A84A0023116DC8F824
:104FA0000430C8F808A0C8F80C904FF6FF7ADFF874
:104FB0004892C8F814A0C8F820B0C8F82490DFF8C8
:104FC0003CB2C8F800B04FF41079CCF804904FF020
:104FD000FF38DFF82CB2CCF808804FF08069CCF8AD
:104FE0000CB0CCF814A04FF0400BCCF82090DFF8B8
:104FF0001492CCF824B0CCF800900CF1A25C0CF523
:10500000443C0CF5AA7CCEF80430CEF80880CEF8EB
:105010000CC04FF0C04CCEF814A0CEF820C0DFF882
:10502000E8C1CEF824C0DFF8E4C16449CEF800C07E
:10503000DFF8DCE17B60DFF8DCC1C7F80880C7F887
:105040000CE040F6FF7EC7F814E03B627B62C7F8D5
:1050500000C07360C6F80880F360C6F814A033621D
:105060007362C6F800B06B60C5F80880EB60C5F8E5
:1050700014A02B626B622B606360C4F80880E3604D
:10508000C4F814A02362636223604360C0F8088000
:10509000C360C0F814A00362436203604B60C1F8B0
:1050A0000880CB60C1F814A00B624B620B60444BCC
:1050B0004FF0805E4FF44047C2F840E01F60136835
:1050C00043F0010313601168364B8F07FBD59A68D4
:1050D00022F003029A6019468B68324A13F00C03DF
:1050E000FAD1116801F0F90111609360136843F47B
:1050F0008033136011682B4B8E03FBD55A6F42F03F
:1051000001025A675A6F27499507FBD52D4B4B6013
:105110000B682B4A43F080730B6053685C04FCD52A
:1051200020490A681F4B9001FBD5274AC3F8842009
:105130001A6842F080621A601A681A491201FBD597
:10514000224A234B8A601A68224B9A421FD0224B74
:1051500040F205721A60204A136803F00F03052B12
:10516000FAD110498B6843F002038B608B680D4ABB
:1051700003F00C03082BF9D1536C43F480435364C0
:10518000536E43F480435366536EBDE8F08F134A69
:10519000134B12689A42DAD10F4B40F205121A6093
:1051A000D9E700BF00380240001C0240000C02405A
:1051B000001002400014024000180240002002408B
:1051C00000700040085440070430415400940838EF
:1051D000002004E011640020003C024000ED00E0EB
:1051E00041C20F410004024000000240540001404F
:1051F000000056550008024000AA0A0000AAA02A92
:105200001545515580200800000606000180200247
:10521000555055000001005500000000000000003E
:105220002DE9F84F4FF080483C48FDF719F8FFF79B
:10523000C7FDD8F81030D8F80C201340DAB2D243AA
:105240009B07C8F8102008D4FDF7D2FA3348FCF7C2
:10525000E7FFBDE8F84FFCF753BF202383F3118825
:10526000DFF8BC90CA46FFF7DBFDFDF771F8FDF7EC
:105270006FF85AF81C4FA2684F46D8F82410D9F896
:1052800028302748CD1A954223D300261344C9F865
:1052900028302368A268D4F80CB0C3F804A05345A2
:1052A000C9F81C30E66008BFC8F80C60AD1AFFF7FB
:1052B0009FFD86F311882069D847202383F3118846
:1052C000FFF7AEFDD9F81C40A2689542D5D3BB6A62
:1052D000DCE7C269524518D02B44836293685B1B9C
:1052E0009360826AA3688C1A1C1B012C98BF02244D
:1052F0000C44204602F01CFB4FF08043D9F82820D4
:105300005B6AA11A9B1A8B4205D8FFF771FD002337
:1053100083F3118898E70348FFF732FDF8CE0008C1
:105320008CB60020B8CE000800000000000000008D
:1053300000EB8103F0B4DC6865692B68EB60F3B9BE
:10534000C06E00EB41134FF40022C3F8102923680C
:1053500003F00303012B26D00BB200EB431301240F
:10536000D3F8002942F00442C3F80029D0F83428C9
:1053700004FA01F31343C0F83438F0BC704719B392
:105380005D1E43F00052C06E268A00EB4117AB1938
:10539000B3FBF6F342EAC343C7F81039236803F0BE
:1053A0000303012BD8D1D0F8083813F4807F0BB257
:1053B00000EB4314D4F8002914BF42F0805242F0AD
:1053C0000052C4F80029C8E7402BD9D940232B60EC
:1053D000014A3F25D7E700BF400000200000000041
:1053E0002DE9F041C66E06EB41130746D3F8084994
:1053F000C3F80849E3070D4603D5D6F81038DA0795
:1054000009D4230605D5D6F834280123AB4013422E
:1054100019D1BDE8F08100EB8103D3F80CE0DEF890
:105420001430D3F800C0DA68944512D30289DEF84C
:1054300008C001238B4022EA03030381BCF1000F63
:10544000DFD0E047DDE738462946BDE8F041FFF709
:105450001FBDCCEB02024FF0000883E804012023BB
:1054600083F31188FFF7DCFC38462946FFF760FF1D
:10547000FFF7BEFC88F31188C3E700BF00000000FF
:1054800000EB810330B4DC68A2691368D36009B90A
:10549000402B22D8013B628AC06E24681344B3FBC0
:1054A000F2F302FB03F20332DB0422F0030243F0C7
:1054B000C043134300EB411504F00302012AC5F871
:1054C000103B0ED009B200EB411130BCD1F8003BCB
:1054D00043F00443C1F8003B7047402313603F236F
:1054E000D9E709B2D0F8083800EB411213F4807FF5
:1054F000D2F8003B14BF43F0805343F00053C2F88E
:10550000003BE0E700000000000000000000000099
:105510002DE9F041C76E07EB41130646D3F8084B5F
:10552000C3F8084B22070D4603D5D7F814381B07DC
:1055300025D4E20721D5D7F81438DB071DD506EBB3
:105540008503D9688B6955B94A8A5C68B4FBF2F067
:1055500002FB10421AB91868DA68904215D37289B2
:10556000CC680123AB4022EA030373812CB130469F
:1055700029462346BDE8F0411847BDE8F08100EB1D
:105580008103DB685B689847D3E7121A83E824003D
:10559000202383F31188FFF743FC30462946FFF7A9
:1055A0006FFFFFF725FC85F31188BDE8F08100BF90
:1055B0002DE9F047C66E7369B7691F4017F480582C
:1055C0000546776140F04B81002FC0F22C813B05EE
:1055D0003FD52B6FE86ED3F808C000214FF0FF34A1
:1055E0000CE0D2F800EBBEF1000F19DB03440131EF
:1055F0008C45C3F80849C3F8084B18D34B01C218AF
:10560000D2F800E9BEF1000FEBDAD2F800E94EF073
:10561000804EC2F800E9D2F800EBBEF1000FE5DAE7
:10562000D2F800EB4EF0804EC2F800EBDEE76B687C
:1056300029781B684FF001140522C0F81C4885F832
:1056400068102A7013B128460421984700232B8143
:105650006B81BC040CD5D6F8083813F0060FF3683C
:1056600023F470530CBF43F4105343F4A053F3607E
:10567000380732D4FA0238D4BB0200F1A880FB0606
:1056800079D4D6F818483E0311D5E00300F1B5816E
:10569000A10300F1B981620300F1BD81230300F190
:1056A000C181E60200F1C581A00200F15B817903AE
:1056B00011D5E20700F19C81A30700F194816707EF
:1056C00000F17E81260700F18281E00600F18681EB
:1056D000A10600F14181BDE8F0876B68DB68002B13
:1056E000C8D028469847FA02C6D5D5F86CA0002441
:1056F0004FF0010906E02B6F01349B68E4B29C4235
:10570000A046B9D80AEB4412D2F8003903F440237A
:10571000B3F5802FEFD1D2F80039002BEBDAD2F8B5
:10572000003943F09043C2F80039D2F80039002B19
:10573000FBDB4FEA8818EA6E48F020031361136917
:105740009906FCD41220FFF70BFB05EB84032A8992
:10575000D96809FA04F3D1F808C022EA03032B81BF
:10576000BCF1000F02D028462146E04728462146DA
:10577000FFF78EFBBFE7D5F86CE0DEF8203003F4CE
:10578000F011B1F5802FC3F30A1203F00F0300F0FC
:10579000F180B1F5402F7FF474AF05EB8303DB6834
:1057A000186A002A3FF46DAF00210EF5805E0B46AB
:1057B00003E0013393423FF464AF9C0708BFDEF877
:1057C0000010072BF5D80170090A0130F1E7D5F870
:1057D0006C8000244FF0010906E02B6F01349B68B8
:1057E000E4B29C423FF64BAF08EB4412D2F8003BC8
:1057F00003F44023B3F5802FEFD1D2F8003B002B08
:10580000EBDA05EB84036A89D96809FA04F3D1F865
:105810000CC022EA03036B81BCF1000FDDD02846E7
:105820002146E047D9E7D6F8003E9A0705D0D6F8DA
:10583000003E23F00303C6F8003E6A68D6F8043839
:10584000126895F8681023F00103C6F8043829702F
:10585000002A3FF4BCAE284605219047B7E6002356
:10586000022120220170A0F8643080F8663080F8B0
:10587000673003814381C360036143618361C36116
:10588000036280F84C303261336913F02004FBD19D
:105890001220FFF765FAD5F870E0C6F834484FF0EB
:1058A0000112DEF80870C6F81C2823464FF000608D
:1058B0004FF0FF3106EB43120133BB42C2F800093F
:1058C000C2F8000BC2F80819C2F8081BF2D9DEF8BA
:1058D00000306B67DEF80020EB6E726210221A61F6
:1058E000196911F01004FBD11220FFF739FAD6F82C
:1058F0000038286F544ADFF858E123F4FE63C6F8F5
:105900000038B36943F44023092143F010034FF0FA
:10591000C047B361C6F81018C6F81418C5F80CE0F3
:10592000C6F8107BC6F8002BC6F81049C6F8002947
:105930006B6F03F110026A6741688A427ED86A6819
:10594000126843F48013B362002A3FF4C4AE2846C1
:105950002146BDE8F047104728460521BDE8F0473D
:10596000FFF73EBD05212846FFF7D2FD79037FF5FD
:10597000B2AE9EE605EB8304E368996991E80801FD
:105980008868C8EB030C002A5BD000210EF5805E0E
:105990000B4613F0030F08BFDEF800109C4502D938
:1059A0000170090A013001339342F2D1E368996929
:1059B0008B68D1F80480134442448B604A6060E6EF
:1059C00028460221FFF70CFD26077FF57EAE28460C
:1059D0000321FFF705FDE0067FF57AAE2846042196
:1059E000FFF7FEFC74E628460121FFF7F9FC66E6A6
:1059F00028460021FFF7F4FC5EE600212846FFF769
:105A000087FDA1037FF547AE28460121FFF780FD02
:105A100062037FF543AE28460221FFF779FD230399
:105A20007FF53FAE28460321FFF772FDE6027FF5C2
:105A30003BAE28460421FFF76BFD35E60348FFF730
:105A40009FF90346B7E700BF40800010E8CE00088A
:105A5000C4CE0008000000000000000000000000AC
:105A600010B5094C2046FCF7FBFBFFF7A9F90748E6
:105A7000FFF79EFDFCF7BCFE2046FCF7D1FBBDE81E
:105A80001040FCF73DBB00BF04CF000844A4002039
:105A900010B5094C2046FCF7E3FBFFF791F90748E6
:105AA000FFF786FDFCF7A4FE2046FCF7B9FBBDE836
:105AB0001040FCF725BB00BF78CE0008CCA3002027
:105AC00010B50D48FCF7CCFBFFF77AF90B4B0C48EF
:105AD0005968C26F890D01F03D018C05DC6012B17F
