:1000000040A30020D579000019160200057A0000EF
:10001000057A0000057A0000057A00000000000063
:100020000000000000000000000000002D7700002C
:10003000057A000000000000D97600006904020083
:1000400095790000F187010095790000957900000D
:100050009579000095790000957900009579000068
:100060009579000095790000957900009579000058
:100070009579000095790000957900009579000048
:100080009579000095790000957900009579000038
:100090009579000095790000957900009579000028
:1000A0009579000095790000957900009579000018
:1000B0009579000095790000957900009579000008
:1000C00095790000957900009579000095790000F8
:1000D00095790000957900009579000095790000E8
:1000E00095790000957900009579000095790000D8
:1000F00095790000957900009579000095790000C8
:1001000053B94AB9002908BF00281CBF4FF0FF317E
:100110004FF0FF3000F06EB9ADF1080C6DE904CE80
:1001200000F006F8DDF804E0DDE9022304B07047D2
:100130002DE9F047089D0E4604468C46002B40F002
:1001400081808A42174645D9B2FA82F24AB1C2F199
:10015000200106FA02F320FA01F1974041EA030C6C
:1001600094404FEA174E230CBCFBFEF6B9B20EFBCF
:1001700016CC43EA0C4306FB01F0984209D9FB1860
:1001800006F1FF3C80F01581984240F21281023E58
:100190003B441B1AA4B2B3FBFEF00EFB103344EA3F
:1001A000034400FB01F1A14209D93C1900F1FF33DE
:1001B00080F00181A14240F2FE8002383C44641A82
:1001C00040EA064000211DB1D4400023C5E90043A8
:1001D000BDE8F08702B9FFDEB2FA82F2002A4FD101
:1001E000CB1B4FEA174E1FFA87F80121B3FBFEFC29
:1001F000260C0EFB1C3346EA034608FB0CF3B34205
:1002000007D9BE190CF1FF3002D2B34200F2EB80E5
:100210008446F61AA3B2B6FBFEF00EFB106643EA64
:10022000064408FB00F8A04507D93C1900F1FF334C
:1002300002D2A04500F2D2801846A4EB080440EA9E
:100240000C40C0E78B4208D9002D00F0AF800021A0
:10025000C5E900060846BDE8F087B3FA83F1002936
:1002600049D1B34202D3824200F2BB80841A66EBCA
:10027000030301209C46002DAAD0C5E9004CA7E746
:10028000C2F120039740D8409140DE404FEA174E1C
:1002900008434FEA104CB6FBFEF11FFA87F80EFB3D
:1002A00011664CEA064601FB08F3B34204FA02F475
:1002B00009D9BE1901F1FF3C80F08E80B34240F2B3
:1002C0008B8002393E44F31A86B2B3FBFEF00EFB7C
:1002D000103346EA034600FB08F3B34207D9BE19C0
:1002E00000F1FF3C74D2B34272D902383E44F31A93
:1002F00040EA01417AE7C1F1200703FA01F422FA4A
:1003000007F31C4320FA07F906FA01F34FEA144CED
:10031000FE4049EA03094FEA1943B6FBFCFE1FFA07
:1003200084F80CFB1E6643EA06460EFB08FAB2454B
:1003300002FA01F200FA01F308D9A6190EF1FF3012
:1003400048D2B24546D9AEF1020E2644A6EB0A06C3
:100350001FFA89F9B6FBFCF00CFB106649EA064669
:1003600000FB08F8B04507D9A61900F1FF3C2DD2D3
:10037000B0452BD90238264440EA0E40A6EB0806C9
:10038000A0FB02894E45C446CE4618D315D075B39E
:10039000B3EB0C0266EB0E0606FA07F722FA01F33E
:1003A000CE401F43C5E90076002111E729462846C3
:1003B0000EE76646EDE6184601E74345E7D2B8EB9F
:1003C000020C69EB04040138A646E0E76046D3E777
:1003D00060468CE78646B9E7614674E702383C44DC
:1003E0002BE7084647E7ACF1020C3E4411E72946EB
:1003F000EEE600BF704700BFF0B5444DD5F81C31A4
:10040000996811F0010189B01FD103AA40F6034099
:1004100008F08CFF0446002874D1039B9B681B786E
:1004200083B905F19403184621F09AFABFF35B8F64
:1004300000F0050053E8002F43E800010029F9D13E
:10044000BFF35B8F03981BF085F803AA002141F2EC
:10045000030008F06BFF0446002853D1039B2C488F
:1004600099680822013121F01EF903981BF072F8F7
:10047000214603AA41F2010008F058FF0446002873
:1004800040D1039883685A7885F83420D9789A78CF
:1004900042EA0122EA861A7985F83520197ADA7952
:1004A00042EA01222A875A799B7942EA03236B8721
:1004B0001BF050F8214603AA41F2020008F036FF73
:1004C0000446F8B9039B134899684022013121F092
:1004D000EAF895F86630039843F0060385F866302D
:1004E0001BF038F895F840305B061BD40A4B0B49DB
:1004F0000B48C91AC908890141F001011FF078FAB7
:100500006FF01204204609B0F0BD00BF00000020CB
:100510003C00002044000020244C0200E44C020077
:10052000B57C0200214603AA42F2030008F0FEFE59
:1005300004460028E6D1039BA548996808220131AA
:1005400021F0B1F803981BF005F8214603AA42F206
:10055000020008F0EBFE04460028D3D1039B9B6801
:10056000B3F80120A5F8C42091B221B1DA789948F6
:10057000114623F071FF03981AF0ECFF95F84060E4
:1005800016F0200600F0FF8095F860301F0711D5A7
:1005900003AA002142F21C0008F0C8FE044600280D
:1005A000B0D10398836853F8012F5B68C5E928230D
:1005B0001AF0D0FF95F898309E0624D502A90DF1C7
:1005C000060008F02BFF044600289BD1042142F2CC
:1005D000240008F04FFD0646002800F0DB800421CF
:1005E000083023F033F9BDF806300380BDF8083039
:1005F00043802246314642F2240008F097FE04462A
:1006000000287FF47FAF95F898305C0610D503AAD8
:10061000002142F22A0008F089FE044600287FF4F7
:1006200071AF039883685B7885F8E0301AF092FF29
:10063000082142F2010008F01DFD0446002800F0E8
:10064000A9800821084423F001F995F8981011F0C9
:10065000400F024640F2022308BF032388074CBF25
:1006600043F02C0043F00C0095F899308F0648BFFA
:1006700040F0400013F0090F95F8663018BF40F4C1
:10068000006003F00603CE0748BF40F01000062BC1
:1006900008BF40F4C070002121F09DF921460022DE
:1006A00042F2010008F042FE044600287FF42AAF1F
:1006B00095F8403098061ED4B5F8C410D9B903AAED
:1006C00041F2050008F032FE044600287FF41AAF1C
:1006D000B5F8C43063B9039B9B685A78997842EAAD
:1006E0000122A5F8C4209A883A48114623F0B4FEA6
:1006F00003981AF02FFF082140F6014008F0BAFCD9
:100700000446002846D00821084423F09FF895F8B5
:100710009830D907024652D52BA1D1E9000121F02A
:100720005AF92146002240F6014008F0FFFD044638
:1007300000287FF4E7AE014602AA4FF6014008F018
:10074000F5FD254E254BF61AF608B60100284DD0CA
:10075000234846F002011FF04BF9EB79002B7FF4A0
:10076000D1AE09F041FCEB79002B7FF4CBAE09F060
:10077000E5FC0446002800F0A6801A4846F0010176
:100780001FF036F9BEE6022140F66D4008F072FC1B
:10079000044610B96FF03604B4E60221083023F0A5
:1007A00055F80123037046702146324640F66D40ED
:1007B00008F0BCFD044600283FF4E6AEA2E60A4875
:1007C0004FF00051ABE700BF90880002008000208E
:1007D00098000020C8000020E44C0200244C0200D5
:1007E000D97C0200AD7D020010880002029B3B48CC
:1007F0009F68B7F80120032A96BF3949394951F853
:10080000221046F003031FF014F9B7F80110B7F8EF
:100810000320022946F003032ED1032A2CD83249A3
:1008200051F8221031481FF004F97A793048032A30
:1008300096BF30492B4951F82210CDE90312BA79FD
:100840000592B7F807200692D7F80920079246F0DC
:100850000303052203A91FF021F902981AF07AFE7A
:1008600002AA00214FF6024008F060FD074628B1B9
:10087000214846F002016EE71A49D3E7029B1F4860
:1008800099680222013120F00EFF02981AF062FEF0
:1008900095F885305B077FF560AF02AA39464FF6C1
:1008A000034008F043FD18B1154846F0020152E735
:1008B000029B144899680122114420F0F4FE02982A
:1008C0001AF048FE49E7104808F0D2FD0446002817
:1008D0003FF418AE0D4846F0010151E7FD7C0200DF
:1008E00080520200F275020040520200167D0200A2
:1008F0002E7D0200B85202005B7D020085000020C0
:10090000847D02008400002001000020CC7D0200D4
:100910002DE9F041D0E90BC7D0F828800CEB070493
:100920003034A0450E46154618D81B4F18A3D3E9FE
:100930000023ACFB0701FFF7E3FBA4EB080420F066
:100940007F40306012A3D3E90023A4FB0701FFF727
:10095000D7FB20F07F402860BDE8F0810E4C0CA34F
:10096000D3E90023A8FB0401FFF7CAFB20F07F4373
:1009700007F130003360A0FB040105A3D3E9002395
:10098000FFF7BEFB20F07F402860BDE8F08100BF8C
:100990008D49FD1A0700000000CA9A3B00000000C4
:1009A0002DE9F04FAB4C94F84E608FB006F0010685
:1009B000002800F05981B6BB94F8392094F82D3006
:1009C00094F8290004EB820204EB830300F0030097
:1009D000FF21D2F83C80D3F8309084F82A1017F029
:1009E000BBF994F84E00420700F11481B9F1000FF1
:1009F00011D09848494613F06BFC99F800305B061B
:100A000005D506210EF070FF002800F03E829148C7
:100A1000414613F05DFC99F8003013F00E0F40F0E2
:100A2000CF80636A23B10C2630460FB0BDE8F08F4B
:100A300012F0CEFD8246002800F0448212F0D4FD70
:100A40008346002800F0578214F032F8054600284B
:100A500000F04E824FF6FF73806FAB8505F11C03EB
:100A60000B93002800F02A8205F16C0205F1680161
:100A70000EF046FFB5F86420774895F83D1095F8DC
:100A8000DC7095F840C0754B2B66024042F48872CA
:100A900095F82601C5F830A142F0010201F03F01AE
:100AA00027F0030E61F07F010027A5F864204FF0C6
:100AB0001B1220F0030085F83D1067F3000C06219F
:100AC000EA65674A85F8DCE085F840C085F82601CC
:100AD000A5F8C410C5F81C21C5E9137785F83F7047
:100AE0006F866F636F65A5F8C870A5F8CC70A5F820
:100AF000E87085F8EA70C5F80071A5F80471A5F8EA
:100B00001871C5F82071A5F8247185F82F71AF67A9
:100B1000A5F87C7095F872C195F89A0195F87E1049
:100B200095F85221A5F8507167F3041C21F01F01BC
:100B300022F0070267F3C30085F872C185F87E10C2
:100B400085F85221A5F87071A5F89871A5F8A471DF
:100B500085F89A0114F0C2FAA5F8D60014F0C4FA88
:100B6000D5F8A8113F4AA5F8D8000A40C5F8A82131
:100B700014F0C0FA95F8AC2160F3020285F8AC21BC
:100B800014F0BEFAC4E911AB0B9B636295F8AC217B
:100B900095F82030C5F8C07160F3C50267F3000313
:100BA000C5E96E77C5E96C77C5E90577ED6185F82C
:100BB000AC2185F8203018F037FA002840F0678122
:100BC00094F828300121C3F342030DA88DF8343086
:100BD0000FF00EF890B399F8003003F00F03022BDA
:100BE00000F1FF3200F09E80012B00F0548198F854
:100BF00001001030C000002B40F03F8199F8013017
:100C00001033DB0003F54D71084403F59A7303FBC1
:100C1000020092E0C0F3C000324604F14F0117F029
:100C20000FFAFF2884F82A003FF4E0AE304617F0B0
:100C3000ADF8B9F1000F7FF4DCAEECE6636A002B8F
:100C40003FF4F1AE13F0E0F80C2630460FB0BDE8EB
:100C5000F08F00BF1834002080F8FFFF48014801E2
:100C60007F4901000000FFF6002E3FF4DCAE204675
:100C700012F08AFD84420CD0A94AAA49AA4840F23F
:100C80007D731EF0E7F9404080F311884FF00300B8
:100C900002DF94F82830D9070DAD0ED502220D924F
:100CA0000321A24B00950122002010F063F9294690
:100CB00012F042FD002840F02381022203219B4BC9
:100CC000009500200D9210F055F9294612F034FDE0
:100CD000002840F0F980964812F092FD002840F07C
:100CE000DF80944812F05CFD84420CD08C4A8D4920
:100CF0008D4840F29F731EF0ADF9404080F311889B
:100D00004FF0030002DF636A0BB113F07DF894F833
:100D10004E3000266FF30003304684F84E300FB09B
:100D2000BDE8F08F99F801301033DB0000FB03F0D1
:100D300000F5AA70642303FB020094F820707E4A39
:100D4000E4610025312365F30007A0FB0201236065
:100D500084F8207070A3D3E90023C4E90555C4E9E1
:100D60000155FFF7CDF9B4F84C80E06010F048F978
:100D70000746B8F1000F08D199F8005005F00F05AB
:100D8000A5F10105B5FA85F56D0994F82820E36809
:100D900065F3000212F0010584F828203DD0DFF849
:100DA0008C9166490493002002250DF130080193CF
:100DB0000591CDE907980321CDE9020006942A4662
:100DC00000903B460C9510F069F8414612F0B4FCD7
:100DD00000287FF433AF5A4905914AF2D832009285
:100DE000CDE90798CDE90300CDE9010006943B4623
:100DF000012203210C9510F051F8414612F09CFCA1
:100E000000287FF41BAF94F84E30304643F00103C6
:100E100084F84E300FB0BDE8F08F4A484A4ADFF8F8
:100E20000CE1DFF818C10694A8FB00014FF091090E
:100E300009FB081103F24718C2F800804FF00209BD
:100E4000049309920DF1300833A3D3E900234FF640
:100E5000FF7ACDE907E80295CDF83090CDF814C0BF
:100E6000CDF80CA0FFF74CF94A46CDE900503B46BF
:100E7000284603210FF0BCFFBFE7062B3FF4BEAEB0
:100E80004FF4DA734FF41B70C1E61226CCE512F072
:100E9000BBFF0326C8E54FF4F2734FF47F70B6E64C
:100EA0001F4A2A49204840F29C731EF0D3F8404064
:100EB00080F311884FF0030002DF12E705F17000A4
:100EC000A867D1E50726AFE51A4812F069FC84420D
:100ED0003FF4A9AD40F29673114A124912481EF030
:100EE000B9F8404080F311884FF0030002DF9AE523
:100EF000584612F07FFB504612F070FB072693E530
:100F00000C4812F04DFC84423FF48DAD4FF4F16378
:100F1000E2E700BFAFF300808D49FD1A0700000033
:100F2000C8590200B85A02001C56020019260100D6
:100F3000343400201834002000CA9A3B753B01006D
:100F4000813D0100002AE78470340020A45802008B
:100F50002DE9F04F044690F8E97090F8E8008742D8
:100F60008DB00D4616460ED0C01B00F003000228BF
:100F70001BD094F82D2194F82C319A4230D10020C6
:100F80000DB0BDE8F08F94F8523113F00108F0D1A4
:100F900094F8051194F804218A4200F09083B81E59
:100FA000012384F8E90084F8EA3094F8983194F841
:100FB00099219A4206D094F89A2102F00601042958
:100FC00000F0C18394F8EA707B1E052B00F2698360
:100FD000DFE813F05C0000037C0267032A03AA0128
:100FE00029480EF037FC58B394F82C3184F82D3191
:100FF0000379022243F0030342710371C271D4F8F2
:10100000B03194F82E2102722BB394F8522191073B
:1010100021D494F8AB21D2071DD4D4F8BC2193423B
:1010200004BF1A68C4F8BC21D4F8B421B2B91A6854
:10103000026018600368C4E96D000BB9C4F8C00110
:10104000B4F8CC0000289AD1B4F8C630012B0ED9E0
:10105000A4F8CC3093E7D4F8B42172B1D4F8B83105
:101060001A68026018600368C4F8B801E5E7013344
:10107000A4F8CC300DB0BDE8F08F0360C4E96C007B
:10108000C4F8B801D9E700BFDC360020DFF838A487
:10109000DAF80030002B00F0FF84B4F83680628E5E
:1010A00094F806319044B04413F003031FFA88F813
:1010B00040F0E883B4F8EC90A8EB09021FFA82FB39
:1010C00012043FF556AF94F8701194F8712194F81A
:1010D000040184F805018A4294F8E80084F8E900E4
:1010E00009D094F8722102F00702052A04BF84F89F
:1010F0007111A4F8CC30DAF80030D4F800719C42B9
:1011000004BF0023CAF80030002F00F0958538682E
:10111000002800F09185B4F80831E28D4168C4F8E8
:1011200000119342B4F80A11B4F80CC100F0D5864E
:10113000A28DFA804FF0130E0022FB833984A7F8AA
:1011400022C087F804E03A77394612F059FA12F0D3
:1011500061FA2368002B09DAD4E9011223F0004375
:101160008A422CBFA91869182360CD1AE38DB4F800
:10117000087113FB0BF39BB2B3FBF7F117FB01F202
:1011800092B293421FFA81FA80F04485D31AC24882
:1011900040F2E24202FB03F3A3FB0001BCA3D3E94C
:1011A0000023FEF7ADFF20F07F400544628E94F9E6
:1011B0003D30A9EB0808D0443244904440F2E24963
:1011C000002BA4F8328009FB07F7C0F24585B34A2B
:1011D000B349B44840F65C131DF03CFF404080F337
:1011E00011884FF0030002DF4FF000083E46B4F8CC
:1011F0000C21B4F80A11AC4BAC48218642F2107CA9
:101200000CFB02723B443844B3FBF7F301F1060CCC
:10121000013AB2FBF7F2B0FBF7F798B2A4F8C62098
:101220006045B4F80821A4F8D200A4F8CA70E28599
:1012300002DD401A063880B294F80631A4F8CE00D8
:101240005B0744BF0023A4F8C8300221012019F035
:10125000FFFE00220221814601200EF09FFB9449EF
:101260004FF4E47220460EF02BFBC21C5FFA82FAA8
:10127000904B00945246012100200FF07BFE30F08D
:1012800002030CD0854A8C49864840F68B131DF02A
:10129000E1FE404080F311884FF0030002DF7E4BF7
:1012A000A6FB036730467AA3D3E900233946FEF74D
:1012B00027FF824AE368049320F07F4BABFB0223B5
:1012C000072000FB0B33B01A67EB03010894069468
:1012D0004FF47A7200240023794F7A4E07970596CF
:1012E0000394FEF70DFF2B46CDE901B0CDF8008049
:1012F0002046524601210FF0D1FD30F002030CD000
:10130000664A6D49674840F6A5131DF0A3FE4040AC
:1013100080F311884FF0030002DFB9F1000F40F0B5
:10132000F5856FF047002BE6E28E638E94F8EC5063
:101330001A443244EF0796B2AB4600F10E83B4F87C
:10134000EE20B61A37043FF514AE94F8DC2094F87A
:10135000648094F865A094F8E810B4F8627084F89A
:10136000E910D60708F007080AF0070A40F1D78508
:10137000D4F81C21100540F1D285B4F8D890B9F505
:10138000296F28BF4FF42969B9F5A47F4FF4296369
:1013900038BF4FF4A4790B9315F01C0F40F0328640
:1013A000B4F8606015F0E00F0CD094F8652094F864
:1013B0005E00690961F3020284F865200B9A12F05D
:1013C000F9FF0746D4F80051002D00F00187286886
:1013D000002800F0FD8694F8641094F865204368B6
:1013E000C4F800311BF0020FC1F3020EC2F3020C6D
:1013F00001F0070102F0070202D1884501F0608088
:10140000A38DEB801722002385F81DE085F81EC010
:101410002A712B77294612F0F3F8D4F80051002DE9
:1014200000F0E8862868002800F0E486B4F8603010
:101430004268C4F80021B34209D34B4507D8B4F839
:101440006230BB4203D30B9A934241F24D80A4F821
:101450006060A4F862702B7FA28DEA8043F00303E2
:101460000221092229712B776A77B4F85E30B4F82B
:101470005C202B841523AA84EB7729466F84EE84A5
:1014800012F0BEF812F0C6F873E500BFAFF30080AB
:101490008D49FD1A0700000000CA9A3BD45A020089
:1014A0008C5602001C5602007FC3C901FF5962021C
:1014B00090340020E5460100145C02008D49FD1ABD
:1014C0008D460100757601005836002094F8EC3006
:1014D00013F0030500F0858294F93D30002BBFF630
:1014E00048AD012D7FF445ADBB480EF0B3F905467C
:1014F00000283FF43EAD03790D2243F00303042797
:1015000000F1080603714271C7710C21304617F0D3
:101510008BFB3146082204F1F60020F0C4F83A466D
:1015200005F1100104F19C0020F0BDF8D4F8B031B1
:10153000002B00F0E18694F85221900700F1DC8640
:1015400094F8AB21D10700F1D786D4F8BC2193429F
:1015500004BF1A68C4F8BC21D4F8B421002A01F0F1
:101560002181D4F8B8311A682A601D602B68C4F84C
:10157000B851002B01F0C28012F070F80546002827
:101580003FF4F7AC2B7FA28DEA8043F003030226E1
:10159000172103222B776977EA7704F25511082285
:1015A0002E7105F1200020F07EF894F8533185F873
:1015B000283094F8543185F829302868294612F0EB
:1015C0001FF812F027F894F8EC3066F3010384F862
:1015D000EC30CEE4E28E618E94F8EC300A44324472
:1015E000DF0796B200F10081B4F8F220B61A350494
:1015F0003FF5BFAC94F8E83084F8E93004F13805E1
:10160000052204F1ED01284620F04DF82846052179
:101610000EF0EEFA94F83D30012260F3050384F8F1
:101620003D3084F8C421A4E46B480EF013F900287F
:101630003FF49FAC94F8E83084F8E9300123027954
:101640004371D4F8B03142F0030212210271C1712A
:10165000002B00F0D48294F85221910700F1CF8240
:1016600094F8AB21D20700F1CA82D4F8BC2193428E
:1016700004BF1A68C4F8BC21D4F8B421002A01F0D0
:101680005580D4F8B8311A68026018600368C4F84D
:10169000B801002B00F0B284B4F8CA30A4F8CC3002
:1016A00067E44E4A4E494F4840F2BF331DF0D2FC2A
:1016B000404080F311884FF0030002DF59E494F8B2
:1016C000192194F818C1624554D194F8252194F851
:1016D00024C1624500F01283A2EB0C02D1077FF512
:1016E00048AC94F82631DA0740F141879A0740F177
:1016F0002B8711F0B3FF014600B394F8243184F82E
:101700002531037FA28DC28043F003030B770220B3
:1017100006220C2308714A77CB7794F82701B4F896
:101720002821B4F82A31A1F8233081F82000A1F84B
:101730002120086811F064FF11F06CFF94F8E800B4
:1017400094F8E97010E402F00701062901F2908193
:1017500001A050F821F000BF2D1B0000C50F0000B4
:10176000C50F0000C50F0000A11A0000A11A00005B
:10177000C50F0000A2EB0C02D3077FF5FAAB94F87B
:10178000DC1011F0010700F0DE8311F067FF07465F
:101790000028D3D094F8183184F81931037FA28D32
:1017A000C28043F003030922022041463B7738718F
:1017B0007A77FA7707F1200008221FF09FFFD4F80C
:1017C000203187F82030C3F307221B0C87F8212033
:1017D00087F822303946ACE7DC360020D45A0200C4
:1017E0008C5602001C560200CE480EF033F8054617
:1017F00000283FF4BEAB238E027994F8EC103344FA
:101800000633A4F8F2306FF30001012342F0030223
:10181000082084F8EC102A716871EB71052204F13C
:10182000ED0128181FF03FFFD4F8B031B4F8F220D2
:10183000A5F80D20002B00F0C98094F852219107E3
:1018400000F1C48094F8AB21D20700F1BF80D4F836
:10185000BC21934204BF1A68C4F8BC21D4F8B42157
:10186000002A00F07687D4F8B8311A682A601D6023
:101870002B68C4F8B851002B7FF47BABC4F8C0517F
:10188000FFF777BB012011F0CBFE064600283FF49E
:1018900070ABA4480DF0DEFF054600283FF469ABAD
:1018A00011F0DCFE238E326894F8060143440633BF
:1018B00099B2D4F8003153602A79C4F800616FF30B
:1018C00001000C2384F80601A4F8EC1042F0030296
:1018D0006B71D4F81031D4F8B001934E2A71002204
:1018E000EA71A6FB032394F81461B4F808212E7260
:1018F000C3F38F23B4F80A61A5F80B20B4F80C21C8
:10190000A5F80F20A5F80D60A5F81110A5F809306D
:10191000002800F00A8394F852319E0700F10583F5
:1019200094F8AB31D90700F10083D4F8BC31984268
:1019300004BF0368C4F8BC31D4F8B431002B00F004
:101940001387D4F8B8311A682A601D602868C4F873
:10195000B85100287FF40DAB90E7022011F060FE33
:10196000074600283FF405AB6E480DF073FF0546AF
:1019700000283FF4FEAA94F8EC306FF30003C3F3A1
:101980008200C3F3421250EA020884F8EC30DBB262
:1019900040F0B38594F8E820A4F8EE80980784F826
:1019A000E92000F173864346414605226A7185F8B5
:1019B00008802A796B72D4F8B031698142F0030251
:1019C00018212A71E971002B7FF437AFD4F8B421C4
:1019D000002A7FF448AF2B60C4E96C55C4F8B851B5
:1019E00049E750480DF036FF064600283FF4C1AAEB
:1019F00094F93D30002B00F1040880F2168494F82D
:101A00007E301D0700F1008694F8ED50002D00F0A7
:101A10009684037994F8DC2043F003030371D00724
:101A200040F12086D4F81C31590740F11B86112261
:101A300003237572F27133727771D4F8B0310022DA
:101A400084F8ED20002B00F0C48494F85221920712
:101A500000F1BF8494F8AB21D70700F1BA84D4F821
:101A6000BC21934204BF1A68C4F8BC21D4F8B42145
:101A7000002A00F0B886D4F8B8311A6832601E60C7
:101A8000C4F8B8613368002B00F0168594F8E8308C
:101A900084F8E930FFF76DBACAF80040FFF7FDBAE5
:101AA00002F00702B4F89CC1B4F8A011B4F89E91FA
:101AB000B4F8A281A4F85EC0042AA4F8621000F071
:101AC000A88494F89A31062262F3020384F89A31CA
:101AD000D4F80071002F00F088843868002800F0E6
:101AE00084843B7F4268B4F82CE0C4F8002143F0C2
:101AF000030302223B774FF0090A1523A7F806E0FB
:101B0000A7F820C079843A71FB773946A7F824906A
:101B1000A7F8268087F81DA011F072FD11F07AFD5C
:101B2000FFF750BADC3600205917B7D1BE480DF088
:101B300091FE00283FF446AA94F89A21B4F89E1129
:101B4000B4F8A231A4F8D6100127A4F8D83067F36E
:101B5000020284F89A2109270279477194F8DC700F
:101B6000D4F81CE1818142F0030202711B224FF084
:101B7000140C00210272FA0780F807C0417240F18C
:101B8000B7831EF4006F00F0B383B3F5296F28BF4D
:101B90004FF42963B3F5A47F38BF4FF4A4734FF417
:101BA0002961D4F8B0214181C381002A00F0328339
:101BB00094F852319B0700F12D8394F8AB31DF0785
:101BC00000F12883D4F8BC319A4204BF1368C4F8EA
:101BD000BC31D4F8B431002B00F0DC85D4F8B83136
:101BE0001A68026018600268C4F8B801002A00F0A0
:101BF0003F85B4F8CA30A4F8CC30FFF7E3B9D4F885
:101C0000B421002A7FF43DAD0360C4E96C00C4F840
:101C1000B8013EE507FB113340F2E24283489BB234
:101C200002FB03F3A3FB00017DA3D3E90023FEF72E
:101C300067FA2D1AFFF7BABA7D4A7E497E4840F608
:101C4000E7031DF007FA404080F311884FF00300CE
:101C500002DF3868FFF75FBAE26C636C734E03FB18
:101C60001B23E36417F020FA804694F8DC00C0F3ED
:101C7000820017F01BFA08EB000307FB03F36F4821
:101C8000E26C94F8141103F5742303F23F23A0FBD4
:101C900003034FEA934B0BFB0AF07B080244963B8D
:101CA0009A4228BF1A4609FB01FC4FF0000EC4E916
:101CB0001232A0FB06015AA3D3E90023C4F854C092
:101CC000C4F8E4E0C4F844B0FEF71AFAD4F81031CE
:101CD00084465B48A0FB0330800A09FB00F0A0FBB0
:101CE00006014FA3D3E90023A5EB0C05FEF708FA84
:101CF000A7EB0B0620F07F48FFF779BA94F871C183
:101D000094F87021944500F08D81DFF838A1DAF85D
:101D10000020002A00F0DB8494427FF42AA994F882
:101D2000722102F00702052A00F2B1860FF2040CBC
:101D30005CF822F0491E00009D1D00004D1D0000B2
:101D4000690F0000690F0000690F00009B073FF555
:101D500010A911F083FC014600283FF4EFAC037F8B
:101D600094F87221032060F30202034384F8722185
:101D7000A08D0B77022718230F714B77B4F87421CD
:101D8000B4F87631C880B4F878010A84B4F87A21BE
:101D90004B840F238884CA84CB77CAE494F8737188
:101DA000002F40F03E8594F93D30002BC0F27E8537
:101DB00094F8723194F87C01C4F81071052262F332
:101DC0000203012284F8723184F81421002800F003
:101DD0000E86B4F87431B3FBF0F3134413FB00F335
:101DE0009BB294F8722194F80601A4F80831C2F36A
:101DF000C0039B0020F0070243F002031343B4F832
:101E00007801B4F87A2184F80631013984F8051193
:101E1000A4F80A01A4F80C21FFF7ABB8AFF30080D7
:101E20008D49FD1A07000000DC36002000CA9A3BED
:101E3000D45A0200005C02001C56020083DE1B43E1
:101E40005917B7D158360020DF48E78EB4F83280F2
:101E50000DF000FD014600283FF470AC94F87201CB
:101E60000A7907EB0803042767F3020042F0030234
:101E7000182784F872010A714F71B4F87471B4F8BC
:101E80007601B4F878210F813344B4F87A7148812F
:101E90008A810F200022A1F811304FF0FF33CF814B
:101EA000C8714B758B75CB750B764B768B76CB7675
:101EB0000B774B778B7720460A74CA740A7512F039
:101EC000E1FAB4F8CA3094F8E80094F8E970CAF876
:101ED0000040A4F8CC30FFF747B8228E8A427FF446
:101EE00027A940F2E24202FB03FA42F21072B4F870
:101EF000C6E002FB0CA2013AB2FBFAF292B296459E
:101F00007FF416A903233B71FFF71EB90122104687
:101F100002210DF043FD6FF04700FFF731B84FF499
:101F2000A479CDF82C90FFF737BAD4F8B431002B50
:101F30007FF407AD2860C4E96C55C4F8B851002897
:101F40007FF417A89AE4A0480DF084FC804600288E
:101F50003FF4F4AB94F819319C4AC4F81C21013BBE
:101F6000092284F81931427194F93D200379002A3D
:101F7000ACBF08220E2243F00303C2710822037192
:101F8000394610441FF0BAFBD4F81C3188F80830E9
:101F9000C3F307221B0C88F8092088F80A30D4F80C
:101FA000B031002B00F0B48194F85221970700F172
:101FB000AF8194F8AB21D00700F1AA81D4F8BC21FD
:101FC000934204BF1A68C4F8BC21D4F8B421002A93
:101FD00000F01484D4F8B8311A68C8F80020C3F8A7
:101FE0000080D8F80030C4F8B881002B00F08A8354
:101FF000B4F8CA30A4F8CC30FFF7A0BBC4F8C001D5
:10200000FFF74ABB94F8642094F85C00C5F38201A2
:1020100061F3020284F864204A4612F0CBF90646C6
:10202000FFF7C0B994F8981194F899318B4200F0F9
:10203000FB8194F89A3103F00702062A00F22A8500
:102040000FF2040C5CF822F0EF200000690F000092
:10205000690F0000690F0000652000006520000086
:10206000690F0000B4F89C21A4F85E2003F0070279
:10207000B4F8A001B4F89E91B4F8A281A4F862006B
:10208000042A00F0A683062262F3020384F89A3140
:10209000D4F80071002F00F08D833868002800F01C
:1020A00089833B7F4268B4F82CC0C4F8002143F018
:1020B00003033B77022209237B773A71B4F85E1061
:1020C000B4F862207A841523A7F806C03984FB7718
:1020D0003946A7F82490A7F8268011F091FA11F05C
:1020E00099FA94F8E80094F8E970FEF73DBF364895
:1020F0000DF0B0FB014600283FF420AB94F89A2184
:10210000B4F89E01B4F8A231A4F8D6000127A4F8CF
:10211000D83067F30202092784F89A210A794F71AF
:1021200094F8DC70888142F0030214204FF0000C18
:102130000A71FF07D4F81C21C8714FF01B0081F809
:1021400009C0087240F15683100540F1A883B3F529
:10215000296F28BF4FF42963B3F5A47F38BF4FF42C
:10216000A4734FF42962D4F8B001CB81B2F5A47FF7
:1021700038BF4FF4A4724A81002800F0008394F81D
:1021800052319B0700F1FB8294F8AB31DF0700F17D
:10219000F682D4F8BC31984204BF0368C4F8BC315D
:1021A000D4F8B431002B00F05584D4F8B8311A6853
:1021B0000A601960C4F8B8110B68002B7FF418AFDF
:1021C000C4F8C01114E700BFDC3600207F490100CD
:1021D000D94ADA49DA4840F65F631CF03BFF4040D9
:1021E00080F311884FF0030002DF286894F8ECB008
:1021F000FFF7F1B8D04AD149D14840F68B631CF0C3
:1022000029FF404080F311884FF0030002DF286867
:10221000FFF70CB9D4F8B431002B7FF4DFAC0260C7
:10222000C4E96C00C4F8B801E0E404F17F073B4660
:102230002A4604F1EE0104F25D1018F0A3F93946C4
:10224000102204F1A0001FF02EFA082204F19801D8
:1022500004F1B9001FF027FA94F8970094F8B82019
:1022600094F87E3084F88F5043F0080365F3000043
:1022700042F0010284F8970084F87E3084F8905090
:1022800084F8915084F8925084F8935084F89450D4
:1022900084F8955084F89650C4F8B0504146C4F87C
:1022A000B45084F8B820204612F0BAFAD4F8B0310D
:1022B000002B39D094F85221920735D494F8AB21F1
:1022C000D70731D4D4F8BC21934204BF1A68C4F8AC
:1022D000BC21D4F8B421002A00F09B82D4F8B83194
:1022E0001A6832601E603368C4F8B861FFF7CBBB70
:1022F0004FF4A473194654E4D4F8B421002A7FF4AF
:1023000030A92B60C4E96C55C4F8B851FFF731B956
:10231000D4F8B421002A7FF45DAEC8F80030C4E9D7
:102320006C88C4F8B88160E6D4F8B421002AD5D10D
:102330003360C4E96C66C4F8B861FFF7A4BB04F16C
:102340007F073B462A4604F1EE0104F25D1018F0C7
:1023500019F93946102204F1A0001FF0A4F908224F
:1023600004F1980104F1B9001FF09DF994F8972049
:1023700094F8B81094F87E3084F88F5042F001023F
:1023800065F3000143F00803012084F8972084F8E6
:10239000B81084F87E3084F8905084F8915084F816
:1023A000925084F8935084F8945084F8955084F8AF
:1023B0009650C4F8B050C4F8B45032797071D4F863
:1023C000B03142F0030205213271F171002B7FF42C
:1023D0003CABD4F8B421002A7FF44DAB3360C4E9A0
:1023E0006C66C4F8B861FFF74DBB534A5349544873
:1023F0004FF453631CF02EFE404080F311884FF0E1
:10240000030002DF3868B4F85EC0B4F86210FFF76A
:1024100068BBB4F8A421002A40F0778184F8993190
:10242000A4F8CC20FFF754BB94F8A83194F8A92164
:102430009A423EF49EAD94F8AA2102F003010329CA
:1024400000F07E8200297EF494AD3E480DF002FA41
:10245000014600283FF472A994F8AA3194F8AC21FF
:1024600094F8AB7194F864C0012060F30103C3F3E6
:10247000820060F30202C3F3421060F3C502C7F3A7
:102480004007087984F8AC2167F3C30CC3F38202D8
:1024900084F8AA3184F864C040F00300C3F3421307
:1024A00003270A7216220871CA714B724F710022FB
:1024B000204611F0E7FF9BE5C4F8C061FFF7E6BADC
:1024C00092457EF49DAF03232B71294611F098F8B5
:1024D000D4F80051002D00F0D3812868002800F0C6
:1024E000CF814368C4F8003103232B71294611F0D2
:1024F00087F811F08FF8FEF73CBD238E3344063386
:10250000A4F8EE3011F0AAF83B68D4F800215A6024
:10251000C4F8007111F0A2F80368D4F800215A60E1
:1025200094F8EC30B4F8EE10C4F80001C3F382085C
:102530005B09FFF73ABA00BFD45A0200005C020000
:102540001C560200DC36002040F64F33C74AC8490B
:10255000C8481CF07FFD404080F311884FF0030015
:1025600002DF94F8E80094F8E970FEF7FDBCC24879
:102570000DF070F900283FF4E1A894F8252194F8B3
:102580002631013A84F82521027943F0010306211E
:1025900084F8263142F003024171D4F8B03102715F
:1025A0000B216FF00E020C270172427205214FF0D1
:1025B000FF32C7718172C2720273002B00F0BE80BD
:1025C00094F85221970700F1B98094F8AB21D10714
:1025D00000F1B480D4F8BC21934204BF1A68C4F857
:1025E000BC21D4F8B421002A00F02E82D4F8B831EE
:1025F0001A6802601860C4F8B8010368002B7FF401
:10260000F7ACC4F8C001F3E44146204612F008F9E3
:10261000D4F8B03183B394F8522195072CD494F8B0
:10262000AB21D00728D4D4F8BC21934204BF1A6848
:10263000C4F8BC21D4F8B421002A00F0D281D4F827
:10264000B8311A6832601E60C4F8B8613368002B74
:1026500000F0878094F8523123F0030384F852315C
:10266000FFF714BA0D233572F3710227FFF7E4B9AF
:10267000C4F8C001FFF7BDBAD4F8B421002ADED1F6
:102680003360C4E96C66C4F8B861DFE710F0E6FFB8
:102690001723A28D87F81C803B7194F8643038684A
:1026A000FA80C3F302037B7794F86530C3F3020327
:1026B000BB77394610F0A4FF10F0ACFF94F8EC3073
:1026C000B4F8EE10C3F382085B09FFF76EB994F813
:1026D000722102F00702052A00F2D98101A050F808
:1026E00022F000BF491E00009D1D00004D1D00008E
:1026F000730F0000730F0000730F0000C4F8C05187
:10270000FEF73ABFC4F8C08172E494F89A01B4F8B5
:10271000A671A4F89E21002363F3020084F89A01B5
:10272000A4F8A431A4F8A271FFF7D2B91A68026024
:1027300018600368C4E96D00FEF7ABBFD4F8B4219C
:10274000002A7FF453AF0360C4E96C00C4F8B801F9
:1027500053E71A682A601D602B68C4E96D55FFF7BE
:102760008AB8C4F8C06175E703682B600560286803
:10277000C4E96D5500287EF4FCABFFF77FB8D4F8B0
:10278000B431002B7FF411AD0860C4E96C11C4F8BA
:10279000B81111E51368036010600268C4E96D00A8
:1027A000FFF724BA1A682A601D602B68C4E96D55CA
:1027B000FEF7DFBE2D4A31492E484FF453631CF01B
:1027C00049FC404080F311884FF0030002DF386875
:1027D00067E4B4F8A421002A40F0F48084F8991149
:1027E000A4F8CC2054E41A6832601E60C4E96D6617
:1027F000FFF748B94FF4A4731A46B4E41A68C8F84E
:102800000020C3F80080D8F80030C4E96D88FFF7D5
:10281000ECBB1A6832601E603368C4E96D66FFF76E
:1028200032B915480DF016F8014600283EF486AF7F
:10283000037943F003030B71112003220F23C871A6
:102840004A710B7294F873314B722046002211F0DA
:1028500019FE94F8703184F87131002394F8E8007F
:1028600094F8E970CAF80030FEF77EBBD45A020033
:102870008C5602001C560200DC360020005C020070
:102880008C4A8D498D4840F66E631CF0E3FB404056
:1028900080F311884FF0030002DF286821E6D2059B
:1028A0004FF4A47340F1CD80A8225CE484480CF07E
:1028B000D1FF014600283EF441AF0379182243F0CE
:1028C000030303714271B4F87421B4F87631B4F89B
:1028D00078010A81B4F87A214B8110238881CA815A
:1028E000CB7194F87C310B74B4F87E31B4F880016C
:1028F000B4F88221A1F81130B4F88431A1F81300A2
:10290000B4F88601A1F81520B4F88821A1F8173091
:10291000B4F88A31A1F81D30A1F81900A1F81B20E4
:1029200020463A4611F0AEFD94F87031CAF80070B6
:1029300094F8E80094F8E97084F87131FEF714BB5C
:10294000110784F8A931C2F382035CD594F8AA3147
:10295000022262F3840384F8AA3194F8AA3158065B
:102960004FEA531247D5022262F3471384F8AA3183
:1029700094F8AA2194F864C094F8650094F8AB31F7
:1029800000F00700C2F382010CF0070CC3F38003D0
:102990008C4508BF00215B00B0EB521F43F00103E0
:1029A0004FEA521208BF002243EA4213B81E43EA1C
:1029B0008103062284F8E90084F8EC3084F8EA20E8
:1029C000FEF700BB002161F30203A4F89E21B4F8D6
:1029D000A62184F89A31A4F8A411A4F8A221FFF743
:1029E00057BB1A6832601E60C4E96D662EE6B4F803
:1029F0007631FFF7F6B9D1070FD5012262F34713FD
:102A000084F8AA31B4E7DA0710D594F8AA31012284
:102A100062F3840384F8AA319FE712F0040218BF1E
:102A2000042262F3471384F8AA31A1E713F00403E8
:102A300017D094F8AA31042262F3840384F8AA31EF
:102A40008BE71A46FFF78FBB1A6802601860C4E96B
:102A50006D00D2E503680B600160C4E96D11FFF7FA
:102A6000ABBB94F8AA2163F3840284F8AA2174E72B
:102A7000104A1449114840F658531CF0EBFA4040F4
:102A800080F311884FF0030002DFFEF79BBA40F697
:102A90005C435BE5074A0B49084840F658531CF075
:102AA000D9FA404080F311884FF0030002DFFEF7AF
:102AB00045BE00BFD45A0200005C02001C56020052
:102AC000DC3600208C5602002DE9F04F9C4695B074
:102AD0005CF80C6B1D46136886460C4660462E312A
:102AE000174605F1080A0322D3F80090CDF828E034
:102AF00005F11C081EF0D7FD04F12A0104225046FE
:102B00001EF0D1FD04F13A01052240461EF0CBFD36
:102B1000404605210DF06CF895F8213000F03F009B
:102B200060F30503012885F821300AD994F83F3075
:102B300003F01F02053AC3F304010B2A85F82210A3
:102B400002D915B0BDE8F08F3A6896F8DC10002085
:102B50009060B4F83480A5F8128094F8362094F888
:102B600037005B0942EA002263F38401AA82638E84
:102B700086F8DC10ADF8303016F096FA034696F879
:102B8000DC000B93C0F3820016F090FA0B9BDFF889
:102B900028C394F83110AA8A40F2E24B0BFB08F8E4
:102BA000184408FB00F000F5742000F23F20ACFB55
:102BB00000C04FEA580C800C0BFB01F1ACF1960CF5
:102BC000A862C5F82CC0E963218FB14BADF836106F
:102BD00042F2107C0CFB0181AE48434402F1060C2A
:102BE0000139B3FBF8F3B1FBF8F1A6F8C61099B2BE
:102BF00061454044A6F8D210B0FBF8F0A6F8CA0030
:102C000002DD891A063989B2A6F8CE10042251468F
:102C100006F1E0001EF047FD237F04F11E0A514635
:102C2000C3F38013062212A88DF840301EF03BFD3E
:102C3000237F4FF48072A28399F82A0097F812B08C
:102C4000C3F340128DF83C200B9215F0E5FC0146D1
:102C5000062204F12B00002940F0ED801EF04EFD0D
:102C600004F12503BBF1FF0F0E9304F11F0300F0E5
:102C7000EB801A465146584614F0A6FFA27F0E98E4
:102C80000232A27712A906221EF00DFD96F8DC3062
:102C9000698AAA8AA286C3F3820384F83830BDF811
:102CA0003630E3866186304611F00EFF21462882D9
:102CB000E0807C680A9810F0A3FC2B8AE38016233E
:102CC00023710B9B2068002B00F0BA8095F809E077
:102CD0002B7A95F80BC0A97A95F8212041EA0C21AE
:102CE00043EA0E234B4042F0400201216B8485F8F9
:102CF00021202177214610F083FC10F08BFC95F801
:102D00004900012100F0070016F0EEF8624A4FF08A
:102D1000000A8346312300F25240A0FB02013360D7
:102D2000C6E901AA58A3D3E90023FDF7E9F9FC6835
:102D3000BDF83020AD6A20F07F4040F2E24303FB53
:102D4000023302215246F060A4F5AE7401201C4407
:102D50000CF024FE484611F0F9F9821C4F4BCDF8D7
:102D60000090D2B2504601210EF004F90128A8EBE0
:102D70000508A4EB0B047FD099F82830DB0773D447
:102D8000304611F0A1FEDFF810B1A8FB0B893EA37D
:102D9000D3E90023054649464046FDF7B1F9404ACC
:102DA000069620F07F4AAAFB0223072101FB0A3383
:102DB00040F24511BF6808913A4907913A49059197
:102DC000B8EB020069EB0301F368049300264FF4AB
:102DD0007A7200230396FDF793F92BA3D3E900231E
:102DE0008446A4FB0B01CDE901ACFDF789F903355D
:102DF00020F07F40EDB2313F3B4600902A463046FE
:102E000001210EF04BF830F002030CD0274A28497C
:102E100028484FF4A3731CF01DF9404080F311883B
:102E20004FF0030002DF0122104602210CF0B6FD34
:102E300015B0BDE8F08F04F124011EF034FC0FE75B
:102E40009DF83C30237755E70E9811930622002118
:102E50001EF054FC9DF84030A377119B12A9184630
:102E600006221EF020FC11E70023012200931846E1
:102E700011460EF07FF883E710F09EFC81453FF489
:102E80007BAF14F0D3FB77E78D49FD1A07000000F4
:102E90007FC3C901FF59620200CA9A3B59760100FB
:102EA0008D49FD1AFD75010075760100E45C020094
:102EB000145C02001C56020083DE1B43000000006D
:102EC0002DE9F04F8FB00DF13701354F0B900DF11B
:102ED000360010F00BFC9DF83730DFF8D8909DF8E5
:102EE00036A00A930EF08CF83C68A4FB09452AA38F
:102EF000D3E90023804629462046FDF701F90B9BC4
:102F0000069383467868274B0593002622A3D3E9CE
:102F10000023A0FB0901CDE90766FDF7F1F8224B7C
:102F20002BF07F49A9FB03BC20F07F40072303FB64
:102F300009CCCDE90360B4EB0B0065EB0C014FF459
:102F40007A720023FDF7DCF80A9A0096CDE9019029
:102F50004346032150460DF0A1FF30F0020415D185
:102F6000124A134800231BF0B5FB68B19DF83720C7
:102F70009DF836000094234603210DF0FBFF6FF00F
:102F80003B000FB0BDE8F08FF868FAE76FF047003C
:102F9000F7E700BFAFF300808D49FD1A070000007E
:102FA000183E0020B9BC01008D49FD1A447B0B007E
:102FB000283E002000CA9A3B38B50F4D04460EF05B
:102FC0001FF8A9680EF01EF80C49B0FBF4F4044495
:102FD000686807A3D3E90023A0FB0101FDF790F87F
:102FE00020F07F40844294BF0020012038BD00BF04
:102FF0008D49FD1A07000000183E002000CA9A3BC8
:1030000001481CF027B800BF5C65020010B5064CF3
:1030100006481CF01FF82368186B20B11EF030FF23
:10302000236800221A6310BD841500206D6502001C
:10303000F8B5074615460C4649B91E481CF00AF873
:103040001422214628461EF059FB0020F8BD1A4ED6
:10305000098A1A481A4D1BF0FDFF33682868596821
:103060001EF0FDFB336888B99B682B60238A01330F
:103070002B812946032338462B740AF097FA014620
:103080000028E2D00F481BF0E5FFDEE799682868CA
:103090001EF0E5FB0028D8D120461FF036FE31682F
:1030A0001BF07EFF084B094801221A701BF0D2FF6B
:1030B000CBE700BF8B650200841500209E650200EF
:1030C00070150020B5650200B2420020CF650200F5
:1030D000F0B593B007460E461EF00BFF037804468A
:1030E00007AD032B25D8DFE803F0021E20222A4972
:1030F00028461EF098FAA379059562780492A27882
:103100000392E278029222790192627900921E2162
:10311000224A0AA81BF0ABFF8EB1214831461BF0B2
:1031200099FF13B0F0BD1F49E2E71F49E0E71F49CF
:10313000DEE71F4A0A2128461BF099FFDBE71D4CFA
:103140001D480AA91BF086FF216838461BF03AFF8C
:1031500038461EF0CEFE43790179226841EA032108
:103160008379006841EA034121F07F411BF01DFF94
:10317000236812495A680A60114A4A6001220A818A
:10318000186B0E744FF6FF72CA810AF00FFA10F036
:10319000FF01C6D00B48C2E7EC6502000E660200D4
:1031A00031660200F3650200FA650200046602005F
:1031B000F06D020084150020516602007015002099
:1031C000313000005F6602002DE9F04389B000F065
:1031D000A5F93E481AF0B2FB07463C481AF0AEFB90
:1031E0000D21814638461BF0A4FE0E2148461BF0F7
:1031F000A0FE002006F0CEFF8046002862D1344AAF
:1032000034493548354E364D1BF0A3FE3060354805
:103210001EF026FA411C89B2326832481BF0C2FE09
:103220003368314A3148DA601BF014FF0FCD03AC2C
:103230000FC42B6823602E49CDF80080434602223C
:1032400003A807F055F9014640B32A481BF002FFD6
:1032500029482A4DDFF8B08007F0A0FC01242B7824
:1032600003B300220D2138461BF052FE244D0124E9
:1032700022460E2148461BF04BFE00214FF4004031
:103280001BF0DAF9284600F00BF93368186B03F1EC
:103290000C010AF025FDC4F10104E9E719481BF00F
:1032A000D9FED5E722460D2138461BF031FE00211C
:1032B0004FF400401BF0C0F9404600F0F1F8C4F1B3
:1032C0000104CCE709B0BDE8F08300BF78660200D6
:1032D0002307002027070020250700208415002051
:1032E000B04D02007F6602000130000086660200D9
:1032F000A84E02009D66020030010020B24200206C
:10330000FF660200C3660200E566020030B5254D87
:1033100091B00446A3685B6C43B12046984728B13E
:10332000A3681B6C13B12046984708B911B030BD93
:10333000A3685B6BABB12046984790B12B682A69B4
:103340001A446B68D21AA3689B69402A28BF40229E
:10335000EBB16946204698470246694628461CF06C
:103360007AFAA3685B6A002BD4D0204698470028DD
:10337000D0D040220C4869461CF0D7FA024640B92A
:10338000A3681B6A002BC5D020469847C2E71A469F
:10339000E3E7A3685B69002BBCD0694620469847E9
:1033A000B8E700BF88150020A41500202DE9F341DF
:1033B000002500953148324C1AF0C0FA20600028F0
:1033C00058D0284601F010FF0546002852D12D4E56
:1033D00001461C2230461EF091F94FF480682A4BBA
:1033E000736140F2FF37C6F81080B761274E1C2288
:1033F000294630461EF082F9254BC6F81080C6E9F2
:1034000005372068836823B11B6D13B16A46042118
:103410009847009B2BB9002140F6CD401BF00CF9DA
:10342000EFE720688368DB6C13B10122082198471D
:1034300020688368DB6C13B101221021984715487E
:1034400021F020F82068836823B11B6D13B101AA15
:10345000012198472068836823B19B6C13B10E4902
:1034600000229847206883689B6A03B198470B4BFA
:1034700001221A7002B0BDE8F08100BF0D670200A2
:10348000C015002088150020B3420020A41500209C
:10349000B346002040420F000D330000B35A002015
:1034A0000FB41A4B1B782DE9F74383B10BAB0A9A83
:1034B000174801934FF4805104F0E6FD144E154F68
:1034C000DFF85480054600242A1B002A04DC03B0E0
:1034D000BDE8F04304B070474FF02003EFF31189CB
:1034E00083F31188BFF36F8F311938461CF0B3F99D
:1034F000044489F31188BFF36F8FD8F80000836804
:10350000DB69002BE0D09847DEE700BFB35A00200C
:10351000B34A0020A4150020C015002000B589B0D2
:1035200000220023CDE9062300230522CDE9032351
:10353000CDE9013300930549054B06484FF400726D
:103540001BF03CF909B05DF804FB00BFA068002047
:10355000AD330000F80A00200B6801330B60014B0B
:103560001B6818474C010020014B1860704700BFD2
:103570004C01002007B50B4600210246019103488B
:1035800001A900F057FA03B05DF804FB59350000BB
:1035900030B585B0CDE901010446002501A90548F3
:1035A000039500F047FADDE902309842B8BF255490
:1035B00005B030BD2FF001002DE9F84FB0F818909C
:1035C00019F00808044693460DD001290CBF49F0B4
:1035D000100949F02009A0F818908BF31188BFF367
:1035E0006F8FBDE8F88F09F00709022907D120463F
:1035F0001BF04AFD0028F0D00128238B50D16769C9
:10360000218B002F15DA256821F00701C4E9008815
:1036100041F0010121830026218B01F0070ACA45F0
:1036200002D0A368002B5CD10DB9002E74D000230A
:1036300058E001F007035A1F012A20D821F00701A2
:10364000062B256889B2C4E900880CD1002D2B46D1
:1036500038BF00232BB1628B1B6801326283002BC1
:10366000F8D141F00201218320461BF00DFD0646F2
:103670000028D1D0238B43F020032383CBE7042BF6
:103680000CD121F0070189B2218320461BF0FCFCFC
:1036900005460028BFD041F0200121830025BAE76C
:1036A000032809D1226923F00703166843F00603B3
:1036B000238300252F46AFE7042806D1226923F093
:1036C0000703566843F00403F2E7052806D1226990
:1036D00023F00703966843F00503E9E700252E462B
:1036E000E8E7012341F0080121838BF31188BFF340
:1036F0006F8F03BB002D33D116B121492046B0474F
:103700004FF02003EFF3118B83F31188BFF36F8F1A
:10371000238B23F008032383238BDA0628D523F099
:10372000100323830121B4F8189009F00709002938
:103730007FF45BAF51E7A1680029DBD00B68D1F8BB
:1037400004B0002B38BF0023994652463B46204622
:10375000D847B9F1000FCDD0D9F800304946EEE78F
:1037600029463B46524620462D681BF0A9FCC1E77E
:1037700013F020011EBF23F0200323830221D2E790
:10378000EDF00100F0B50022C0E9002282604A7825
:10379000252A034633D00131084611F8012B2B2A84
:1037A0003DD02FD8202A3ED0232A40D01A7802F0CC
:1037B0004401442902D16FF386121A7002782A2A32
:1037C0004CD1198841F4C071421C198011782E29FE
:1037D0004FD151782A2945D00132154600210A27B8
:1037E000104610F8014BA4F13006092E64D9954219
:1037F0001FBF5878996040F00200587039E0881C6B
:10380000DA70F0BD2D2A05D0302ACFD11A7842F0D7
:10381000400202E01A7842F004021A70BCE71A78FB
:1038200042F00802F9E71A7842F01002F5E71A7838
:1038300042F02002F1E707FB0151303922461446DD
:1038400014F8015BA5F13006092EF4D990421FBF90
:103850001878596040F080001870B7E702460021E0
:103860000A27ECE7597821F0060141F0060159706A
:103870000232114611F8010B6C2839D021D8682882
:1038800026D06A283DD04C2841D01146084610F871
:10389000014BDC70782C00F2C680572C42D8412CAA
:1038A00003D0453C022C00F2BE809A78042161F3DB
:1038B00002029A70012292E007FB01413039024670
:1038C0008EE7742820D07A28DFD15A7806200BE0C2
:1038D00050785C78682805D1012161F3C6045C70DA
:1038E000911CD3E72246022060F3C6025A70CDE74E
:1038F00050785C786C2801D10421EEE72246032041
:10390000F2E75A780520EFE75A780720ECE71A88A3
:1039100022F4F04222F0020242F4804242F002021B
:103920001A80B3E7A4F15802202A7CD801A151F8EB
:1039300022F000BFEF390000273A0000273A0000CC
:10394000273A0000273A0000273A0000273A0000F3
:10395000273A0000273A0000AB380000273A000061
:10396000EF390000B9390000AB380000AB38000077
:10397000AB380000273A0000B9390000273A0000B0
:10398000273A0000273A0000273A0000F5390000E6
:10399000EF3900000F3A0000273A0000273A0000F4
:1039A0000F3A0000273A0000EF390000273A0000E4
:1039B000273A0000EF3900009A78012161F30202F2
:1039C0009A705A7802F07802402A02BF197841F0C2
:1039D00001011970632C2AD1003A18BF012219780D
:1039E000C1F34004224362F34101197009E79A7858
:1039F0000221E3E79A78032161F302029A705A7870
:103A000002F07802A2F140014A424A41E7E79A787F
:103A1000032161F302029A705A7812F0780F14BFF2
:103A200001220022DBE71A7842F001021A7000221C
:103A3000D5E700BF2DE9F04F824691B08B46914605
:103A40001C46002599F8000008B928460DE12528F4
:103A500009D05946D0470028C0F2078109F1010377
:103A6000029301355EE0182200210AA81DF046FEEF
:103A700049460CA8FFF786FE9DF831300290D90721
:103A80001BD554F8048BB8F1000F07DA9DF83020ED
:103A900042F004028DF83020C8F100085A0715D50D
:103AA00054F8047B002F14DA9DF831306FF3410392
:103AB0008DF831304FF0FF370BE09DF93020002AB0
:103AC000B4BFDDF834804FF0FF38E7E79F07F1D54A
:103AD0000E9F9DF831100023CDE90D339DF8323053
:103AE00003F00703012BC1F3C3012ED1CB1E042B1E
:103AF0001BD8DFE803F0033A3A1A1A0054F8042BF3
:103B0000D317CDE90A239DF8303013F003064FD0C8
:103B1000029B4A46594650461BF05BFE0028C0F205
:103B2000A4800544DDF808908CE754F8042B0129A3
:103B30004FEAE273CDE90A2302D19DF8283010E064
:103B40000229E0D1BDF92820DAE7022B20D1CB1ED3
:103B5000042B10D8DFE803F00309090F0F0054F815
:103B6000043B0A9300230B93CDE7073424F00704AA
:103B7000F4E80223C5E754F8043B0A9301294FF007
:103B800000030B93D9D00229BDD1BDF82830E8E756
:103B9000042B07D1073424F00704F4E80223CDE90D
:103BA0000A23B0E7032B04BF54F8043B0A93AAE7A7
:103BB0009DF833007828B5D862281FD825284FD023
:103BC0005828AFD10DF126030093DDE90A0104ABBB
:103BD0000CAA1BF0B3FD8146002F0DF126000BDB74
:103BE0009DF83020A0EB09036FF386129F428DF8F9
:103BF000302001D9FF1A0D97074646E06338152893
:103C000090D801A252F820F0933C0000F73C00004D
:103C1000253B0000253B0000253B0000253B000024
:103C2000F73C0000253B0000253B0000253B000041
:103C3000253B0000553D0000233D0000273D0000CE
:103C4000253B0000253B0000713C0000253B0000A7
:103C5000233D0000253B0000253B0000233D0000E4
:103C60005946D0470028BFF6FCAE11B0BDE8F08F32
:103C7000DDF8289048461DF0F3FC002F02DBB84227
:103C800028BF384609EB00070026B9F1000F08D11C
:103C900048E70A9B8DF8103000260DF111070DF151
:103CA0001009A7EB090306B101339DF83220D006B5
:103CB0006AD5023352060D9948BF0E9A0B4448BF8D
:103CC0009B18B8F1000F73DD9DF83020A8EB0308B6
:103CD000C2F38003039353076AD4500640F1A680D1
:103CE0003EB159463046D0470028BEDB039B013524
:103CF0001E4630239BE01E0711D413F0100618BF98
:103D00002026DDE90A23002A73F10001BFF65AAF2D
:103D1000524263EB4303CDE90A232D2652E72B26BB
:103D2000EFE700264EE70A9848B30DF1260300930B
:103D30000CAA04AB00211BF001FDBDF8323003F0EA
:103D4000EF0343F4F04343F010038146ADF8323003
:103D5000002641E70A9B07293FF6E4AEDFE801F0C1
:103D60000D04060D08080D0D1D70DBE61D80D9E65B
:103D70002846E917C3E90001D4E61D60D2E6314FB9
:103D80000646A7F105098CE7110748BF013391E703
:103D9000184659460393D0470028039BFFF665AFAA
:103DA0004246002AA5EB080108F1FF38F0DC0D4679
:103DB00036B159463046D0470028FFF656AF013598
:103DC0009DF83230D90601D41A0706D5594630205D
:103DD000D0470028FFF649AF01359DF83230DB06A9
:103DE00007D59DF833005946D0470028FFF63DAF70
:103DF00001350D9E2E44731B002B1ADC3B464A46B0
:103E0000594650461BF0E5FC0028FFF62EAF05444E
:103E1000A844A8EB0503002B7FF784AE5946202069
:103E2000D0470028FFF621AF0135F2E720234544B3
:103E3000B6E759463020D0470028FFF616AF0135C7
:103E4000D9E700BF1C67020030B51049104889B09F
:103E5000002220F007FC0F4D0F4900220023CDE97E
:103E6000062300240E23CDE90334CDE901440B4B96
:103E700000944FF4407228461AF0A0FC08492846E6
:103E800020F004FB204609B030BD00BFA53E000075
:103E9000800B0020B80B0020C06A0020BD4200004B
:103EA0001D67020001481AF0EFBB00BF9008002018
:103EB00008B500F065FA09481BF057FD04232822D5
:103EC0000749084820F0DDF8074B084A1A604FF40C
:103ED0000040BDE8084000F099BC00BFD0150020AC
:103EE000C0B60020D815002050010020A9F901001B
:103EF000F8B50F4BBFF35B8F002553E8007F43E815
:103F00000052002AF9D1BFF35B8F0A4C0A4E361BD0
:103F10003611B54200DBF8BD63685B792BB12368CD
:103F2000DB6813B139462046984701351034F0E775
:103F3000C81500208C4D0200AC4D0200064BBFF3AB
:103F40005B8F53E8002F013243E800210029F8D1AC
:103F5000BFF35B8F704700BFC8150020044A054BB4
:103F60009B1AB1EBD30F34BF52F8310000207047D9
:103F7000244C02008C4D0200094B4268C31A1B11ED
:103F8000013310B513714368064C196001225A7150
:103F9000227812B904481AF077FB0123237010BD70
:103FA0008C4D0200B45A00209008002070B5114BCF
:103FB000BFF35B8F53E8005F6A1C43E800210029D0
:103FC000F8D1BFF35B8F2DB90B4C0C4E361B36115D
:103FD000B54200DB70BD237B43B123685B6903B14D
:103FE0009847042200212046FFF7C6FF0135103410
:103FF000EEE700BFCC1500208C4D0200AC4D020056
:10400000164B984237B5044602D3154B984220D33D
:1040100014480022002301A919F046FE0546D8B92C
:104020000122019BBFF35B8F53E8001F43E8002090
:104030000028F9D1BFF35B8F019821461F2204307D
:104040001DF0FBFA019C7E2384F8233084F8245071
:104050000434204603B030BD034CFAE7AC490200FB
:10406000C48A0200D81500202567020048B1054B1C
:10407000984205D3A03398422CBF002001207047FE
:1040800000207047C0B600202DE9F04F4C4B1B7844
:1040900085B0044603B960B34FF02003EFF31186F7
:1040A00083F31188BFF36F8F46481BF06EFC054603
:1040B00086F31188BFF36F8F78B1BFF35B8F424BEC
:1040C00053E8002F013A43E800210029F8D1BFF35B
:1040D0005B8F94B128461BF071FD24B93B4B1B68E4
:1040E0000BB1FFF705FF37481BF04DFC041E18BF4E
:1040F0000124204605B0BDE8F08F354B1B78CBB9C5
:104100002B7ADB0716D41BF06CFD804628461BF08B
:1041100033FD014640461BF04BFC2E4F2E4BDFF883
:10412000D4B0DB1BDB0803932C4BDB1B06464FEAAA
:10413000D30A36B92A4E2B4FBF1B3F114FF0000850
:104140003AE0B6FA86F1C1F11F09494628461BF04C
:1041500016FD254B9842014602D3244B98421AD3B0
:104160000846FFF783FF0246A8B9214B994212D0B7
:104170006B8903989909B0EB931F4FEA8A1343F0B8
:10418000010388BF57F83120ADF800304946434657
:1041900058461BF067FC012101FA09F126EA0106E5
:1041A000C7E773685B7923B1336829461B683046DB
:1041B000984708F101081036B845F2DB8AE700BFDE
:1041C000B45A0020D0150020C4150020C8150020C6
:1041D000B55A0020244C02008C4D0200244D0200F0
:1041E0008C4D0200AC4D0200AC490200C48A0200B2
:1041F000256702003F670200294B73B51B684181A8
:1042000004469847274DE060BFF35B8F55E8003FB9
:10421000013345E80032002AF8D1BFF35B8F4FF03D
:104220002003EFF3118683F31188BFF36F8F1E48CD
:1042300021461BF09EFB86F31188BFF36F8F1B4B4B
:104240001B7883B14FF02003EFF3118483F31188BF
:10425000BFF36F8F0020FFF717FF84F31188BFF3C0
:104260006F8F02B070BD124A2B681268002AF8D016
:10427000012B0AD100220023CDE900230D484FF481
:10428000004200231AF048FDEBE70A2BE9D1094868
:1042900020F0F4F9084802B0BDE870401AF0F4B913
:1042A00050010020C4150020D0150020B55A002070
:1042B000F4150020800B00209008002010B5FFF7B7
:1042C00075FE1AF0DBF90C4B186030B10B4B1B6814
:1042D000092B02DD0A481AF0D7F9094C0020FFF734
:1042E000D3FE0028FAD14FF0FF324FF0FF332046C3
:1042F0001AF0F0F9F2E700BFF4150020C415002011
:1043000090080020F8B50E4F3D7875B90D4C0E4E53
:10431000FFF74CFE361B3611B54207DB0020FFF7D6
:10432000B3FE0028FAD101233B70F8BD63685B79C6
:104330001BB1236820461B69984701351034EBE711
:10434000B55A00208C4D0200AC4D020007B5043870
:104350000190BFF35B8F50E8003F5A1E40E80021F8
:104360000029F8D1BFF35B8F012B03D1034801A9CA
:1043700019F0CCFC03B05DF804FB00BFD815002099
:104380002023024902481A461FF07BBE60B7002076
:10439000F815002037B50023094D01930120FFF7E0
:1043A00073FE0446FFF7CAFD0022002301A9284638
:1043B00019F07AFC08B1002CF0D1019803B030BD9F
:1043C000F815002007B500230193074800220023B9
:1043D00001A919F069FC10B1FFF7DCFF0190019809
:1043E00003B05DF804FB00BFF8150020F0B5037AB8
:1043F000457A85B02D090190D8071CD4DDB1002481
:104400002646019831461BF0BAFB0746FFF72EFE01
:1044100070B134B9019B294618691BF0C9FA0446EA
:1044200048B124FA06F3D90702D53846FFF78EFFC4
:104430000136AE42E5D3019B1A7A920704D55B6937
:10444000084C0393039B2BB9064801A919F05EFCA5
:1044500005B0F0BD1D6803A9204619F057FC03956F
:10446000F0E700BFF81500200EB403B503AB01461A
:1044700053F8042B04480193FFF7DCFA02B05DF80F
:1044800004EB03B0704700BF8BFF01002DE9F04F34
:1044900085B011F0020490469DF8387006461A4621
:1044A00001F0010901F0080507D011F0440F37D1E0
:1044B0003249FFF7D9FF01460C46B9F1000F0AD087
:1044C0002F4B304953F827202F4B3046002A08BF86
:1044D0001A46FFF7C9FF3DB12C4B2D4953F8272051
:1044E0003046FFF7C1FF0546B8F1000F43D0012366
:1044F00003FA07F7274B17F0100F274F18BF1F4677
:10450000BDF840109DF83C00FFF728FD39460246F3
:104510003046FFF7A9FF2844204405B0BDE8F08FDE
:104520001E4B19680029C7D01D4B4FF4616E1B68E4
:10453000B2FBF3F34FF47A7CB3FBF1F4B4FBFEF27D
:104540000EFB124E01FB14340CFB04F44FF03C0A3A
:10455000B4FBF1FB01FB1B440CFB04F4BEFBFAF3C0
:10456000B4FBF1F1CDE901B10AFB13E100910D4972
:10457000FFF77AFF9FE7084FC2E700BF906702008E
:10458000B84E02008C7B020082670200CC4E020013
:10459000B56702008C6702008767020014160020CE
:1045A000181600209967020038B50C46E107054649
:1045B00003D5084A0849FFF757FFE20608D4A306C7
:1045C00028464CBF05490649BDE83840FFF74CBFB7
:1045D00038BD00BF826702008C7B02000B670200BF
:1045E0000A6702002DE9F0471D46089B1746DA06C8
:1045F00004460E4605D499064CBF2A492A49FFF7BE
:1046000033FFDFF8AC904FF00008A8452ADBDFF855
:10461000A480DFF8A490DFF898A00025BD422FD237
:10462000725D49462046FFF71FFF0135102D20D14E
:104630001E49DFF87C80DFF884902046FFF714FFE6
:104640000025AF4228D9725DA2F120035F2B28BF5D
:104650002E2249462046FFF707FF0135102D14D1C1
:10466000BDE8F08749462046FFF7FEFE08F1010845
:10467000CBE76A07D2D151462046FFF7F5FECDE7DA
:1046800041462046FFF7F0FECFE76B07D9D1414600
:104690002046FFF7E9FED4E741462046FFF7E4FE57
:1046A000DBE700BF0B6702000A670200C567020074
:1046B000C3670200C1670200BB670200C767020050
:1046C0002DE9F0478B7A13F0070817468AB00A7A6B
:1046D00005460E4620D04989C3F3C2038909D24357
:1046E000CDE900830291F36802F001023946FFF739
:1046F000CDFE8146347AE44314F001040ED02946FD
:1047000030461BF0D8FAB8F1000F2BD0424639469C
:104710002846FFF749FF25E0C146EBE7B8F1000F57
:1047200026D12746EB68069306AA3B46A968304681
:104730001BF0ADFA069A6B681A603AB1AB68134485
:1047400013F8014CA4F10A035C425C4128461BF0BB
:104750000FFC069B1F44002BE4D11CB113492846D3
:10476000FFF782FE28461BF003FC0AB0BDE8F08785
:1047700030461BF036FA0E4902462846FFF774FE13
:104780004FF0100A05AA234606A93046CDF814A01A
:104790001BF07DFA059A002AB8D04B46009706A96F
:1047A0002846FFF71FFF059B1C44EBE7CA67020082
:1047B0008C7B020073B542F20F738B4228BF0B460D
:1047C00005680F4A0446052168461AF050FC6368E4
:1047D0000C495B6806460B2228461BF05FFA6368AB
:1047E0003246694628465B681BF058FA63680649FA
:1047F0005B681B2228461BF051FA02B070BD00BF57
:10480000E484020008680200EC670200084A10B560
:104810000123084C13600021A04204D801B11360A9
:10482000054B186010BD40085B000121F4E700BF94
:104830001816002040420F0014160020F8B5074F4C
:104840000D4604464618B44201D12846F8BD3868E2
:1048500014F8011B83685B689847F4E73016002062
:1048600001481BF085BB00BFF84E02000148FFF76E
:10487000A1BF00BFF84E020008B5034819F05EF86A
:10488000024B186008BD00BF1468020030160020FB
:1048900010B508460C461BF062F9054821460F2268
:1048A000FFF70EFF2046BDE810401BF087B900BFA0
:1048B000F84E0200014B01221A707047C75A0020BF
:1048C000024B034801221A701BF052BBC85A002049
:1048D000204F02000148FFF76DBF00BF204F0200CC
:1048E00010B508460C461BF03AF9054821460F2240
:1048F000FFF7E6FE2046BDE810401BF05FB900BFA1
:10490000204F0200054B1B781BB141F288301FF08D
:10491000B9BDA420002119F08FBE00BFC85A0020E5
:104920002DE9F84FDFF89090DFF890B007460E467B
:104930000424CA4699F8003033B94FF0FF324FF0E3
:10494000FF33584619F00EFA32463946002002F07D
:10495000BFFC9AF80030804613B9584619F07AFA2D
:10496000144DB8F1000F18D001232B709AF80030C5
:1049700033B93046BDE8F88F5CB92C704FF0FF3486
:10498000002002F0F1FC0028F3D02B78002BF3D1AB
:10499000EFE7013CFFF7B6FFF2E72B7813B1013CDC
:1049A00004D12C702B78002BC4D1E2E7FFF7AAFFCB
:1049B000F8E700BFC75A0020C85A0020500800205E
:1049C000F0B5104B104C114DE41AA4106C43104D6F
:1049D000D5F824C00025A54202D16FF02200F0BD19
:1049E0005F6867450AD31E6946B197F802E0077908
:1049F000BE4503D13346BDE8F040184701352433A6
:104A0000E9E700BFD00A0020F40A0020398EE3381D
:104A1000481600202DE9F041124B134C134DE41AB7
:104A2000A4106C43124DD5F824C00025A54203D133
:104A30006FF02200BDE8F0815E6866450ED39F6985
:104A400067B196F8028090F804E0F04503D13B4648
:104A5000BDE8F04118477679012EF8D001352433AE
:104A6000E4E700BFD00A0020F40A0020398EE338C2
:104A7000481600202DE9F8430F4C104B17461B1B1E
:104A80000F4A9B1005460E4602FB03F94FF0000843
:104A9000C14502D16FF022000BE063691BB908F138
:104AA00001082434F4E73A4631462846984700285E
:104AB000F5D1BDE8F88300BFD00A0020F40A002039
:104AC000398EE33807B583788DF800300379427961
:104AD00043EA0223ADF80230C378684603F00303CB
:104AE0008DF8043002F05AF810F1450F9DF80010CF
:104AF00021D11F4A1F4B2048D21AD208920142F0FE
:104B000002021AF082FF9DF8000002F0EDF810F1A9
:104B1000450F20D1164A174B9DF800101748D21A9E
:104B2000D208920142F002021AF06FFF144B0120EA
:104B300083F8B9000CE00028E5D00D4A0D4B114870
:104B4000D21AD208920142F001021AF05EFF002050
:104B500003B05DF804FB0028E8D0054A054B9DF83A
:104B600000100948D21AD208920142F00102ECE783
:104B7000744D0200244C02005E680200A568020029
:104B80004816002081680200C56802002DE9F14F37
:104B9000254B264C264F1B1B9B105F43031F012BED
:104BA00005460E4625D8234B93F8B920984602B304
:104BB00000F0CEFE042D1CD14FF000094F4515D05A
:104BC000D4F820B04FF0000A227F5FFA8AF39A42AD
:104BD00003D809F101092434F0E70BEBC3030AF110
:104BE000010A187902F0AAF80028EDDA002388F803
:104BF000B9300E4C4FF00008B84508D10D4B1B6A78
:104C00007BB13146284601B0BDE8F04F1847E36854
:104C10001BB1324629462046984708F10108243442
:104C2000EAE701B0BDE8F08FF40A0020D00A0020C6
:104C3000398EE338481600202DE9F04FB04CA369B7
:104C400087B006460D46174663B9337803F01F0355
:104C5000012B00F08680022B00F0F28043B16FF050
:104C6000150002E098470028EFD107B0BDE8F08FAB
:104C7000727870883B68092AF1D801A151F822F0B6
:104C8000A94C00005F4C00005F4C00005F4C00002E
:104C90005F4C0000B54C0000BF4C00005F4C0000B2
:104CA000ED4C0000F74C00000020012258701A70F3
:104CB000022371E0C0B201F025FF0020D5E7020A0F
:104CC000131F012BCBD9072AC9D8636A0021C0B2B0
:104CD0001C78002CC3D05E78964203D1884200F045
:104CE000448101312344F3E71B7843E194F8BA206F
:104CF0001A7001233EE1C7B28DF8177077B14FF0FB
:104D0000FF08656A0026C1462B7853B9E3691BB1D9
:104D10000DF1170103209847002EA0D084F8BA7037
:104D2000CBE76B78042B0DD0052B0ED0022B06D1D0
:104D300095F805809DF81730434508BF01262B786C
:104D40001D44E1E795F80390F9E79DF817304345D6
:104D5000F5D1B9F1000FF2D12846FFF7B3FE0646B0
:104D6000EDE794F8BA30002B3FF479AFD4F824B0D3
:104D700096F804805A46107800283FF470AF5178B6
:104D8000022904D192F804C0C44500F2F58002441F
:104D9000F1E70020107001232B6066E7B378594AD1
:104DA000594E0193B61AF608B301FF27029343F058
:104DB0000103BA464FF0000903939BF800203AB96B
:104DC000E36913B1494607209847002028604CE763
:104DD0009BF80120042A05D0052A0ED09BF800205C
:104DE0009344EAE79BF802709BF803A0B845F5D11D
:104DF000019B534508BFD946F0E7B845EED1019B6A
:104E0000534519D09BF80260304600F079FD3046DA
:104E100001F094FF10F1450F07D1029B3B4843F08E
:104E2000020231461AF0F1FDD8E70028D6D0BDF8CD
:104E30000C2037483146F5E75846FFF743FECDE7EB
:104E40003079D7F800808DF8170030F0800C1CD036
:104E5000304B314A3149D21A92104A434FF0000E7A
:104E600072457FF6FCAE196A93F81C90002704394E
:104E70005FFA87FACA4503D30EF1010E2433EFE738
:104E8000013711F837A08245F2D17378012B13D086
:104E9000032B47D0002B7FF4E2AEBCF1000F04D00F
:104EA00094F8BA30002B3FF4DAAE414601F000FF2F
:104EB000002088F80100FBE67388002B7FF4CFAE5A
:104EC000BCF1000F04D094F8BA30002B3FF4C7AE09
:104ED0000C4B0D4AD21AD2089201014642F003024D
:104EE0000F481AF092FD9DF8170001F0C1FEE3692A
:104EF000002B3FF4E2AE0DF1170109209847DCE6E4
:104F000048160020244C0200744D0200E66802009E
:104F100007690200D00A0020F40A0020398EE33825
:104F2000296902007388002B7FF499AEBCF1000F51
:104F300004D094F8BA30002B3FF491AE164B174AC8
:104F4000D21AD2089201014642F0030214481AF024
:104F50005CFD9DF8170001F053FEE369002B3FF460
:104F6000ACAE0DF117010820C8E7022A3B607FF4C0
:104F7000BBAE5B882B60A0E670783A680A283FF4E5
:104F800008AF0B283FF40AAF00287FF468AE10701A
:104F90005070296069E600BF244C0200744D020085
:104FA0003E69020008B509480378C3F341130A3388
:104FB00050F823303BB100F1080200F1100198478E
:104FC000C043C00F08BD1846FCE700BF48160020CC
:104FD0002DE9F84F124CDFF850B09846114BE41A07
:104FE000E408A40105460E4617464FF0040944F0B4
:104FF000020443463A463146284601F0BFFE10F10E
:105000000B0F824609D12246294658461AF0FDFC6C
:1050100019F0C4FAB9F10109EBD15046BDE8F88F97
:10502000744D0200244C02005169020037B5124C45
:10503000237D0546BBB9E268A168019201AB8020DF
:10504000FFF7C6FF0199A268E3680A445B1AA260F1
:10505000E36033B923699D4203DD9B0601D101233F
:10506000237503B030BD00231A46194680202375EE
:1050700001F084FEF5E700BF4816002030B585B08A
:1050800000220B4601920546002861D100293DD13E
:1050900008220DEB02011BF0A1F9002804DA8020A0
:1050A00001F0AEFD05B030BD2E4CBDF80E300299BA
:1050B0002160802B03999DF80820616010D9D509E3
:1050C0000ED12949294B2A48C91AC908890141F03A
:1050D00001011AF08DFC802001F092FD2846DFE7E7
:1050E00024492361C4E90213002121750BB1D309BE
:1050F000D8D0FFF757FF0028D1D0E088236983423A
:10510000D4BFE360E060FFF791FFCBE7154CD4E933
:105110000212002A01AB05DC02461BF05FF90028F1
:10512000C0DABCE71BF05AF90028D4DB0199A26869
:10513000E3680A445B1AA260E360002BB2D104F179
:105140003803A360FFF72EFF0028A8D0E088DAE735
:105150008028A7D1034BDA6812B91A7D002AA1D0A2
:10516000D888D0E748160020744D0200244C020075
:105170007869020080160020054B064A9A62064AAA
:10518000DA62064A1A63064A58629A61002070473A
:1051900048160020394C0000C1490000754A000043
:1051A000154A00000C4B10B593F8B8408CB900F0CC
:1051B000F3F960B9094B0A490A48C91AC9088901B3
:1051C00041F001011AF014FC4FF0FF3010BDFFF761
:1051D000D3FF0020FAE700BF48160020244C02004D
:1051E000744D0200916902002DE9F7430446374DE2
:1051F00037484FF0FF324FF0FF3318F0B3FD95F80A
:10520000B860002E42D133482C62E86101F018FFEB
:1052100001F03AFC041E3ADB00F0BCFB041E36DB56
:1052200040236846ADF802308DF804608DF80060C8
:1052300001F0B4FC041E2ADB802768468DF800705C
:1052400001F0ACFC041E22DB2349304601F0E4FEF1
:10525000041E1CDB2049384601F0DEFE041E16DB6E
:105260001E4C1F4B1F4A1B1B9B1002FB03F9B14531
:1052700014D1002001F038FD041E08DB802001F06D
:1052800033FD041E03DB012385F8B83000241048E9
:1052900018F0E0FD204603B0BDE8F083D4F820808C
:1052A0000027237FFAB2934202D801362434DEE786
:1052B00008EBC20358F83210187901F0ADFE01373F
:1052C0000028EED04FF0FF34E1E700BF4816002081
:1052D000640800208D4B00007D500000D00A0020A3
:1052E000F40A0020398EE33830B51C4B89B003AA8C
:1052F00003F1100518685968144603C40833AB421B
:105300002246F7D11B7823700822002101A81CF047
:10531000F5F91222002112481CF0F0F9082101A829
:105320001BF06BF8002816DD0D4901AA002012F8C9
:10533000013B08AC04EB131403F00F0314F8144CF6
:105340000C7008AC2344013013F8143C4B7008284F
:1053500001F10201EBD1024809B030BDC169020080
:10536000C95A00202DE9F04F7F4A804B804D81497A
:105370009B1A814A87B09B10002753436D1A04463D
:105380000193ED084FF0011BB946B846BA462378A1
:105390004BB97A4AA01C904200F0E380FFF7E2FF8D
:1053A00007B0BDE8F08F6378052B05D8DFE803F080
:1053B000950403950730A24623781C44E7E7E37879
:1053C000002BF9D1A378C3B9674A104601999942D5
:1053D00007D1AA016A4842F0010221461AF015FBE2
:1053E0001FE051688C4202F124020BD14FF02408D7
:1053F00008FB0308D8F8083033B909F101095FFA4E
:1054000089F9D9E70133E1E7494620469847F4E7AF
:10541000B8F1000F5ED1A9015A4841F001011AF01C
:10542000E7FA4FF0FF30BBE7D8F82020A67802EB70
:10543000C3021079864209D0013398F81C209342A8
:10544000F2D3A901504841F00101E8E7012694F8A0
:1054500003C094F805E00CF0030C8DF814C094F828
:1054600004C04CEA0E2CADF812C094F902C0BCF195
:10547000000FF0B225DA06F1100C01FA0CFC1CEA60
:105480000B0F23D160F07F008DF8100004A8CDE948
:10549000023201F049FBDDE902320121B0B99DF889
:1054A0001030A37013F0800F137118BF10360B4625
:1054B00015BFB34003FA06F64BEA030B4BEA060BA3
:1054C0007AE701FA06FC1CEA0B0FDDD00136102E3C
:1054D000BDD1B1E700230121AFE7032F25D1FFF7AD
:1054E00003FF064678B11CF0BBF8029058B127487C
:1054F0001CF0B6F8029A824212D0A901244841F069
:1055000001011AF075FA23786FF00201E218091B05
:1055100004EB53030020D14211D50137FFB24BE712
:105520003146A01C1CF0BFF8EDE7002FEBD1BAF11B
:10553000000F0BD1A901174841F001016FE702F8F4
:10554000010C13F8016902F8026DE4E7A4EB0A0309
:105550008AF80230C3F307238AF803308AF80490EC
:10556000DBE718461CE700BFD00A0020F40A002041
:105570006C4D0200244C0200398EE338CF0A002023
:10558000986A0200D2690200136A0200C16902002F
:10559000306A02007B6A020008B50948FFF7E2FEA4
:1055A00058B1084B08490948C91AC908890141F08E
:1055B00001011AF01DFA002008BD0148FCE700BFF8
:1055C000100A0020244C02006C4D0200B86A020050
:1055D000014600F10803BFF35B8F53E8002F42F050
:1055E000010043E8000CBCF1000FF6D1BFF35B8F64
:1055F000D30702D401481EF0E3BD7047400C0020E1
:105600002DE9F34150F8303C10F8345C1033044677
:1056100010D1C36850F8282C990747D5FAB913F070
:10562000040304D11A4619462846FFF7D1FC00238B
:1056300044F8303C54F8303C10330DD054F8206C12
:1056400056B154F8247C54F81C8C1EF015FF002829
:1056500058D02046FFF7BCFF02B0BDE8F08150F8FB
:105660002C1C01AB2846FFF7B3FC014668B12D4A5C
:105670002D4B2E489B1ADB089B0143F001032A4661
:105680001AF0D7F96FF01503D2E7019A54F82C3CC1
:10569000134444F82C3C54F8283C9B1A44F8283C0A
:1056A00054F8243C134444F8243CC3E750F82C1C21
:1056B00001AB284601F0FCFB01460028D7D1019E32
:1056C00054F82C3C334444F82C3C54F8283C9B1BA5
:1056D00044F8283C54F8243C334444F8243C002E3D
:1056E000A5D0284601F0B2FCB6FBF0F303FB106036
:1056F00000289CD154F8283C002B98D0284601F073
:1057000035FC97E744F8200CA4F1180018F0BCFF12
:1057100054F8303C48339FD0424639462846B0477B
:105720009AE700BF244C0200844D0200E66A0200A2
:105730000A4A30B50023442404FB03F18D5C854202
:1057400007D10A44506810F1100F14BF0020012047
:1057500030BD0133042BEFD10020F9E704170020FE
:1057600073B51D4C06460D460023442202FB03F090
:10577000015DB1421CD104446B1E012B16D8E4B963
:10578000012D13D101AB01220DF10301304601F0CF
:105790008FFB019B002BF5D11049114B1148C91A01
:1057A000C908890141F001011AF022F902B070BD67
:1057B0000133042BDAD10024DEE71EF05DFE034640
:1057C00004F134000BB1012D02D1FFF719FFEDE711
:1057D000FFF7FEFEEAE700BF04170020844D020039
:1057E000244C0200036B02002DE9F74F054690465A
:1057F00099464FF02003EFF3118283F31188BFF332
:105800006F8FDFF8F8A0009200244427019107FB76
:1058100004F600220023504618F05CFF0199F0B90D
:10582000314F07EB060BDBF8044014F1100F28D1C1
:105830002E4B2F4A2F48D21AD208920142F0010271
:1058400029461AF0E2F8504618F01EFF009B83F339
:105850001188BFF36F8F204603B0BDE8F08F01348D
:10586000042C0AF1440AD1D1204B21492248C91AFB
:10587000C908890141F001011AF0BAF86FF00B0470
:10588000E4E70C9ACBF814200D9ACBF818206FF0AF
:105890000F02CBF81000CBE90218BD55CBF84090B1
:1058A000CBF80420284601F0D1FB68B1284601F06E
:1058B000CDFBB8FBF0F202FB108028B1DBF84020F2
:1058C00042F00402CBF8402019F0020F06D006F196
:1058D00034003844FFF77CFE0024B7E7284601F087
:1058E00045FB0446B2E700BF04170020244C020029
:1058F000844D02001D6B0200466B02002017002041
:1059000070B54FF02003EFF3118483F31188BFF3D8
:105910006F8F0E490022442505FB02F35E5C864230
:105920000BD1CA18506810300AD16FF047003433D9
:105930005060C818FFF74CFE02E00132042AEBD198
:1059400084F31188BFF36F8F70BD00BF0417002070
:10595000F8B50F4C00256FF047074FF02003EFF329
:10596000118683F31188BFF36F8F6368103304D1FE
:1059700004F134006760FFF72BFE86F31188BFF354
:105980006F8F0135042D04F14404E6D1F8BD00BF4A
:1059900004170020F8B50025094C0A4F2E46C4E92B
:1059A0000D67E663012204F11C00114601351EF06B
:1059B00053FD042D04F14404F1D10020F8BD00BFD3
:1059C00004170020015600007FB5436E5B681B6A18
:1059D0001E7D05463046FFF7ABFED0B9686D4FF42B
:1059E000806203A919F056FF044690B18306A5F121
:1059F0002C0308BF00F1FF340193074B0399009378
:105A0000224602233046FFF7EFFE686D214619F06B
:105A10005DFF04B070BD00BFE901020070B504462F
:105A20000E460179164815461AF0F3FA68B9154B77
:105A3000154A1648A188D21AD208920142F00202F1
:105A400019F0E3FF6FF0120070BD6378212B0ED0C8
:105A5000222B08D0202B0FD1296807220C381BF0ED
:105A600022FE0020F0E7638800F8053CF9E70C38D7
:105A7000072328603360F4E76FF01500E4E700BF08
:105A800014180020244C0200644D02006E6B0200CA
:105A900010B5014604460A481AF0CCFA60B9094A22
:105AA000094B0A48D21AD2089201214642F002025A
:105AB000BDE8104019F0A9BF012300F8033C10BD58
:105AC00014180020644D0200244C0200956B020063
:105AD00030B54268C568104C85B042F2A1004FF461
