:020000040800F2
:1000000000040020010300080303000803030008A4
:1000100003030008030300080303000803030008A8
:10002000030300080303000803030008516D0008E0
:100030000303000803030008030300080303000888
:100040000303000803030008030300080303000878
:100050000303000803030008A13E0008513E000806
:10006000013E0008B13D0008613D0008113C000858
:10007000C13B0008713B0008213B0008E13A000841
:10008000913A0008413A00080303000803030008FE
:10009000030300080303000803030008E13C000811
:1000A0000303000803030008030300080303000818
:1000B000617B000803030008030300080303000832
:1000C00003030008030300080303000803030008F8
:1000D00003030008030300080303000803030008E8
:1000E000513C000803030008030300080303000851
:1000F000030300080303000803030008F1390008A4
:1001000003030008030300087156000803030008F6
:1001100003030008030300080303000803030008A7
:10012000B13900086139000811390008C1380008E8
:1001300081380008030300080303000803030008D4
:10014000030300080303000803030008E17D00081F
:1001500031380008E1370008913700080303000830
:100160000303000803030008030300080303000857
:1001700003030008B17D000803030008030300081F
:100180000303000803030008030300080303000837
:100190000303000803030008030300080303000827
:1001A0000303000803030008030300080303000817
:1001B0000303000803030008030300080303000807
:1001C00003030008030300080303000803030008F7
:1001D00003030008030300080303000803030008E7
:1001E00072B6384880F30888374880F30988374862
:1001F0004EF60851CEF20001086040F20000CCF249
:1002000000004EF63471CEF200010860BFF34F8F4C
:10021000BFF36F8F40F20000C0F2F0004EF688513D
:10022000CEF200010860BFF34F8FBFF36F8F4FF026
:100230000000E1EE100A4EF63C71CEF200010860BB
:10024000062080F31488BFF36F8F01F089FE07F05A
:1002500017FB1F481F491B4A91423CBF41F8040B42
:10026000FAE71D49184A91423CBF41F8040BFAE7EE
:100270001A491B4A1B4B9A423EBF51F8040B42F8E5
:10028000040BF8E700201849184A91423CBF41F896
:10029000040BFAE701F02CFE01F05AFE144C154D48
:1002A000AC4203DA54F8041B8847F9E702F058F827
:1002B000114C124DAC4203DA54F8041B8847F9E79D
:1002C00001F03EBE000400200008002000000008ED
:1002D00055555555000000200004002028D2000884
:1002E0000008002074110020781100204CBB002071
:1002F000E0010008E0010008E0010008E00100085A
:100300006EE700F000F8FEE72DE9F04F2DED108AC2
:10031000C1F80CD0C3689D46BDEC108ABDE8F08FD3
:1003200007F08EFA002383F311882846A0470020A7
:1003300006F05EFEFEE707F093FA06F089FD07F08F
:100340007FFA00DFFEE70000844641EA000313F075
:1003500003036DD1403A41D351F8043B40F8043BCC
:1003600051F8043B40F8043B51F8043B40F8043B8F
:1003700051F8043B40F8043B51F8043B40F8043B7F
:1003800051F8043B40F8043B51F8043B40F8043B6F
:1003900051F8043B40F8043B51F8043B40F8043B5F
:1003A00051F8043B40F8043B51F8043B40F8043B4F
:1003B00051F8043B40F8043B51F8043B40F8043B3F
:1003C00051F8043B40F8043B51F8043B40F8043B2F
:1003D00051F8043B40F8043B403ABDD2303211D3CF
:1003E00051F8043B40F8043B51F8043B40F8043B0F
:1003F00051F8043B40F8043B51F8043B40F8043BFF
:10040000103AEDD20C3205D351F8043B40F8043BCE
:10041000043AF9D2043208D0D2071CBF11F8013BCC
:1004200000F8013B01D30B8803806046704700BF92
:10043000082A13D38B078DD010F003038AD0C3F1A1
:100440000403D21ADB071CBF11F8013B00F8013B83
:1004500080D331F8023B20F8023B7BE7043AD9D342
:10046000013A11F8013B00F8013BF9D20B78037017
:100470004B7843708B7883706046704781F0004101
:1004800002E000BF83F0004330B54FEA41044FEA79
:10049000430594EA050F08BF90EA020F1FBF54EA14
:1004A000000C55EA020C7FEA645C7FEA655C00F0B0
:1004B000E2804FEA5454D4EB5555B8BF6D420CDD81
:1004C0002C4480EA020281EA030382EA000083EA04
:1004D000010180EA020281EA0303362D88BF30BDA4
:1004E00011F0004F4FEA01314FF4801C4CEA1131FA
:1004F00002D0404261EB410113F0004F4FEA033359
:100500004CEA133302D0524263EB430394EA050FE3
:1005100000F0A780A4F10104D5F1200E0DDB02FA52
:100520000EFC22FA05F2801841F1000103FA0EF2E6
:10053000801843FA05F359410EE0A5F120050EF1AC
:10054000200E012A03FA0EFC28BF4CF0020C43FADD
:1005500005F3C01851EBE37101F0004507D54FF0EA
:10056000000EDCF1000C7EEB00006EEB0101B1F53A
:10057000801F1BD3B1F5001F0CD349085FEA300080
:100580004FEA3C0C04F101044FEA445212F5800F8B
:1005900080F09A80BCF1004F08BF5FEA500C50F128
:1005A000000041EB045141EA050130BD5FEA4C0C0B
:1005B000404141EB010111F4801FA4F10104E9D194
:1005C00091F0000F04BF01460020B1FA81F308BF8B
:1005D0002033A3F10B03B3F120020CDA0C3208DD57
:1005E00002F1140CC2F10C0201FA0CF021FA02F132
:1005F0000CE002F11402D8BFC2F1200C01FA02F1A2
:1006000020FA0CFCDCBF41EA0C019040E41AA2BFC6
:1006100001EB0451294330BD6FEA04041F3C1CDA8E
:100620000C340EDC04F11404C4F1200220FA04F0AE
:1006300001FA02F340EA030021FA04F345EA030158
:1006400030BDC4F10C04C4F1200220FA02F001FA1A
:1006500004F340EA0300294630BD21FA04F029469C
:1006600030BD94F0000F83F4801306BF81F4801135
:100670000134013D4EE77FEA645C18BF7FEA655CA8
:1006800029D094EA050F08BF90EA020F05D054EA7A
:10069000000C04BF1946104630BD91EA030F1EBF7F
:1006A0000021002030BD5FEA545C05D14000494183
:1006B00028BF41F0004130BD14F580043CBF01F576
:1006C000801130BD01F0004545F0FE4141F470015C
:1006D0004FF0000030BD7FEA645C1ABF1946104637
:1006E0007FEA655C1CBF0B46024650EA013406BF38
:1006F00052EA033591EA030F41F4002130BD00BFF7
:1007000090F0000F04BF0021704730B54FF48064B3
:1007100004F132044FF000054FF0000150E700BF34
:1007200090F0000F04BF0021704730B54FF4806493
:1007300004F1320410F0004548BF40424FF0000180
:100740003EE700BF42004FEAE2014FEA31014FEAC3
:1007500002701FBF12F07F4393F07F4F81F0605112
:10076000704792F0000F14BF93F07F4F704730B581
:100770004FF4607401F0004521F0004120E700BF14
:1007800050EA010208BF704730B54FF000050AE09B
:1007900050EA010208BF704730B511F0004502D59C
:1007A000404261EB41014FF4806404F132045FEA9E
:1007B000915C3FF4DCAE4FF003025FEADC0C18BF43
:1007C00003325FEADC0C18BF033202EBDC02C2F139
:1007D000200300FA03FC20FA02F001FA03FE40EACB
:1007E0000E0021FA02F11444C1E600BF70B54FF0CB
:1007F000FF0C4CF4E06C1CEA11541DBF1CEA1355AD
:1008000094EA0C0F95EA0C0F00F0DEF82C4481EA14
:10081000030621EA4C5123EA4C5350EA013518BF34
:1008200052EA033541F4801143F4801338D0A0FB21
:1008300002CE4FF00005E1FB02E506F00042E0FBCE
:1008400003E54FF00006E1FB03569CF0000F18BFD4
:100850004EF0010EA4F1FF04B6F5007F64F540747C
:1008600004D25FEA4E0E6D4146EB060642EAC6210F
:1008700041EA55514FEAC52040EA5E504FEACE2E7C
:10088000B4F1FD0C88BFBCF5E06F1ED8BEF1004F7F
:1008900008BF5FEA500E50F1000041EB045170BDFB
:1008A00006F0004646EA010140EA020081EA03013F
:1008B000B4EB5C04C2BFD4EB0C0541EA045170BD3B
:1008C00041F480114FF0000E013C00F3AB8014F1B5
:1008D000360FDEBF002001F0004170BDC4F10004FE
:1008E000203C35DA0C341BDC04F11404C4F120057F
:1008F00000FA05F320FA04F001FA05F240EA0200DA
:1009000001F0004221F0004110EBD37021FA04F60F
:1009100042EB06015EEA430E08BF20EAD37070BDC9
:10092000C4F10C04C4F1200500FA04F320FA05F028
:1009300001FA04F240EA020001F0004110EBD3702A
:1009400041F100015EEA430E08BF20EAD37070BD9A
:10095000C4F1200500FA05F24EEA020E20FA04F373
:1009600001FA05F243EA020321FA04F001F0004122
:1009700021FA04F220EA020000EBD3705EEA430E93
:1009800008BF20EAD37070BD94F0000F0FD101F0C2
:100990000046400041EB010111F4801F08BF013CFB
:1009A000F7D041EA060195F0000F18BF704703F039
:1009B0000046520043EB030313F4801F08BF013DC0
:1009C000F7D043EA0603704794EA0C0F0CEA13557C
:1009D00018BF95EA0C0F0CD050EA410618BF52EA36
:1009E0004306D1D181EA030101F000414FF000003C
:1009F00070BD50EA410606BF1046194652EA43064A
:100A000019D094EA0C0F02D150EA013613D195EABD
:100A10000C0F05D152EA03361CBF104619460AD105
:100A200081EA030101F0004141F0FE4141F470010F
:100A30004FF0000070BD41F0FE4141F4780170BDFF
:100A400070B54FF0FF0C4CF4E06C1CEA11541DBF64
:100A50001CEA135594EA0C0F95EA0C0F00F0A7F866
:100A6000A4EB050481EA030E52EA03354FEA013193
:100A700000F088804FEA03334FF0805545EA1313A6
:100A800043EA12634FEA022245EA111545EA10656E
:100A90004FEA00260EF000419D4208BF964244F105
:100AA000FD0404F5407402D25B084FEA3202B61A24
:100AB00065EB03055B084FEA32024FF480104FF4F8
:100AC000002CB6EB020E75EB030E22BFB61A75466C
:100AD00040EA0C005B084FEA3202B6EB020E75EBFF
:100AE000030E22BFB61A754640EA5C005B084FEA67
:100AF0003202B6EB020E75EB030E22BFB61A754634
:100B000040EA9C005B084FEA3202B6EB020E75EB3E
:100B1000030E22BFB61A754640EADC0055EA060EFF
:100B200018D04FEA051545EA16754FEA06164FEA42
:100B3000C30343EA52734FEAC2025FEA1C1CC0D1EE
:100B400011F4801F0BD141EA00014FF000004FF07B
:100B5000004CB6E711F4801F04BF01430020B4F13C
:100B6000FD0C88BFBCF5E06F3FF6AFAEB5EB030CF4
:100B700004BFB6EB020C5FEA500C50F1000041EBF1
:100B8000045170BD0EF0004E4EEA113114EB5C04BE
:100B9000C2BFD4EB0C0541EA045170BD41F4801191
:100BA0004FF0000E013C90E645EA060E8DE60CEA99
:100BB000135594EA0C0F08BF95EA0C0F3FF43BAFB6
:100BC00094EA0C0F0AD150EA01347FF434AF95EA6D
:100BD0000C0F7FF425AF104619462CE795EA0C0F51
:100BE00006D152EA03353FF4FDAE1046194622E71E
:100BF00050EA410618BF52EA43067FF4C5AE50EAF8
:100C000041047FF40DAF52EA43057FF4EBAE12E7E7
:100C10004FF0FF3C06E000BF4FF0010C02E000BFC8
:100C20004FF0010C4DF804CD4FEA410C7FEA6C5CAB
:100C30004FEA430C18BF7FEA6C5C1BD001B050EA4E
:100C4000410C0CBF52EA430C91EA030F02BF90EA39
:100C5000020F0020704710F1000F91EA030F58BFF8
:100C6000994208BF90422CBFD8176FEAE37040F05A
:100C7000010070474FEA410C7FEA6C5C02D150EAF8
:100C8000013C07D14FEA430C7FEA6C5CD6D152EAB3
:100C9000033CD3D05DF8040B704700BF8446104678
:100CA00062468C461946634600E000BF01B5FFF777
:100CB000B7FF002848BF10F1000F01BD4DF808ED47
:100CC000FFF7F4FF0CBF012000205DF808FB00BF18
:100CD0004DF808EDFFF7EAFF34BF012000205DF872
:100CE00008FB00BF4DF808EDFFF7E0FF94BF0120BF
:100CF00000205DF808FB00BF4DF808EDFFF7CEFFC0
:100D000094BF012000205DF808FB00BF4DF808EDFE
:100D1000FFF7C4FF34BF012000205DF808FB00BFCF
:100D20004FEA410212F5001215D211D56FF4787313
:100D3000B3EB625212D94FEAC12343F0004343EAB6
:100D4000505311F0004F23FA02F018BF4042704791
:100D50004FF00000704750EA013005D111F000401B
:100D600008BF6FF0004070474FF00000704700BFB1
:100D700053B94AB9002908BF00281CBF4FF0FF3102
:100D80004FF0FF3000F03CB882B0EC462DE9005047
:100D900000F01EF8DDF804E002B00CBC704700BFA4
:100DA0002DE9F041069C154606460F46984600F090
:100DB00029F805FB01F300FB0838A5FB0023B21A54
:100DC000434467EB0303C4E90023BDE8F08100BF9F
:100DD0002DE9F041069C904606460F461D4600F060
:100DE0005FF900FB05F5A0FB082308FB0155B21ACB
:100DF0002B4467EB0303C4E90023BDE8F08100BF87
:100E0000704700BF00292DE9F043C0F2A6800026FC
:100E1000002BC0F29C80884694469E4615460446A8
:100E20000F46002B3DD18A4259D9B2FA82F33BB129
:100E3000C3F120029F4020FA02F29D4017439C40DC
:100E4000290C220CB7FBF1FEA8B201FB1E7742EA87
:100E5000074700FB0EF3BB420AD97F190EF1FF32A0
:100E600080F00581BB4240F20281AEF1020E2F44B8
:100E7000FF1AA4B2B7FBF1F301FB137744EA07476B
:100E800000FB03F0B84208D97F1903F1FF3280F06C
:100E9000F080B84240F2ED80023B43EA0E4300226C
:100EA00003E08B420FD900221346341C18BF0124E3
:100EB00060424FF0000565EB450158405140001974
:100EC0006941BDE8F083B3FA83F2002A40F08680DE
:100ED0008B4202D3844500F2DB800123E5E712B99F
:100EE0000123B3FBF2F5B5FA85F000283BD1781B5E
:100EF0004FEA154E1FFA85FC0122B0FBFEF8210CCB
:100F00000EFB180741EA07470CFB08F3BB4207D961
:100F10007F1908F1FF3102D2BB4200F2BD80884642
:100F2000FF1AA4B2B7FBFEF30EFB137744EA0747A0
:100F30000CFB03FCBC4507D97F1903F1FF3102D23A
:100F4000BC4500F2A7800B4643EA0843ADE7524296
:100F50006FEA060663EB43035DE7404261EB410144
:100F60004FF0FF3654E7C0F1200224FA02F107FAED
:100F700000F385404FEA154ED7401943B7FBFEF208
:100F80000B0C0EFB12771FFA85FC43EA07430CFBA0
:100F900002F79F4204FA00F407D95B1902F1FF300F
:100FA00074D29F4272D9023A2B44DF1B89B2B7FB3D
:100FB000FEF80EFB187341EA03430CFB08F79F424F
:100FC00008D95B1908F1FF315CD29F425AD9A8F1C8
:100FD00002082B44D81B48EA02428EE7C2F12003E4
:100FE0002CFA03F10EFA02FE20FA03F741EA0E0E84
:100FF00008FA02F028FA03F14FEA1E453843B1FB24
:10100000F5F8030C05FB18111FFA8EF743EA0141AE
:1010100007FB08F38B420CFA02FC09D911EB0E0115
:1010200008F1FF3930D28B422ED9A8F10208714461
:10103000C91A80B2B1FBF5F305FB131140EA014177
:1010400007FB03F78F4208D911EB0E0103F1FF30C4
:1010500016D28F4214D9023B714443EA0843C91B9C
:10106000A3FB0C89494509D305D000221DE796460C
:10107000FEE6134611E794404445F6D2013BF4E7FF
:101080000346EAE78846A5E7C846D1E702468CE76B
:1010900013460AE7023B57E7A8F102082F443FE74F
:1010A0002DE9F041002B44D18A42154604464FD920
:1010B000B2FA82F70E464FB1C7F12003B94020FAC9
:1010C00003F602FA07F50E4300FA07F44FEA154E4D
:1010D000230CB6FBFEF0AFB20EFB106143EA0143F6
:1010E00007FB00F1994209D95B1900F1FF3280F04A
:1010F000EC80994240F2E98002382B445A1AA4B29B
:10110000B2FBFEF30EFB132244EA024207FB03F795
:10111000974208D9521903F1FF3180F0D8809742E5
:1011200040F2D580023B43EA004000263146BDE84C
:10113000F0818B4247D8B3FA83F6002E48D18B4218
:1011400002D3824200F2CD8001203146BDE8F08119
:1011500012B90125B5FBF2F5B5FA85F8B8F1000F23
:1011600077D14A1B4FEA154EAFB20126B2FBFEF013
:10117000230C0EFB102143EA014107FB00F38B42D5
:1011800007D9491900F1FF3202D28B4200F2BA802E
:101190001046C91AA4B2B1FBFEF30EFB131144EAC8
:1011A000014407FB03F7A74208D9641903F1FF3292
:1011B00080F08F80A74240F28C80023B43EA0040DF
:1011C0003146BDE8F081002630463146BDE8F08169
:1011D000C6F1200422FA04F5B3402B4320FA04FCA4
:1011E00001FA06F721FA04F54FEA134E4CEA070715
:1011F000B5FBFEF8390C0EFB18551FFA83FC41EACB
:1012000005450CFB08F1A94202FA06F204D9ED18D3
:1012100008F1FF3467D3A0466D1ABFB2B5FBFEF4E8
:101220000EFB145547EA05410CFB04FC8C4504D920
:10123000C91804F1FF355CD32C4644EA0844CCEBD2
:101240000101A4FB0223994248D344D02046002642
:101250006CE7C8F1200401FA08F305FA08F520FA52
:1012600004F7E1404FEA154E1F43B1FBFEF63A0C7E
:101270000EFB16111FFA85FC42EA01430CFB06F235
:101280009A4200FA08F407D95B1906F1FF3137D208
:101290009A4235D9023E2B449B1ABFB2B3FBFEF0F3
:1012A0000EFB103347EA03430CFB00F1994207D9C8
:1012B0005B1900F1FF3221D299421FD902382B4429
:1012C0005A1A40EA0646674650E7104616E70B46AC
:1012D00029E7134672E7B0409042B7D2601E00265D
:1012E00024E7304622E7A94295D9A8F102081D4417
:1012F00092E78C45A0D9023C19449EE71046DFE7EF
:101300000E46C9E70238294443E700BF0000000049
:10131000704700BF00000000000000000000000057
:1013200090F85C3003F06003202B01D00020704760
:1013300090F85D30212B03D0222B09D0202BF5D142
:10134000064B036507220023426583650120704731
:101350000023036543658365012070470008002072
:1013600008B518B111B1012903D112B1024806F034
:101370008FF9002008BD00BFE4C500080000000090
:101380002DE9F84305460E469046994606F0B0F919
:10139000CDB1052E17D80124B4406889A4B214EA4F
:1013A000000710D105EB86030443DB686C81996963
:1013B0002846C1F80880C1F800904F603146BDE86A
:1013C000F84306F0ADBC014806F062F904C6000817
:1013D00070B50D46044606F07BF9D5B1E369043BD0
:1013E0009D4216D8E368A3B12169A0690D60E36945
:1013F000E2680B448342236124BF636A2361013A9C
:10140000236BE2600022A26233B12046BDE8704047
:101410001847024806F03CF970BD00BF70C50008CF
:1014200010B5044606F054F9E3689BB104F11400CA
:101430000BC803448B42E268636124BF636A636143
:10144000013A236BE2600022A26233B12046BDE87C
:1014500010401847014806F01BF910BDA8C5000848
:1014600038B504460D4606F033F907E0237A93B900
:101470002046294605F0ACFC00280EDBE368002B73
:10148000F4D0E36853B12269E369111D1344A162EA
:10149000E362002038BD6FF0010038BD014806F05E
:1014A000F7F800BF4CC60008000000000000000074
:1014B00038B504460D4606F00BF907E0237A93B9D8
:1014C0002046294605F084FC00280EDBE368002B4B
:1014D000F4D0E36853B163691A6804331A44E262D2
:1014E000A362002038BD6FF0010038BD014806F04E
:1014F000CFF800BF18C60008000000000000000080
:101500002DE9F84305460E469046994606F0F0F858
:10151000CDB1052E17D80124B4402889A4B214EA0D
:10152000000710D105EB86030443DB682C81596961
:101530002846C1F80880C1F800904F603146BDE8E8
:10154000F84306F095BB014806F0A2F80CC7000866
:1015500038B590F84C300446152B0CD8DFE803F072
:101560000B0B0B0B0B0B190B0B0B0B0B0B0B0B0BBD
:101570000B0B0B0B0E2F1C4806F08AF8C3689B69F7
:101580005B6883BB836D03B19847002384F84C30BC
:1015900038BDC36E4168D3F800290D6842F40012CB
:1015A000C3F80029D3F8002B42F40012C3F8002B33
:1015B0000DB10621A847062384F84C3038BD0B2313
:1015C00080F84C30202383F3118806F0E9F80021DD
:1015D0000B4620460A46FFF793FF06F0C9F80023A2
:1015E00083F3118838BD38BDE8C60008000000004C
:1015F00038B590F84C300446152B0CD8DFE803F0D2
:101600000B0B0B0B0B0B390B0B0E1E320B0B0B0BBF
:101610000B0B0B0B0B0B2B4806F03AF890F86310F2
:1016200090F86230426D43EA0123934206D9C368C1
:101630001D8AB2FBF5F305FB132585B3142384F84B
:101640004C30202383F3118806F0AAF800210B46C2
:1016500020460A46FFF794FE06F08AF8002383F33B
:10166000118838BD836D03B19847002384F84C304E
:1016700038BDC36E4168D3F800290D6842F40012EA
:10168000C3F80029D3F8002B42F40012C3F8002B52
:101690000DB10621A847062384F84C3038BD20231D
:1016A00083F3118806F07CF8204629462A462B460B
:1016B000FFF726FF06F05CF885F311880A2384F80B
:1016C0004C3038BDF4C600080000000000000000E7
:1016D000F8B590F84C30044613B1002380F84C3034
:1016E00004EB81016268CB681B6A19685B6823663A
:1016F000E16593683BB32046984720B3656D94F845
:101700005C3094F8631094F8622042EA0122AA4205
:101710003CBF626515461B0600F18580002D6ED129
:101720000B2384F84C30202383F3118806F038F81B
:10173000204629462A462B46FFF7E2FE06F018F817
:1017400085F31188F8BD94F85C3013F0600616D06C
:10175000E26ED2F80039616843F40013C2F8003930
:10176000D2F8003B0D6843F40013C2F8003B15B1FA
:1017700020460621A847062384F84C30F8BD94F88B
:101780005D5003F07F0242EA052540F202329542A5
:1017900000F0ED801DD8022D00F0D38040F2BE8015
:1017A000B5F5817F00F0FB80B5F5407F75D0B5F5CC
:1017B000807FCDD194F85E20012AC9D1B4F864208D
:1017C000266522F002026665A6653546A4F8642007
:1017D00097E740F2016295424DD9B5F5106F6CD094
:1017E00040F60242954200F0A580B5F5006FAFD1FA
:1017F00004F167020125A6652265656581E7152369
:1018000084F84C30202383F3118805F0C9FF636D01
:10181000226D20460021FFF7B3FD05F0A9FF00234C
:1018200083F31188F8BD9DB1092384F84C3020233F
:1018300083F3118805F0B4FF636D226D204600210B
:10184000FFF75EFE05F094FF002383F31188F8BDD7
:10185000142384F84C30202383F3118805F0A0FF73
:10186000204629462A462B46FFF78AFD05F080FFD1
:1018700085F31188F8BDB5F5C06F36D2B5F5A06F08
:101880007FF466AFB4F85C20B2F5A06F00F0A580DD
:10189000002525656565A56533E794F85E20012A76
:1018A0007FF456AFB4F86420266542F00202666504
:1018B000A6653546A4F8642023E72378042B00F0BE
:1018C000A48094F85E304BB1626884F86730136886
:1018D0000422227013B12046022198470025256575
:1018E0006565A56594F85C300BE7626894F8610063
:1018F00094F86030556894F85F1094F85E2043EADD
:1019000000232046A84700283FF422AF436805681B
:1019100065652365A66594F85C30F2E63DB9022260
:1019200004F16401A565216562651546E9E6012DAE
:101930007FF40EAF694A2265022500226565A26523
:10194000DFE694F8602002F00F0117064CBF483123
:1019500058314901E26E515808047FF5FAAE11F48E
:10196000001135D15E4A6565A1652265C9E694F826
:101970005E20002A7FF4ECAE94F8602012F00F0194
:1019800086D0E36E120603EB411354D4D3F8002B38
:1019900042F40012C3F8002B94F85C3078E794F816
:1019A0005E20002A7FF4D4AE94F8602012F00F017C
:1019B0003FF46EAFE36E03EB4113110632D4D3F85C
:1019C000002B22F40012C3F8002B94F85C305FE780
:1019D000444A6565A665226593E694F85E10E26E5A
:1019E00084F86610D2F80038606823F4FE63056856
:1019F00043EA0113C2F8003815B120460121A84777
:101A0000032294F85C30227042E7202383F311888C
:101A100005F0C6FE05F06CFE2378042B14D0324886
:101A200005F036FED3F8002922F40012C3F800298D
:101A300094F85C302CE7D3F8002942F40012C3F884
:101A4000002994F85C3023E7216F228963890868B4
:101A5000606702F0010203F001038F68E16E266106
:101A60006661A661E6612662228163814FF0FF30E4
:101A70000BE0D2F8005B002D14DB0B440136BE42B4
:101A8000C3F80809C3F8080B13D87301CA18D2F8B1
:101A90000059002DEDDAD2F8005945F08045C2F822
:101AA0000059E6E7D2F8005B45F08045C2F8005BDC
:101AB000E3E74FF00113C1F81C3805F059FE00238D
:101AC00083F31188626884F86730136803212170FA
:101AD000002B3FF4F6AE20469847F2E690C500088A
:101AE000ECC5000894C5000820C7000800000000ED
:101AF0002DE9F84304460E46154605F0F9FD1CB1E4
:101B000015B12378042B02D05D4805F0C1FD0FFA12
:101B100086F804EB8807F9680029F5D1FD6068694B
:101B200010B1102206F0D4FFA86918B100211022CC
:101B300006F0CEFFFB68E56E1A6802F00302022A87
:101B40005DD0032A5ED04F484F49012A0CBF814621
:101B5000894672019969A8184FF0000EC0F810EB81
:101B6000002955D0588A06F15801490149EA000078
:101B7000685006F1100ED5F81C08012101FA0EF18B
:101B80000143C5F81C182A4459690020C2F81009FD
:101B9000002951D09A8B198AD4F874E0012A4FEAAF
:101BA000910388BF534303EB0E01226F61675268B4
:101BB00091422AD806F13F00E26E05EB8000B101A8
:101BC0004EEA034341F02001436011611369990615
:101BD000FCD4122005F04CFDFB681A8A06F148037C
:101BE0005B0142EA865242EA0902EA500123D5F833
:101BF0001C28B3401343C5F81C38BDE8F883DFF850
:101C00009490A6E7DFF89090A3E7204805F040FD08
:101C100005EB481106F1100ED1F8000B20F400403E
:101C2000C1F8000BD5F81C08012101FA0EF120EAD9
:101C30000101C5F81C18A6E706F13F03E26E14483F
:101C400005EB8303B10141F0200158601161136974
:101C50009B06FCD405EB4818122005F009FDD8F8C6
:101C6000002922F40042C8F80029D5F81C280123D5
:101C7000B34022EA0303C5F81C38BDE8F88300BF6F
:101C8000D0C50008008004100080001028CB000898
:101C9000000400020080081000800C10000000000A
:101CA000F8B5D0F88C6437683B78042B01D001205C
:101CB000F8BD037A022BFAD132797B89012505FA26
:101CC00002F21A42F3D1044605F012FDE269236ADA
:101CD0009A4209D00432EAD0384671794FF48073C1
:101CE000FFF74EFB0020F8BDA369002BDFD1F1E721
:101CF0000D3138B550F82140BCB1202383F3118851
:101D000005F04EFDD4F88C241368527903EB82035E
:101D1000DB689B695D684DB92046FFF7C1FF05F0A0
:101D200027FD002383F3118838BD38BD201D042111
:101D300005F00EF905F0DCFCA36A043B9D4217D8C0
:101D4000E269236A9A4210D01560A36AA169606AA9
:101D5000134401318342A161E36101D3236BE36149
:101D600004F10C0006F0A4F8D6E7A369002BEBD031
:101D7000014805F08DFC00BFF0C500080000000020
:101D8000406BFFF78DBF00BF0000000000000000A7
:101D900038B504460D4605F0ABFC636922699A42EA
:101DA00004D0184650F8043B2B6038BDE268002A86
:101DB000F7D0002038BD00BF000000000000000088
:101DC000F0B500EB810383B01C6A0CB30E460546E8
:101DD000202383F3118800EB810705F0E1FC201D2F
:101DE000082105F0B5F8FB685B691B6893B94434BA
:101DF000204601A9FFF7CCFF024638B328463146FA
:101E0000019BFFF77DFB05F0B3FC002383F31188F2
:101E100003B0F0BD05F06CFCA06D636D834225D06E
:101E2000236E226DE16D034401328B422265A3656E
:101E300001D3A36EA3654434204606F039F820464A
:101E400001A9FFF7A5FF02460028D7D1FB685A6910
:101E50001268002AD7D01B8A013B1340D3D13146E8
:101E6000284605F15C02FFF74BFBCCE7236D002B06
:101E7000D6D0014805F00CFC34C600080000000074
:101E800010B5446BD4F88C2413681978042982B0F7
:101E900001D002B010BD217A0229FAD111791A8934
:101EA00001238B401342F4D104F1440001A9FFF750
:101EB0006FFF024638B1D4F88C14019B0868097989
:101EC000FFF71EFBE5E7014805F0E2FB84C50008CB
:101ED00008B54FF08043DA68920701D5586308BD12
:101EE000014805F0D5FB00BF38C70008000000001E
:101EF000F0B4114E002506F1800796E81A00A342BF
:101F00000DD204391A4651F8040F42F8040BA242CC
:101F1000F9D3DA43144424F0030404342344F2686C
:101F2000934203D243F8045B9342FBD31036BE4284
:101F3000E3D3F0BC704700BF68C600080000000093
:101F4000FEE700BF000000000000000000000000ED
:101F5000704700BF0000000000000000000000000B
:101F6000704700BF000000000000000000000000FB
:101F70002DE9F04F83B016460193002A72D08246B5
:101F80008B46202787F3118805F06AFC404DDAF86C
:101F9000280000960024A846A146002857D0DAF869
:101FA0002C20009B121A1E1B964228BF1646402E5C
:101FB00026D90BF14002DBF80060DBF80410DBF8F7
:101FC0000830DBF80CE0C0F80CE00BF1100B934587
:101FD00006604160836000F11000ECD1DAF828203F
:101FE000DAF82C104032914204F14004CAF828205B
:101FF00015D8DAF81C1050460439FFF7E9F90EE05D
:1020000059463246FEF7A0F9DAF82820DAF82C1003
:10201000324491423444B344CAF82820E9D905F047
:102020000FFC2A68AA4205D0D8F81810926889686F
:10203000914214D389F31188009B9C4223D287F3E9
:10204000118805F00DFCDAF828000028A7D15046C9
:102050000199FFF705FA40B9DAF828009FE70D4823
:1020600005F016FB0C4805F013FB05F0E9FB2B68A7
:10207000074AAB4204D092699B6892689A42EED3B9
:10208000002383F31188204603B0BDE8F08F00BF22
:1020900088B2002000C7000898C5000800000000B2
:1020A0004430FFF765BF00BF0000000000000000E3
:1020B00044304FF0FF33FFF75BBF00BF000000006C
:1020C00070B5202382B004460D46164683F311886E
:1020D00005F0C6FBA36AFBB11D70A36AE26A013377
:1020E0009342A36212D205F0ABFB174B1A689A42D7
:1020F00004D0996993688A689A4204D3002080F3D7
:10210000118802B070BD114805F0C2FAE16920469D
:102110000439FFF75DF9E6E731462046FFF7A0F9FD
:1021200008B9A36AD8E7019005F08AFB064B01982D
:102130001A689A4204D0996993688A689A42E2D3ED
:10214000002383F31188DCE788B2002000C7000871
:102150004430FFF7B5BF00BF0000000000000000E2
:1021600044304FF0FF32FFF7ABBF00BF000000006C
:102170002DE9F04F83B090460193002A6BD00446BE
:102180000E464FF0200989F3118805F069FB3C4F9A
:10219000A16ACDF800900025B946AA46002950D082
:1021A000E36AC5EB080B5B1A9B4528BF9B46BBF156
:1021B000400F23D901F140023346D1F800C0D1F8D5
:1021C00004E08868D1F80CB0C3F80CB0103191422B
:1021D000C3F800C0C3F804E0986003F11003ECD129
:1021E000A36AE26A40339A4206F1400605F14005CF
:1021F000A3620FD82046FFF713F90BE030465A468A
:10220000FEF7A2F8A36AE26A5B449A425D445E4428
:10221000A362EFD905F014FB3B68BB4205D0D9F8A7
:1022200018209B6892689A4212D38AF31188454518
:1022300022D2009B83F3118805F012FBA16A0029CA
:10224000AED120460199FFF733F938B9A16AA7E763
:102250000C4805F01DFA0C4805F01AFA05F0F0FAE2
:102260003B68074ABB4204D092699B6892689A42D5
:10227000EED3002383F31188284603B0BDE8F08F26
:1022800088B2002000C70008C0C500080000000098
:102290000C30FFF76DBF00BF000000000000000021
:1022A0000C304FF0FF33FFF763BF00BF00000000AA
:1022B00030B5202383B004460D4683F3118805F022
:1022C000CFFAA36AEBB113F8015BE26AA36293420F
:1022D00013D205F0B5FA174B1A689A4204D09969DF
:1022E00093688A689A4205D3002383F311882846AD
:1022F00003B030BD104805F0CBF92046FFF790F849
:10230000E7E729462046FFF7D3F808B9A36ADAE7DA
:10231000019005F095FA074B01981A689A4204D08B
:10232000996993688A689A42E4D3002383F31188F9
:10233000DEE700BF88B2002000C7000800000000F0
:102340000C30FFF7B5BF00BF000000000000000028
:102350000C304FF0FF31FFF7ABBF00BF00000000B3
:10236000BE4BBF481A696FEAC2526FEAD2522DE9DA
:1023700080481A611A69C2F308021A614FF0FF34EB
:102380001A695A695C6100215A6959615A691A6A65
:1023900062F080521A621A6A02F080521A621A6A55
:1023A0005A6A5C625A6A59625A6A1A6C42F08052DE
:1023B0001A641A6E42F080521A661A6E026842F46B
:1023C000807202601A6F02F44072B2F5007F87B02B
:1023D00003D04FF480321A671967A14DA1496A688A
:1023E000A14C002022F400726A6003460A4608608D
:1023F0000146E0580C33C02B016002F1080242F89C
:10240000041CF6D199499A4ADFF890A2994B6024AE
:102410004FF0FF364FF480754FF080084FF04009C1
:102420004FF4007C4FF4806E4FF40007966003EB8E
:102430000800D660CAF808600022CAF80C6081F86B
:102440000643C1F88091C1F8009081F80743C1F8B4
:102450008081C1F8008081F80843C1F880510D6087
:1024600081F80943C1F880C1C1F800C081F80A436E
:10247000C1F880E1C1F800E081F81743C1F880712C
:102480000F6081F82843C1F884514D601A605A608A
:10249000083383424FF00001F8D1DFF80482764D13
:1024A0007648C8F8101008F118020123C8F818205F
:1024B000C8F81C2088F800302B70C8F81410C8F831
:1024C0002010C8F82C10C8F82800696005F1200316
:1024D00005F1340243F8041F93424FF000005961A4
:1024E000F8D1674A674B288101214FF0A04611704F
:1024F0006881506002F1200102F13404EE662B671E
:1025000041F8040FA1424FF000034861F8D153494C
:102510005D4F0E6C138146F001060E640E6E538102
:1025200046F001060E66096EBE68584C4F4864605E
:102530004FF0804146F0010E4FF0FF3C42F2CF06D3
:102540004FF6F07BC7F808E0DFF858A18E624FF035
:10255000010EC1F82CC08027C4F824C04FF080566B
:102560008B61DFF84491A36004F1400C4B6324615C
:10257000CB6064614B60A4F838B004F11C0BA3621B
:10258000C1F814E06787C1F800E0C4F81CB080F817
:102590001C73C4F820B0C0F88061C2F86CA006605B
:1025A000C2F870902460C4F83CC0013304EB0312FD
:1025B000802B92F8301035486FF3020182F830100A
:1025C000F3D1334B3349344A0A600026002701F126
:1025D0000C0BCDE9046703F11002142603F1240764
:1025E000DFF8C8E0C1F80CB0C1F810B01A6103F10F
:1025F000280B1C229E615F6203F13C0603F1400739
:10260000DFF8ACC0DFF8ACA0DFF8AC90C3F828B0BE
:102610001A6303F1440B0022DE631F6404264FF0AB
:10262000FF371B605B60C3F844B04A608A604A6150
:102630009A605A61DA6202634263C0F884280192A8
:1026400002920392DE615E63C3F820C0C3F838C013
:10265000CEF800A0CEF8049000972FE0003802409A
:1026600000700040D4A000201CC8000800E100E079
:1026700000600240F09C0020C49F0020DCC80008DD
:102680003CA00020D0C70008002004E088B2002051
:10269000189F00205CA10020B17000080064024077
:1026A00080A500200000044098C9000810BB00204D
:1026B000016B000850BB002000000220684604F0B7
:1026C0007FFB684604F054FB013EF7D19F4BD4F8E2
:1026D00014C0DFF8BCB2DFF8BC92009884F86168DF
:1026E00003F5046280274FF0010E03F66C0103F638
:1026F000680AC4F84878C4F87C78C4F87868C4F8E4
:102700007468C4F85048C4F854C8C4F8840884F8FD
:1027100062E8C4F858B82027CCF810206261A261A2
:1027200084F860E8C4F868A8C4F86C18C4F8701895
:10273000C4F85C9887F3118862B6854A8549D2F857
:102740000CA0DFF8549284484FF6FF0C0AEA0C0CF8
:102750004CEA0101D160D9F80C1041F08071C9F840
:102760000C1001684FF0100C41EA0E01016082F874
:102770001FC082F82270226B0AB95B6B13B17748D5
:1027800004F086FF86F3118862B6754804F0B8FC41
:1027900010B1744804F07CFF714A552393550136FB
:1027A000B6F5B07FDFF8B891F8D1202383F3118814
:1027B00005F056F804F09CFF00236669DFF8DCC1E1
:1027C000C9F8F830012109F58C724FF0020E89F832
:1027D0003931C9F85031C9F84C31C9F8201109F51F
:1027E000A273C9F8541189F83A115F485F4FC9F8CC
:1027F000F4C009F5A07109F1B40A89F838E1C9F803
:102800003001C9F834911046C9F82841C9F824A10B
:10281000C9F82C61C9F814713261C9F84431C9F89A
:102820004831C9F84011626105F05AFD05F008F819
:102830002368464AA34204D092699B6892689A42F0
:1028400051D3002282F31188494E4A4BDFF850E100
:10285000B261304606F28C4940F8043B06F17C0137
:1028600006F5217306F10C0A06F1440CDFF834B1C9
:102870007263B263F2663267C6F83CE001224FF43D
:10288000827EC6F85C904FF002097362B36573658F
:10289000B3663664B667C6F874B07060C6F80CA04C
:1028A000C6F810A03162F1613163C6F844C0C6F8C1
:1028B00048C03272327586F84C20C6F828E0C6F857
:1028C00060E0C6F82C90C6F85090C6F864902023BB
:1028D00083F3118804F0C4FF337A013B012B05D93F
:1028E000254804F0D5FE254804F0D2FE244BC6F856
:1028F0008C346E62AE63AE6286F8089004F0A0FF7E
:102900002368124AA34204D092699B6892689A4253
:1029100019D34FF0000989F31188EA6E194E936BB1
:1029200023F40023936343F6982004F0F1FD202361
:1029300083F3118804F094FF2B785A1E012A33D9AF
:10294000114804F0A5FE114804F0A2FE88B2002050
:1029500000ED00E00003FA05001000E0A4C9000843
:10296000989D002068C70008ACC900082103000832
:10297000F8AD002080C70008B4C700085CC7000895
:10298000DCC70008C49F002074C7000850C70008B7
:10299000F0C7000800040020F0ED00E0A175000879
:1029A000811D0008811E0008C14AC6F80C90012B49
:1029B000C6F81090C6F81490C6F81890C6F81C9087
:1029C000C6F820907260F66E00F0DE8102232B7054
:1029D00004F036FF2368B74AA34205D092699B688A
:1029E00092689A42C0F05082002383F31188EA6E05
:1029F000DFF814A3936BB04D43F40023936341F2CB
:102A0000883004F085FD44F6206004F081FDAB4978
:102A1000AB4805F08DFA41F2883004F079FDA94AFF
:102A2000A94BAA491160C3F800A04026DFF8D8924C
:102A30002946484604F00CFBDAF80430013E1D44F8
:102A4000F4D1A348A34BA44DA44AA549DFF8BCC2C6
:102A50001E6141F2444E00F5807BB24645F80E10EF
:102A60001E7503F1180E03F120061860D8609860F7
:102A7000C3F804B002F59D6002F25C7B1E625E62E8
:102A80006861C3F818E0C3F81CE04B60C1F800901F
:102A9000C1F808C02A606A60C5F818B056464FF4FD
:102AA00000402A68D5F818E08B4B02EBCA020AF105
:102AB000010151600EF80A606A6902EB8A028A46D7
:102AC000BAF19D0F50804FF00001EAD11868854E91
:102AD000DFF83C92DFF83CC2DFF83CE2C3F80CA020
:102AE0004FF0FF3B4FF4006AC0F8E4B44FF09E0B88
:102AF000C3F808A0C3F81C90C3F824C019610A46A3
:102B000083F82C103046C3F820E0C3F828B04FF00B
:102B100003094FF0020C4FF0FF0A16EB020B00F016
:102B2000BC8102F13C0E10EB0E0E00F0B68160325B
:102B3000B2F5165FC3F8F4B0C3F8F890C3F8FC1010
:102B4000C3F800C1C3F80411C3F808E1C3F80C913D
:102B5000C3F81011C3F814C1C3F8181183F81C117D
:102B600083F81DA103F12C03D7D15F4AEE6902F16E
:102B7000C0094FF0000C4FF02A0E4FF0FF304FF01D
:102B8000FF31002E00F0838106F1A8031661D360A7
:102B9000C2F814C0C2F818E0C2E90A0130324A454E
:102BA00006F580764FF00003EBD141F2444241F24A
:102BB0002826A9584D4ADFF864A1137041F2382E37
:102BC0000422AA5145F80E2041F22C2B41F224296F
:102BD00041F2302C41F23C2641F23422444845F87F
:102BE0000B304FF0010E45F809A005F80CE0AB5191
:102BF000A850002900F051813E48DFF824C13E4E24
:102C00003E4A01604FF0FF30CCF800003360D2F84C
:102C100040C0DFF810913A4989F800304CF0080CB8
:102C2000C2F840C0D2F860C0DFF8FCA0354E4CF0CE
:102C3000080CC2F860C0D2F860C0D2F820C04CF0D6
:102C4000080CC2F820C0D2F820C02CF0080CC2F842
:102C500020C04FF0700C126A81F832C34FF480220A
:102C6000C1F884214A60DAF800209362D062506390
:102C70009063D0631064D2F820C000204CEA0E0CA0
:102C80000021C2F820C0C9E902015362C2F814E071
:102C9000C2F800E0D168032041EA0E0CC2F80CC073
:102CA000714681464FF0100E4FF00F0C3EE000BF12
:102CB000C0C7000888B20020C81F0020B4C900089F
:102CC000F8AD0020609F00207CA500204153000843
:102CD00078190020709D0020B04B00207811002052
:102CE0000C9F0020C8250020E04B0020F05D002054
:102CF000649F002078A5002058A1002000380240E1
:102D000000E100E0000002400808002081530008B4
:102D100078A10020F8C80008C8250020484B0020F2
:102D2000B4A00020F89E002018080020042B4FEAD1
:102D30005E0E00F02A811EF0010F4FEA800003F1C1
:102D40000103F3D0726801FA03FA22EA0A02726000
:102D50004FEA430AB26809FA0AFA6FEA0A0A0AEA6B
:102D60000202B260F2680AEA0202F26032680AEA1B
:102D7000020202433260326A4FEA830A0CFA0AFA0C
:102D800022EA0A023262D1E7BD4BBE4A596BDFF834
:102D900044E3BD4841F080015963596D41F0800121
:102DA0005965596D596941F080015961596921F09E
:102DB000800159614FF0E00B08214FF0C00A4FF439
:102DC000502C5B6982F843B3C2F888119160C6F851
:102DD0000CE0C6F80008C6F8009EC6F800A0C6F8C9
:102DE00038C03369002BFCDA012333610C2004F076
:102DF0003FFC3369DB07FCD4122004F039FC336953
:102E0000002BFCDA2B6FE86ED3F808900023B36038
:102E10004FF0FF3C59014218D2F800E9BEF1000F13
:102E200005DAD2F800E94EF0804EC2F800E9D2F897
:102E300000EBBEF1000F05DAD2F800EB4EF0804E49
:102E4000C2F800EB421801334B45C2F808C9C2F87A
:102E500008CBDFD96B68DA684FF001110023C0F8A6
:102E60001C18C6F81038C6F81438C6F81C38002AE2
:102E700000F08880854BB3614FF0FF337361B36816
:102E800043F00103B360A1E5814804F001FC4FF079
:102E9000FF304FF0FF31C2E90A017E487E4905F05C
:102EA00047F8DFF834827D4B7D48C8F80050C8F8F9
:102EB000043004F025F910B17A4804F0E9FB784BAE
:102EC000552103F5AA6203F8011B9342744DFAD30E
:102ED000202383F3118804F0C3FC62697248DFF891
:102EE000FC91C5F81C2500236C214FF0020C4FF01B
:102EF000010E05F5A166C5F81015C5F8441585F84D
:102F00002935C5F84035C5F83C3505F5A66105F20B
:102F1000345305F2A44A85F828C585F82AE5C5F892
:102F20002005C5F82455C5F8E884C5F80475C5F82A
:102F30001845C5F814A5C5F8E49430461661C5F8DF
:102F40003435C5F83835C5F83015666105F0C8F96F
:102F500004F076FC2368554AA34205D092699B6829
:102F600092689A42FFF4BFAC002383F31188504B60
:102F7000484850491E6004F0DBFF42F2107004F034
:102F8000C7FAFAE74C4BB36176E74C4EDFF8509145
:102F9000C6F81080002340F2FF72B375B361B360CE
:102FA000B282202383F3118804F05AFC98F8003091
:102FB0005A1E012A02D9424804F06AFB06F11402A3
:102FC000012BC9F810201ED12D4BD9F828001A6CFE
:102FD000D0F800E0B18A42F000521A641A6E42F052
:102FE00000521A66B2691B6EC368DEF800C08068C2
:102FF00042F0010282400CEA030313434846CEF834
:10300000003004F06DFF022388F8003004F018FC53
:103010002368264AA34204D092699B6892689A4228
:103020002AD3002383F3118841F2442C41F2482330
:1030300041F24C2141F2502841F2542E41F25822E3
:1030400041F25C2B012045F80C60E854DFF894A0B5
:10305000DFF89490DFF894C01A4E1B4B45F801A09E
:1030600045F80890194945F80EC0AE5045F80B30A8
:10307000084804F05DFF14E7154804F009FB00BFA1
:103080000038024000E100E003002002083C30C0AC
:1030900044C70008F8AD0020DCC90008F4C90008E6
:1030A000781A002008C80008F8C9000888B2002073
:1030B000089F002000CA0008003C30C0B8A00020D3
:1030C000E4C700082153000811530008C4C90008D0
:1030D000A8C7000840140040A84B0020E159000890
:1030E00080A50020E1520008415600083153000835
:1030F00000EB81032DE9F041DA68D0F86C80566965
:1031000096E828009D4235D208EB411EB2F810C067
:103110005D1BDEF81839654528BF65469BB2B5EBE7
:10312000830F32D8B76815B34C1C08EB04343B68E6
:103130002360042D07D92B463A46043B52F8040F6E
:103140002060042BF9D896E80C002F441D44AA42B5
:10315000B76075600ED9551BDEF81839654528BF74
:1031600065469BB2B5EB830F0FD8002DDFD1084821
:1031700004F08EFAD8F83438012000FA01F223EA7C
:103180000203C8F83438BDE8F0810020BDE8F081C2
:1031900028CA000800000000000000000000000035
:1031A0002DE9F041C76E07EB41130646D3F8084BF3
:1031B000C3F8084B22070D4603D5D7F814381B0770
:1031C00025D4E20721D5D7F81438DB071DD506EB47
:1031D0008503D9688B6955B94A8A5C68B4FBF2F0FB
:1031E00002FB10421AB91868DA68904215D3728946
:1031F000CC680123AB4022EA030373812CB1304633
:1032000029462346BDE8F0411847BDE8F08100EBB0
:103210008103DB685B689847D3E7121A83E82400D0
:10322000202383F3118804F0BBFA3046294604F0CA
:1032300077FD04F09DFA85F31188BDE8F08100BFA9
:103240002DE9F041C66E06EB41130746D3F8084955
:10325000C3F80849E3070D4603D5D6F81038DA0756
:1032600009D4230605D5D6F834280123AB401342F0
:1032700019D1BDE8F08100EB8103D3F80CE0DEF852
:103280001430D3F800C0DA68944512D30289DEF80E
:1032900008C001238B4022EA03030381BCF1000F25
:1032A000DFD0E047DDE738462946BDE8F041FFF7CB
:1032B0001FBFCCEB02024FF0000883E8040120237B
:1032C00083F3118804F06CFA3846294604F0D0FCE8
:1032D00004F04EFA88F31188C3E700BF0000000035
:1032E0002DE9F047C66E7369B7691F4017F480581F
:1032F0000546776140F04B81002FC0F22C813B05E1
:103300003FD52B6FE86ED3F808C000214FF0FF3493
:103310000CE0D2F800EBBEF1000F19DB03440131E1
:103320008C45C3F80849C3F8084B18D34B01C218A1
:10333000D2F800E9BEF1000FEBDAD2F800E94EF066
:10334000804EC2F800E9D2F800EBBEF1000FE5DADA
:10335000D2F800EB4EF0804EC2F800EBDEE76B686F
:1033600029781B684FF001140522C0F81C4885F825
:1033700068102A7013B128460421984700232B8136
:103380006B81BC040CD5D6F8083813F0060FF3682F
:1033900023F470530CBF43F4105343F4A053F36071
:1033A000380732D4FA0238D4BB0200F1A880FB06F9
:1033B00079D4D6F818483E0311D5E00300F1B58161
:1033C000A10300F1B981620300F1BD81230300F183
:1033D000C181E60200F1C581A00200F15B817903A1
:1033E00011D5E20700F19C81A30700F194816707E2
:1033F00000F17E81260700F18281E00600F18681DE
:10340000A10600F14181BDE8F0876B68DB68002B05
:10341000C8D028469847FA02C6D5D5F86CA0002433
:103420004FF0010906E02B6F01349B68E4B29C4227
:10343000A046B9D80AEB4412D2F8003903F440236D
:10344000B3F5802FEFD1D2F80039002BEBDAD2F8A8
:10345000003943F09043C2F80039D2F80039002B0C
:10346000FBDB4FEA8818EA6E48F02003136113690A
:103470009906FCD4122004F0FBF805EB84032A899A
:10348000D96809FA04F3D1F808C022EA03032B81B2
:10349000BCF1000F02D028462146E04728462146CD
:1034A000FFF726FEBFE7D5F86CE0DEF8203003F426
:1034B000F011B1F5802FC3F30A1203F00F0300F0EF
:1034C000F180B1F5402F7FF474AF05EB8303DB6827
:1034D000186A002A3FF46DAF00210EF5805E0B469E
:1034E00003E0013393423FF464AF9C0708BFDEF86A
:1034F0000010072BF5D80170090A0130F1E7D5F863
:103500006C8000244FF0010906E02B6F01349B68AA
:10351000E4B29C423FF64BAF08EB4412D2F8003BBA
:1035200003F44023B3F5802FEFD1D2F8003B002BFA
:10353000EBDA05EB84036A89D96809FA04F3D1F858
:103540000CC022EA03036B81BCF1000FDDD02846DA
:103550002146E047D9E7D6F8003E9A0705D0D6F8CD
:10356000003E23F00303C6F8003E6A68D6F804382C
:10357000126895F8681023F00103C6F80438297022
:10358000002A3FF4BCAE284605219047B7E6002349
:10359000022120220170A0F8643080F8663080F8A3
:1035A000673003814381C360036143618361C36109
:1035B000036280F84C303261336913F02004FBD190
:1035C000122004F055F8D5F870E0C6F834484FF0F2
:1035D0000112DEF80870C6F81C2823464FF0006080
:1035E0004FF0FF3106EB43120133BB42C2F8000932
:1035F000C2F8000BC2F80819C2F8081BF2D9DEF8AD
:1036000000306B67DEF80020EB6E726210221A61E8
:10361000196911F01004FBD1122004F029F8D6F832
:103620000038286F544ADFF858E123F4FE63C6F8E7
:103630000038B36943F44023092143F010034FF0ED
:10364000C047B361C6F81018C6F81418C5F80CE0E6
:10365000C6F8107BC6F8002BC6F81049C6F800293A
:103660006B6F03F110026A6741688A427ED86A680C
:10367000126843F48013B362002A3FF4C4AE2846B4
:103680002146BDE8F047104728460521BDE8F04730
:10369000FFF7D6BD05212846FFF782FD79037FF5A8
:1036A000B2AE9EE605EB8304E368996991E80801F0
:1036B0008868C8EB030C002A5BD000210EF5805E01
:1036C0000B4613F0030F08BFDEF800109C4502D92B
:1036D0000170090A013001339342F2D1E36899691C
:1036E0008B68D1F80480134442448B604A6060E6E2
:1036F00028460221FFF7A4FD26077FF57EAE284667
:103700000321FFF79DFDE0067FF57AAE28460421F0
:10371000FFF796FD74E628460121FFF791FD66E666
:1037200028460021FFF78CFD5EE600212846FFF7C2
:1037300037FDA1037FF547AE28460121FFF730FD95
:1037400062037FF543AE28460221FFF729FD2303DC
:103750007FF53FAE28460321FFF722FDE6027FF505
:103760003BAE28460421FFF71BFD35E6034803F076
:103770008FFF0346B7E700BF4080001028CB00084A
:10378000BCCA0008000000000000000000000000AB
:1037900010B50D4803F02CFF03F0D2FF0B4B0C4883
:1037A0005968C26F890D01F03D018C05DC6012B1D2
:1037B000D0F88000904703F0ABFF034803F0F8FE19
:1037C000BDE8104003F094BAB0CA0008006402409B
:1037D000D4A0002000000000000000000000000055
:1037E00010B50D4803F004FF03F0AAFF0B4B0C4883
:1037F0005968426F090C01F03D010C04DC600AB10C
:10380000806F904703F084FF034803F0D1FEBDE8CA
:10381000104003F06DBA00BFA4CA00080064024063
:10382000D4A0002000000000000000000000000004
:1038300010B50D4803F0DCFE03F082FF0B4B0C4883
:103840005968C26E890901F03D018C01DC600AB142
:10385000006F904703F05CFF034803F0A9FEBDE84A
:10386000104003F045BA00BF98CA00080064024047
:10387000D4A00020000000000000000000000000B4
:1038800008B50C4803F0B4FE03F05AFF0A4B0B488E
:103890005968426E01F03D01D9600AB1806E9047CF
:1038A00003F036FF034803F083FEBDE8084003F051
:1038B0001FBA00BF8CCA000800640240D4A00020D8
:1038C00010B50D4803F094FE03F03AFF0B4B0C4883
:1038D0001968C26D890D01F03D018C059C600AB12B
:1038E000006E904703F014FF034803F061FEBDE84B
:1038F000104003F0FDB900BF80CA00080064024018
:10390000D4A0002000000000000000000000000023
:1039100010B50D4803F06CFE03F012FF0B4B0C4882
:103920001968426D090C01F03D010C049C600AB15C
:10393000806D904703F0ECFE034803F039FEBDE8CC
:10394000104003F0D5B900BF74CA000800640240FB
:10395000D4A00020000000000000000000000000D3
:1039600010B50D4803F044FE03F0EAFE0B4B0C4883
:103970001968C26C890901F03D018C019C600AB193
:10398000006D904703F0C4FE034803F011FEBDE84C
:10399000104003F0ADB900BF68CA000800640240DF
:1039A000D4A0002000000000000000000000000083
:1039B00008B50C4803F01CFE03F0C2FE0A4B0B488E
:1039C0001968426C01F03D0199600AB1806C904722
:1039D00003F09EFE034803F0EBFDBDE8084003F052
:1039E00087B900BF5CCA000800640240D4A0002070
:1039F00010B50D4803F0FCFD03F0A2FE0B4B0C4884
:103A00005968C26B890D01F03D018C05DC600AB17B
:103A1000006C904703F07CFE034803F0C9FDBDE84D
:103A2000104003F065B900BF50CA000800600240B2
:103A3000D4A00020000000000000000000000000F2
:103A400010B50D4803F0D4FD03F07AFE0B4B0C4883
:103A50005968426B090C01F03D010C04DC600AB1AD
:103A6000806B904703F054FE034803F0A1FDBDE8CE
:103A7000104003F03DB900BF44CA00080060024096
:103A8000D4A00020000000000000000000000000A2
:103A900010B50D4803F0ACFD03F052FE0B4B0C4883
:103AA0005968C26A890901F03D018C01DC600AB1E4
:103AB000006B904703F02CFE034803F079FDBDE84E
:103AC000104003F015B900BF74CB0008006002403D
:103AD000D4A0002000000000000000000000000052
:103AE00008B50C4803F084FD03F02AFE0A4B0B488E
:103AF0005968426A01F03D01D9600AB1806A904775
:103B000003F006FE034803F053FDBDE8084003F050
:103B1000EFB800BF68CB000800600240D4A00020CE
:103B200010B50D4803F064FD03F00AFE0B4B0C4882
:103B30001968C269890D01F03D018C059C600AB1CC
:103B4000006A904703F0E4FD034803F031FDBDE84F
:103B5000104003F0CDB800BF44CB00080060024025
:103B6000D4A00020000000000000000000000000C1
:103B700010B50D4803F03CFD03F0E2FD0B4B0C4883
:103B800019684269090C01F03D010C049C600AB1FE
:103B90008069904703F0BCFD034803F009FDBDE8D0
:103BA000104003F0A5B800BF38CB00080060024009
:103BB000D4A0002000000000000000000000000071
:103BC00010B50D4803F014FD03F0BAFD0B4B0C4883
:103BD0001968C268890901F03D018C019C600AB135
:103BE0000069904703F094FD034803F0E1FCBDE851
:103BF000104003F07DB800BF04CB00080060024015
:103C0000D4A0002000000000000000000000000020
:103C100008B50C4803F0ECFC03F092FD0A4B0B488E
:103C20001968426801F03D0199600AB180689047C7
:103C300003F06EFD034803F0BBFCBDE8084003F051
:103C400057B800BFF8CA000800600240D4A00020A6
:103C500010B51F4803F0CCFC03F072FD1D4B5A69F0
:103C60001C68144004F47C425A61620504D51A4A67
:103C7000136D0BB1506D9847230504D5164A936D0B
:103C80000BB1D06D9847E00404D5134A136E0BB105
:103C9000506E9847A10404D50F4A936E0BB1D06EB5
:103CA0009847620404D50C4A136F0BB1506F9847C4
:103CB000230404D5084A936F0BB1D06F984703F0E3
:103CC00027FD034803F074FCBDE8104003F010B872
:103CD00080CB0008003C0140F09C00200000000068
:103CE00010B51C4803F084FC03F02AFD1A4A5369FE
:103CF00014681C4004F478735361A30604D5174A72
:103D0000936A0BB1D06A9847600604D5134A136BC7
:103D10000BB1506B9847210604D5104A936B0BB139
:103D2000D06B9847E20504D50C4A136C0BB1506C6C
:103D30009847A30504D5094A936C0BB1D06C9847FA
:103D400003F0E6FC034803F033FCBDE8104002F04A
:103D5000CFBF00BF5CCB0008003C0140F09C0020BE
:103D600008B50D4803F044FC03F0EAFC0B4A516926
:103D700013680B4003F01003536123B1084A136A20
:103D80000BB1506A984703F0C3FC034803F010FCE2
:103D9000BDE8084002F0ACBF50CB0008003C014039
:103DA000F09C002000000000000000000000000067
:103DB00008B50D4803F01CFC03F0C2FC0B4A516926
:103DC00013680B4003F00803536123B1084A936959
:103DD0000BB1D069984703F09BFC034803F0E8FB64
:103DE000BDE8084002F084BF1CCB0008003C014045
:103DF000F09C002000000000000000000000000017
:103E000008B50D4803F0F4FB03F09AFC0B4A516926
:103E100013680B4003F00403536123B1084A13698C
:103E20000BB15069984703F073FC034803F0C0FBE3
:103E3000BDE8084002F05CBF10CB0008003C014028
:103E4000F09C0020000000000000000000000000C6
:103E500008B50D4803F0CCFB03F072FC0B4A516926
:103E600013680B4003F00203536123B1084A9368BF
:103E70000BB1D068984703F04BFC034803F098FB64
:103E8000BDE8084002F034BFECCA0008003C014025
:103E9000F09C002000000000000000000000000076
:103EA00008B50D4803F0A4FB03F04AFC0B4A516926
:103EB00013680B4003F00103536123B1084A1368F0
:103EC0000BB15068984703F023FC034803F070FBE4
:103ED000BDE8084002F00CBFE0CA0008003C014009
:103EE000F09C002000000000000000000000000026
:103EF00090F82C30013303EB430300EB03135B68B2
:103F0000DB0703D50B6803330B607047426A0B680D
:103F100013445A789B7843EA02230B60704700BF32
:103F200090F82C30013303EB43031B0130B4C41869
:103F300000256268C552531E63600B6801330B6035
:103F400030BC7047000000000000000000000000CE
:103F500090F82C30013303EB43031B0130B4C41839
:103F600000256268C55282F0010363600B6801336B
:103F70000B6030BC704700BF000000000000000074
:103F800090F82C30013303EB43031B0130B4C41809
:103F900000256268C552534263600B6801330B60B1
:103FA00030BC70470000000000000000000000006E
:103FB00090F82C30013303EB43031B0130B4C418D9
:103FC00000256268C55282EAE273A3EBE273636084
:103FD0000B6801330B6030BC704700BF000000006D
:103FE000426A0B6813445A789B7843EA02230B60B9
:103FF000704700BF0000000000000000000000004B
:104000000B6801330B6070470000000000000000E7
:104010000B6801330B6090F82C30013303EB430342
:104020001B01C1180022C2524A6070470000000004
:1040300090F82C300A6830B40133446A03EB430330
:104040001B0122440025C4185278C55262600B68D7
:1040500002330B6030BC704700000000000000001D
:10406000F0B40A68466A90F82C403244013455781E
:10407000937843EA05239B000733F518F75CEA7849
:104080006B78AE7804EB440442EA0762240142EA0A
:10409000034300250219055343EA062353600B68C6
:1040A00003330B60F0BC704700000000000000000C
:1040B0002DE9F04190F82C30013303EB430300EB82
:1040C000031384B05F6805460E463A46014602ACCB
:1040D000684604F0E5FB3A462946204604F0D0FB4A
:1040E0003268686A8318597851B30139C9B2043209
:1040F00002EB8102DDF804E010444FF6FF7803E0A4
:1041000042450CD083421BD09978DA7893F804C0EA
:104110005F7942EA0122724503F10403F0D195F878
:104120002C3094E80300013303EB430347EA0C27E8
:1041300005EB031585E80300376004B0BDE8F081A6
:104140004FF0FF33336004B0BDE8F08100000000A1
:10415000F0B5426A0B68134487B05A789B78002602
:1041600043EA022303930D460446ADF8086001F0CC
:1041700027FC431C024620D094F82C3004964FF0C4
:10418000FF310591013306A911E9030003EB430355
:104190001B014FF4004E24F803E08DE80300E718FC
:1041A00002AE7A601146204696E80C0004F048FB07
:1041B0002B6803332B6007B0F0BD286007B0F0BD5B
:1041C000F0B590F82C300A680D460133416A03EBD4
:1041D00043030A4400EB0313044693E8030087B04B
:1041E0005778937802AE43EA0723002286E803005B
:1041F00020460593ADF8102001F0E2FB431C024677
:104200001AD094F82C30013396E8030003EB4303F3
:104210001B014FF40047E7528DE80300E61806AB98
:1042200072601146204613E90C0004F009FB2B686C
:1042300003332B6007B0F0BD286007B0F0BD00BFAE
:10424000F0B590F82C300A680D460133416A03EB53
:1042500043030A4400EB0313044693E8030087B0CA
:104260005778937802AE43EA0723002286E80300DA
:1042700020460593ADF8102001F0A2FB431C024636
:104280001BD094F82C3006A9013311E9030003EB8D
:1042900043031B014FF4004E24F803E08DE80300B4
:1042A000E71811467A60204696E80C0004F0C8FA38
:1042B0002B6803332B6007B0F0BD286007B0F0BD5A
:1042C000F0B50B6801330B6090F82C305A1C02EBF0
:1042D000420200EB021204460D4692E8030087B04A
:1042E00003EB430304EB031302AE04AF86E80300C1
:1042F00003F13C00394604F0A3F920B94FF0FF3335
:104300002B6007B0F0BD204601F05AFB431C02466B
:10431000F4D094F82C30013397E8030003EB430307
:104320001B014FF40047E7528DE80300E5181146E2
:104330006A60204696E80C0004F082FA07B0F0BDEF
:1043400070B5044690F82C0000EB400082B004EBFE
:1043500000100E463C30694604F072F978B194F8CA
:104360002C309DE80300013303EB430304EB0314FB
:1043700084E8030033680133336002B070BD4FF04E
:10438000FF33336002B070BD000000000000000089
:10439000F0B50B6801330B60044690F82C00431C09
:1043A00003EB430300EB400083B004EB031304EB87
:1043B000001000250E463C3069465F68ADF800509D
:1043C000019504F03DF978B194F82C30019A01334D
:1043D00003EB43031B01E118D71BB7FA87F77F09EB
:1043E000E5524F6003B0F0BD4FF0FF33336003B0D0
:1043F000F0BD00BF00000000000000000000000051
:10440000F0B50B6801330B60044690F82C00431C98
:1044100003EB430300EB400083B004EB031304EB16
:10442000001000250E463C3069465F68ADF800502C
:10443000019504F005F9B8B194F82C309DED017A9E
:1044400007EE907A013303EB43031B01F4EE477A46
:10445000F1EE10FA04EB03020CBF4FF07E51002185
:10446000E552516003B0F0BD4FF0FF33336003B04D
:10447000F0BD00BF000000000000000000000000D0
:10448000F0B50B6801330B60044690F82C00431C18
:1044900003EB430300EB400083B004EB031304EB96
:1044A000001000250E463C3069465F68ADF80050AC
:1044B000019504F0C5F878B194F82C30019A0133D5
:1044C00003EB43031B01E118D71BB7FA87F77F09FA
:1044D000E5524F6003B0F0BD4FF0FF33336003B0DF
:1044E000F0BD00BF00000000000000000000000060
:1044F000F0B50B6801330B60044690F82C00431CA8
:1045000003EB430300EB400083B004EB031304EB25
:10451000001000250E463C3069465F68ADF800503B
:10452000019504F08DF878B194F82C30019A01339C
:1045300003EB43031B01E118D71BB7FA87F77F0989
:10454000E5524F6003B0F0BD4FF0FF33336003B06E
:10455000F0BD00BF000000000000000000000000EF
:10456000F0B50B6801330B60044690F82C00431C37
:1045700003EB430300EB400083B004EB031304EBB5
:10458000001000250E463C3069465F68ADF80050CB
:10459000019504F055F8B8B194F82C309DED017AEE
:1045A00007EE907A013303EB43031B01F4EEC77A65
:1045B000F1EE10FA04EB0302ACBF4FF07E51002184
:1045C000E552516003B0F0BD4FF0FF33336003B0EC
:1045D000F0BD00BF0000000000000000000000006F
:1045E000F0B50B6801330B60044690F82C00431CB7
:1045F00003EB430300EB400083B004EB031304EB35
:10460000001000250E463C3069465F68ADF800504A
:10461000019504F015F8B8B194F82C309DED017AAD
:1046200007EE907A013303EB43031B01F4EEC77AE4
:10463000F1EE10FA04EB030294BF4FF07E5100211B
:10464000E552516003B0F0BD4FF0FF33336003B06B
:10465000F0BD00BF000000000000000000000000EE
:10466000F0B50B6801330B60044690F82C00431C36
:1046700003EB430300EB400083B004EB031304EBB4
:10468000001000250E463C3069465F68ADF80050CA
:10469000019503F0D5FFB8B194F82C309DED017A67
:1046A00007EE907A013303EB43031B01F4EEC77A64
:1046B000F1EE10FA04EB0302CCBF4FF07E51002163
:1046C000E552516003B0F0BD4FF0FF33336003B0EB
:1046D000F0BD00BF0000000000000000000000006E
:1046E000F0B50B6801330B60044690F82C00431CB6
:1046F00003EB430300EB400083B004EB031304EB34
:10470000001000250E463C3069465F68ADF8005049
:10471000019503F095FFB8B194F82C309DED017A26
:1047200007EE907A013303EB43031B01F4EEC77AE3
:10473000F1EE10FA04EB03024CBF4FF07E51002162
:10474000E552516003B0F0BD4FF0FF33336003B06A
:10475000F0BD00BF000000000000000000000000ED
:10476000F0B50B6801330B60044690F82C00431C35
:1047700003EB430300EB400083B004EB031304EBB3
:10478000001000250E463C3069465F68ADF80050C9
:10479000019503F055FF80B194F82C30019A013354
:1047A00003EB43031B01BA4204EB0301CCBF002718
:1047B0000127E5524F6003B0F0BD4FF0FF33336087
:1047C00003B0F0BD00000000000000000000000089
:1047D000F0B50B6801330B60044690F82C00431CC5
:1047E00003EB430300EB400083B004EB031304EB43
:1047F000001000250E463C3069465F68ADF8005059
:10480000019503F01DFF80B194F82C30019A01331B
:1048100003EB43031B01BA4204EB0301B4BF0027BF
:104820000127E5524F6003B0F0BD4FF0FF33336016
:1048300003B0F0BD00000000000000000000000018
:10484000F0B50B6801330B60044690F82C00431C54
:1048500003EB430300EB400083B004EB031304EBD2
:10486000001000250E463C3069465F68ADF80050E8
:10487000019503F0E5FE80B194F82C30019A0133E4
:1048800003EB43031B01BA4204EB0301ACBF002757
:104890000127E5524F6003B0F0BD4FF0FF333360A6
:1048A00003B0F0BD000000000000000000000000A8
:1048B000F0B50B6801330B60044690F82C00431CE4
:1048C00003EB430300EB400083B004EB031304EB62
:1048D000001000250E463C3069465F68ADF8005078
:1048E000019503F0ADFE80B194F82C30019A0133AC
:1048F00003EB43031B01BA4204EB0301D4BF0027BF
:104900000127E5524F6003B0F0BD4FF0FF33336035
:1049100003B0F0BD00000000000000000000000037
:10492000F0B50B6801330B60044690F82C00431C73
:1049300003EB430300EB400083B004EB031304EBF1
:10494000001000250E463C3069465F68ADF8005007
:10495000019503F075FE80B194F82C30019A013373
:1049600003EB43031B01BA4204EB03018CBF002796
:104970000127E5524F6003B0F0BD4FF0FF333360C5
:1049800003B0F0BD000000000000000000000000C7
:10499000F0B50B6801330B60044690F82C00431C03
:1049A00003EB430300EB400083B004EB031304EB81
:1049B000001000250E463C3069465F68ADF8005097
:1049C000019503F03DFE80B194F82C30019A01333B
:1049D00003EB43031B01BA4204EB030134BF00277E
:1049E0000127E5524F6003B0F0BD4FF0FF33336055
:1049F00003B0F0BD00000000000000000000000057
:104A0000F0B50B6801330B60044690F82C00431C92
:104A100003EB430300EB400083B004EB031304EB10
:104A2000001000250E463C3069465F68ADF8005026
:104A3000019503F005FE80B194F82C30019A013302
:104A400003EB43031B01BA4204EB03012CBF002715
:104A50000127E5524F6003B0F0BD4FF0FF333360E4
:104A600003B0F0BD000000000000000000000000E6
:104A7000F0B50B6801330B60044690F82C00431C22
:104A800003EB430300EB400083B004EB031304EBA0
:104A9000001000250E463C3069465F68ADF80050B6
:104AA000019503F0CDFD80B194F82C30019A0133CB
:104AB00003EB43031B01BA4204EB030194BF00273D
:104AC0000127E5524F6003B0F0BD4FF0FF33336074
:104AD00003B0F0BD00000000000000000000000076
:104AE000F0B50B6801330B60044690F82C00431CB2
:104AF00003EB430300EB400083B004EB031304EB30
:104B0000001000250E463C3069465F68ADF8005045
:104B1000019503F095FD88B194F82C30DDED017A14
:104B200007EE107A013303EB43031B0177EEC77ADC
:104B3000E118E552C1ED017A03B0F0BD4FF0FF334B
:104B4000336003B0F0BD00BF0000000000000000B3
:104B5000F0B50B6801330B60044690F82C00431C41
:104B600003EB430300EB400083B004EB031304EBBF
:104B7000001000250E463C3069465F68ADF80050D5
:104B8000019503F05DFD88B194F82C309DED017A1C
:104B900007EE907A013303EB43031B0167EE877A3C
:104BA000E218E552C2ED017A03B0F0BD4FF0FF33D9
:104BB000336003B0F0BD00BF000000000000000043
:104BC000F0B50B6801330B60044690F82C00431CD1
:104BD00003EB430300EB400083B004EB031304EB4F
:104BE000001000250E463C3069465F68ADF8005065
:104BF000019503F025FD88B194F82C309DED017AE4
:104C000007EE907A013303EB43031B0177EE877ABB
:104C1000E218E552C2ED017A03B0F0BD4FF0FF3368
:104C2000336003B0F0BD00BF0000000000000000D2
:104C3000F0B50B6801330B60044690F82C00431C60
:104C400003EB430300EB400083B004EB031304EBDE
:104C5000001000250E463C3069465F68ADF80050F4
:104C6000019503F0EDFC60B194F82C30019A01330A
:104C700003EB43031B01E118D71BE5524F6003B060
:104C8000F0BD4FF0FF33336003B0F0BD0000000013
:104C9000F0B50B6801330B60044690F82C00431C00
:104CA00003EB430300EB400083B004EB031304EB7E
:104CB000001000250E463C3069465F68ADF8005094
:104CC000019503F0BDFC68B194F82C30019A0133D2
:104CD00003EB43031B01E11802FB07F7E5524F60AA
:104CE00003B0F0BD4FF0FF33336003B0F0BD00BF41
:104CF000F0B50B6801330B60044690F82C00431CA0
:104D000003EB430300EB400083B004EB031304EB1D
:104D1000001000250E463C3069465F68ADF8005033
:104D2000019503F08DFC60B194F82C30019A0133A9
:104D300003EB43031B01E1181744E5524F6003B036
:104D4000F0BD4FF0FF33336003B0F0BD0000000052
:104D5000F0B50B6801330B60044690F82C00431C3F
:104D600003EB430300EB400083B004EB031304EBBD
:104D7000001000250E463C3069465F68ADF80050D3
:104D8000019503F05DFC60B194F82C30019A013379
:104D900003EB43031B01E118D71BE5524F6003B03F
:104DA000F0BD4FF0FF33336003B0F0BD00000000F2
:104DB000F0B50B6801330B60044690F82C00431CDF
:104DC00003EB430300EB400083B004EB031304EB5D
:104DD000001000250E463C3069465F68ADF8005073
:104DE000019503F02DFC68B194F82C30019A013341
:104DF00003EB43031B01E11802FB07F7E5524F6089
:104E000003B0F0BD4FF0FF33336003B0F0BD00BF1F
:104E1000F0B50B6801330B60044690F82C00431C7E
:104E200003EB430300EB400083B004EB031304EBFC
:104E3000001000250E463C3069465F68ADF8005012
:104E4000019503F0FDFB60B194F82C30019A013319
:104E500003EB43031B01E1181744E5524F6003B015
:104E6000F0BD4FF0FF33336003B0F0BD0000000031
:104E70002DE9F04F054690F82C00431C89B003EB58
:104E8000430300EB400002AC05EB031305EB0010FD
:104E900000220E463C302146D3F80480ADF80820AD
:104EA000039203F0CDFB28B94FF0FF33336009B014
:104EB000BDE8F08F04A82946424606AF03F0F0FC97
:104EC00042463846294603F0DBFC3268686A931C88
:104ED0000132DBB210F802E002EB8E0E9E45E3DBFE
:104EE000DDF814C04FF6FF7A03E052450FD073454A
:104EF000DADCC11810F803B04A7891F8028091F812
:104F0000039042EA0B2204336245DBB2EDD128461E
:104F100000F056FD431C0246C6D095F82C300133F4
:104F200097E8030003EB43031B014FF4004E25F801
:104F300003E08DE80300EF1811467A60284694E8F4
:104F40000C0003F07DFC49EA08233360AFE700BFA3
:104F5000F0B5044690F82C00431C03EB430300EB30
:104F6000400083B004EB031304EB001000220F4653
:104F70003C3069465E68ADF80020019203F060FBAA
:104F8000D8B194F82C309DE80300013303EB4303C0
:104F900004EB031383E80300F30704D53B680333F2
:104FA0003B6003B0F0BD626A3B6813445A789B785B
:104FB00043EA02233B6003B0F0BD4FF0FF333B6098
:104FC00003B0F0BD00000000000000000000000081
:104FD00010B590F82C3003EB430382B000EB0310C4
:104FE0000C4600233C306946ADF80030019303F0D5
:104FF00027FB18B1019B236002B010BD4FF0FF33B7
:10500000236002B010BD00BF0000000000000000DF
:10501000F0B50B6801330B6090F82C305A1C02EB92
:10502000420200EB021204460D4692E8030087B0EC
:1050300003EB430304EB031302AE04AF86E8030063
:10504000002203F13C003946ADF81020059203F030
:10505000F7FA20B94FF0FF332B6007B0F0BD2046C0
:1050600000F0AEFC431C0246F4D094F82C3001331F
:1050700096E8030003EB43031B014FF40046E6529E
:105080008DE80300E51811466A60204697E80C0099
:1050900003F0D6FB07B0F0BD0000000000000000E8
:1050A00030B590F82C305A1C02EB420200EB021291
:1050B00004460D4692E8030083B08DE8030003EB3D
:1050C000430304EB03103C309DE8060003F0D0FAE4
:1050D00070B194F82C30013303EB43031B01E1184A
:1050E0000022E2524A602B6801332B6003B030BDCE
:1050F0004FF0FF332B6003B030BD00BF0000000055
:1051000070B50B6890F82C20456A82B0DE1C02EB6B
:1051100042020C46002101962B4400EB0210009144
:1051200002AA12E906003C305E789D7803F0A0FAEE
:1051300020B145EA0625256002B070BD4FF0FF336F
:10514000236002B070BD00BF00000000000000003E
:105150002DE9F047044690F82C00431C8CB003EB7B
:10516000430300EB400002AD04EB031304EB00101B
:1051700000260F463C302946D3F80480ADF808607D
:10518000039603F05DFA28B94FF0FF333B600CB093
:10519000BDE8F0870DF1100942464846214603F06C
:1051A0007FFB424606A82146DDF814A003F068FB09
:1051B000DDF81C80B8F1FF3F37D099E803000DF10E
:1051C000200A8AE80300204600F0FAFBB0F1FF3F16
:1051D0008146D9D095E803009AE80C008DE80300D9
:1051E0002046494603F02CFB94F82C300A960133F4
:1051F00003EB43031B01E2184FF40041E152C2F8F4
:1052000004903B6894F82C00013300EB40000B93B2
:1052100004EB00100CAB13E906003C3003F028FA55
:105220000028B1D0C7F80080B1E794F82C300A9676
:1052300095E803005A1C02EB420204EB021282E8DA
:1052400003003A6803EB4303013204EB03100B92B3
:105250000CAB13E906003C3003F00AFA002814BF37
:1052600053464FF0FF333B6091E700BF0000000062
:1052700010B590F82C3003440446002283F8F02047
:1052800003F02EFA94F8F01094F8F13094F8F2202C
:105290000B43134306D194F8F3301BB941F2484352
:1052A0000122E25410BD00BF000000000000000019
:1052B000022906D0032906D00129064818BF00207C
:1052C000704705487047032A9ABF044B03EBC2009E
:1052D00000207047B4CC0008DCCC000878CC000873
:1052E0000368DB6872B1012A0B700BD9180A022A15
:1052F000487007D0032A4FEA134018BF1B0E88706E
:1053000018BFCB701046704700000000000000007E
:1053100001207047000000000000000000000000B5
:1053200001207047000000000000000000000000A5
:105330000020704700000000000000000000000096
:10534000F8B50B4C4FF4006507460E462A4620463A
:10535000002103F0BDFB29463A462046334603F0C0
:105360003FFC224603480449BDE8F84002F0E0BD96
:10537000D8A50020F8AD0020E4CC00080000000013
:1053800082B02DE9F041046806A9074681E80C00C7
:1053900002F0AEF9002C43D02668002E32D03368DC
:1053A000236006AC0FCC35460FC594E803007C683B
:1053B00085E8030002F09CF9002C3BD0237D002BF4
:1053C00031D102F095F9D4F80080656802F090F9C7
:1053D0002369C8EB0502B3EBA20F24D0A268131D0A
:1053E000A3601660AB42236928BFC4F8088001336C
:1053F000236104F1200002F05BFD0020BDE8F041D4
:1054000002B07047E368002BF7D06068A168984746
:10541000A368013B1842064602D10028EDD0C0E740
:10542000064802F035F93868314601F011FE4FF0B8
:10543000FF30E3E7024802F02BF900BF98CC0008E8
:10544000BCCE0008000000000000000000000000CA
:105450000FB400B5064B1B6883B023B105AA1146F3
:1054600004980192984703B05DF804EB04B07047CC
:10547000609F00200000000000000000000000000D
:1054800030B5202383B083F31188254C02F088F9CE
:10549000D4F88C2413681978042906D002F068F92E
:1054A000002383F3118803B030BD217A0229F5D19E
:1054B00011791A8901238B401342EFD102F018F9B8
:1054C000636DA26D9342E9D1226D002AE6D0E26EAF
:1054D000002AE3D0043AD21AE0D01A60226EE06DBE
:1054E000216D0F4D13448342636501F1FF3128BFE5
:1054F000A36E216528BF636505F14400002301A95F
:10550000E366FCF745FC024638B1D5F88C14019BE4
:1055100008680979FBF7F4FFC0E7024802F0B8F821
:10552000F8AD0020A8CC000800000000000000003A
:1055300038B5052916D8DFE801F05015165050038C
:10554000202383F3118802F02BF93348012101F065
:10555000FFFC324B00241C7583F84C4002F008F924
:1055600084F3118838BD0546202383F3118802F0A7
:1055700017F92B4C2B4A28460121FCF7B9FA0221D6
:10558000294A2846FCF7B4FA002502F0B1F8236B4B
:10559000236204F10C00E361A5616563A56302F079
:1055A0005FFC257502F0A4F8A36E626E2265A36508
:1055B000636504F14400E566256702F051FC0121B2
:1055C000201D84F84C5001F0C3FC2046FCF768FB1A
:1055D00002F0CEF885F3118838BD202383F31188BB
:1055E0000F4C02F0DDF8237D13B194F84C306BB909
:1055F0000948022101F0ACFC01250C48257502F098
:105600002FFC0B4884F84C5002F02AFC02F0B0F852
:10561000002383F3118838BDFCAD0020F8AD0020D5
:10562000F8AD002098CE0008ECCB000804AE0020B6
:105630003CAE002000000000000000000000000060
:10564000012A38B503680FD918694D7803780978AD
:10565000022B144602D0054802F01AF841EA05214F
:1056600002F03EFC204638BD002038BD88CE000840
:10567000F0B531488BB001F0BBFF02F061F82F4B61
:105680001B681A69D2071FD51C69DA682C492D4896
:105690002240D2B2D2431A610A68047801320A6009
:1056A00044B10A68C468866800250021A94208BF81
:1056B000A2423BD002F02CF81F4801F079FF0BB05A
:1056C000BDE8F04001F014BB1869DA681C490240DB
:1056D000D2B2D2431A61DA68FF2022F00202DA6005
:1056E00004900A685C6A08688242FAD1002646EA99
:1056F00004001146144B06930596CDE908012023BA
:1057000083F3118802F04CF80AAB13E90F008DE81F
:105710000F000E4B186804AB81680CCB884702F071
:1057200027F886F31188074B1E70C3E75E63DA68BB
:1057300042F00202DA60BDE7BCCC00081808002085
:10574000B4A00020F89E0020EFBEADDE78A50020BA
:105750002DE9F04F8568002D87B0844640F3B48072
:10576000012D0C4600F0A38005680FCD0FC495E80D
:10577000030084E80300DCF80840DCF8005004EB88
:10578000440405EBC404183C0FCC0FC594E8030097
:1057900085E80300DCF80860013ECCF808600023CF
:1057A0005A00541CA64202F1020E18DDDCF800502B
:1057B0009CF80C7004EB4408D11805EBC80805EB05
:1057C000C101002F68D1D1E90201D8E902AB8B45B4
:1057D00008BF824534BF01210021002944D176450C
:1057E00055DDDCF800509CF80C7002EB03080EEB62
:1057F0004E0105EBC8081C4605EBC101002F3BD14B
:10580000D1E90267D8E902018F4208BF864234BF5E
:1058100001210021002918BF7446A34237D0134448
:1058200005EBC307B946B9E80F00E846A8E80F0042
:1058300004EB440699E8030005EBC605AE4688E88C
:105840000300BEE80F003E460FC69EE803006E460A
:1058500089E803000FCE0FC598E803008EE8030027
:105860002346DCF808609BE77645D6DD0EEB4E015B
:1058700005EBC101002FC3D0D1E90467D8E90401C9
:105880008F4208BF864234BF01210021C2E70125B3
:10589000284607B0BDE8F08FD1E90401D8E904AB90
:1058A0008B4508BF824534BF0121002195E706687A
:1058B000002383600FCE0FC496E8030084E8030042
:1058C000284607B0BDE8F08F4FF0FF35E0E700BF96
:1058D00082B02DE9F04387B00EA981E80C008668FC
:1058E00043689E42054661D08E46BEE80F002C6894
:1058F000770007EB060C04EBCC0406F1010CC5F8AD
:1059000008C00FC49EE8030084E803004EBB47E0D4
:10591000D7E90223D6E90201994208BF904234BF79
:1059200001230023EE46B146E846BC46002B37D0A3
:105930000FCEAEE80F0096E803008EE803000FCF0D
:10594000A9E80F0097E8030086E80300B8E80F0015
:10595000ACE80F009EE80300264687E80300FCB190
:105960006700741E04EBD4742B682A7B64103E44D9
:1059700004EB440703EBC70703EBC606002AC7D0B6
:10598000D7E90423D6E90401994208BF904234BF05
:1059900001230023EE46B146E846BC46002BC7D1A2
:1059A000012007B0BDE8F04302B070474FF0FF3070
:1059B000F7E700BF0000000000000000000000004A
:1059C00010B5044602F004FF431C00D010BD204671
:1059D00002F0CEFD2046BDE8104002F0F9BE00BF47
:1059E0002DE9F04FDFF8CC820468D8F8183042680F
:1059F0009A6195B021469E48FFF72AFD0026616A0C
:105A000084F8F06084F8F16084F8F26084F8F36060
:105A10004B780F78CA788D7896481B0443EA076361
:105A2000134343EA05252946FFF712FD924B9D4299
:105A300002D015B0BDE8F08F656A90486A79AB79FD
:105A400043EA02239B00EA1803F10901D379127A91
:105A500042EA03230B44EA18ED5C5278268642EAB8
:105A6000052503EB850341F248429D1D0123A563F3
:105A7000666384F82C603146A65484F8F030FFF752
:105A8000E7FC94F82C307E4803EB430304EB03134C
:105A9000996BFFF7DDFC94F82C307A48013303EB67
:105AA000430304EB03135968FFF7D2FC636A76489B
:105AB000595DFFF7CDFC7548FFF7CAFC74482146D5
:105AC000FFF7C6FC734B744A1D681368686A116857
:105AD0008B42FAD1002646EA000204F5A257C4E937
