:1000000060460020DD690000591702000D6A0000FB
:100010000D6A00000D6A00000D6A0000000000007B
:100020000000000000000000000000003567000034
:100030000D6A000000000000E1660000A905020052
:100040009D690000F19901009D6900009D69000013
:100050009D6900009D6900009D6900009D69000088
:100060009D6900009D6900009D6900009D69000078
:100070009D6900009D6900009D6900009D69000068
:100080009D6900009D6900009D6900009D69000058
:100090009D6900009D6900009D6900009D69000048
:1000A0009D6900009D6900009D6900009D69000038
:1000B0009D6900009D6900009D6900009D69000028
:1000C0009D6900009D6900009D6900009D69000018
:1000D0009D6900009D6900009D6900009D69000008
:1000E0009D6900009D6900009D6900009D690000F8
:1000F0009D6900009D6900009D6900009D690000E8
:1001000053B94AB9002908BF00281CBF4FF0FF317E
:100110004FF0FF3000F06EB9ADF1080C6DE904CE80
:1001200000F006F8DDF804E0DDE9022304B07047D2
:100130002DE9F047089D0E4604468C46002B40F002
:1001400081808A42174645D9B2FA82F24AB1C2F199
:10015000200106FA02F320FA01F1974041EA030C6C
:1001600094404FEA174E230CBCFBFEF6B9B20EFBCF
:1001700016CC43EA0C4306FB01F0984209D9FB1860
:1001800006F1FF3C80F01581984240F21281023E58
:100190003B441B1AA4B2B3FBFEF00EFB103344EA3F
:1001A000034400FB01F1A14209D93C1900F1FF33DE
:1001B00080F00181A14240F2FE8002383C44641A82
:1001C00040EA064000211DB1D4400023C5E90043A8
:1001D000BDE8F08702B9FFDEB2FA82F2002A4FD101
:1001E000CB1B4FEA174E1FFA87F80121B3FBFEFC29
:1001F000260C0EFB1C3346EA034608FB0CF3B34205
:1002000007D9BE190CF1FF3002D2B34200F2EB80E5
:100210008446F61AA3B2B6FBFEF00EFB106643EA64
:10022000064408FB00F8A04507D93C1900F1FF334C
:1002300002D2A04500F2D2801846A4EB080440EA9E
:100240000C40C0E78B4208D9002D00F0AF800021A0
:10025000C5E900060846BDE8F087B3FA83F1002936
:1002600049D1B34202D3824200F2BB80841A66EBCA
:10027000030301209C46002DAAD0C5E9004CA7E746
:10028000C2F120039740D8409140DE404FEA174E1C
:1002900008434FEA104CB6FBFEF11FFA87F80EFB3D
:1002A00011664CEA064601FB08F3B34204FA02F475
:1002B00009D9BE1901F1FF3C80F08E80B34240F2B3
:1002C0008B8002393E44F31A86B2B3FBFEF00EFB7C
:1002D000103346EA034600FB08F3B34207D9BE19C0
:1002E00000F1FF3C74D2B34272D902383E44F31A93
:1002F00040EA01417AE7C1F1200703FA01F422FA4A
:1003000007F31C4320FA07F906FA01F34FEA144CED
:10031000FE4049EA03094FEA1943B6FBFCFE1FFA07
:1003200084F80CFB1E6643EA06460EFB08FAB2454B
:1003300002FA01F200FA01F308D9A6190EF1FF3012
:1003400048D2B24546D9AEF1020E2644A6EB0A06C3
:100350001FFA89F9B6FBFCF00CFB106649EA064669
:1003600000FB08F8B04507D9A61900F1FF3C2DD2D3
:10037000B0452BD90238264440EA0E40A6EB0806C9
:10038000A0FB02894E45C446CE4618D315D075B39E
:10039000B3EB0C0266EB0E0606FA07F722FA01F33E
:1003A000CE401F43C5E90076002111E729462846C3
:1003B0000EE76646EDE6184601E74345E7D2B8EB9F
:1003C000020C69EB04040138A646E0E76046D3E777
:1003D00060468CE78646B9E7614674E702383C44DC
:1003E0002BE7084647E7ACF1020C3E4411E72946EB
:1003F000EEE600BF704700BFF0B5454DD5F81C31A3
:10040000996811F0010189B021D103AA40F6034097
:1004100007F06EFF0446002876D1039B9B681B788B
:1004200093B93C4A136005F19403184621F01CFB74
:10043000BFF35B8F00F0050053E8002F43E8000195
:100440000029F9D1BFF35B8F03981CF067FE03AA64
:10045000002141F2030007F04BFF0446002853D16E
:10046000039B2D4899680822013121F0BCF90398BB
:100470001CF054FE214603AA41F2010007F038FFA8
:100480000446002840D1039883685A7885F83420C0
:10049000D9789A7842EA0122EA861A7985F83520D5
:1004A000197ADA7942EA01222A875A799B7942EA53
:1004B00003236B871CF032FE214603AA41F202009F
:1004C00007F016FF0446F8B9039B144899684022C8
:1004D000013121F088F995F86630039843F006035E
:1004E00085F866301CF01AFE95F840305B061DD486
:1004F0000B4B0C490C48C91AC908890141F001018C
:100500001FF0BDFC6FF01204204609B0F0BD00BF23
:1005100000000020801300203C0000204400002048
:10052000D84F0200C0500200927C0200214603AA6C
:1005300042F2030007F0DCFE04460028E4D1039BEE
:10054000A54899680822013121F04DF903981CF063
:10055000E5FD214603AA42F2020007F0C9FE044667
:100560000028D1D1039B9B68B3F80120A5F8C420D3
:1005700091B221B1DA789948114624F067F90398CD
:100580001CF0CCFD95F8406016F0200600F0FF80CE
:1005900095F860301F0711D503AA002142F21C0014
:1005A00007F0A6FE04460028AED10398836853F8EE
:1005B000012F5B68C5E928231CF0B0FD95F8983041
:1005C0009E0624D502A90DF1060007F009FF044696
:1005D000002899D1042142F2240007F02DFD06469F
:1005E000002800F0DB800421083023F025FDBDF851
:1005F00006300380BDF8083043802246314642F27F
:10060000240007F075FE044600287FF47DAF95F8BE
:1006100098305C0610D503AA002142F22A0007F0A8
:1006200067FE044600287FF46FAF039883685B7809
:1006300085F8E0301CF072FD082142F2010007F05D
:10064000FBFC0446002800F0A9800821084423F0A0
:10065000F3FC95F8981011F0400F024640F2022387
:1006600008BF032388074CBF43F02C0043F00C0065
:1006700095F899308F0648BF40F0400013F0090FFD
:1006800095F8663018BF40F4006003F00603CE070B
:1006900048BF40F01000062B08BF40F4C070002196
:1006A00021F028FA2146002242F2010007F020FE44
:1006B000044600287FF428AF95F8403098061ED4F1
:1006C000B5F8C410D9B903AA41F2050007F010FE2D
:1006D000044600287FF418AFB5F8C43063B9039B13
:1006E0009B685A78997842EA0122A5F8C4209A8832
:1006F0003A48114624F0AAF803981CF00FFD08218F
:1007000040F6014007F098FC0446002846D0082136
:10071000084423F091FC95F89830D907024652D549
:100720002BA1D1E9000121F0E5F92146002240F694
:10073000014007F0DDFD044600287FF4E5AE0146E8
:1007400002AA4FF6014007F0D3FD254E254BF61ABD
:10075000F608B60100284DD0234846F002011FF0EC
:100760008EFBEB79002B7FF4CFAE08F0F9FDEB792F
:10077000002B7FF4C9AE08F09DFE0446002800F06F
:10078000A6801A4846F001011FF079FBBCE6022161
:1007900040F66D4007F050FC044610B96FF0360487
:1007A000B2E60221083023F047FC012303704670B3
:1007B0002146324640F66D4007F09AFD0446002877
:1007C0003FF4E6AEA0E60A484FF00051ABE700BFA9
:1007D000908800020080002098000020C8000020BF
:1007E000C0500200D84F0200B67C02008A7D020091
:1007F00010880002029B3B489F68B7F80120032A3B
:1008000096BF3949394951F8221046F003031FF0C9
:1008100057FBB7F80110B7F80320022946F003038D
:100820002ED1032A2CD8324951F8221031481FF01A
:1008300047FB7A793048032A96BF30492B4951F853
:100840002210CDE90312BA790592B7F80720069273
:10085000D7F80920079246F00303052203A91FF0E9
:1008600064FB02981CF05AFC02AA00214FF60240D9
:1008700007F03EFD074628B1214846F002016EE729
:100880001A49D3E7029B1F4899680222013120F0E0
:10089000AAFF02981CF042FC95F885305B077FF5B3
:1008A00060AF02AA39464FF6034007F021FD18B1A8
:1008B000154846F0020152E7029B1448996801224C
:1008C000114420F090FF02981CF028FC49E71048E2
:1008D00007F0B0FD044600283FF416AE0D4846F080
:1008E000010151E7DA7C0200E85502009975020027
:1008F000A8550200F37C02000B7D02002056020086
:10090000387D020085000020617D02008400002007
:1009100001000020A97D02002DE9F041D0E90BC7BC
:10092000D0F828800CEB07043034A0450E4615465D
:1009300018D81B4F18A3D3E90023ACFB0701FFF71E
:10094000DFFBA4EB080420F07F40306012A3D3E962
:100950000023A4FB0701FFF7D3FB20F07F402860B2
:10096000BDE8F0810E4C0CA3D3E90023A8FB0401E1
:10097000FFF7C6FB20F07F4307F130003360A0FB98
:10098000040105A3D3E90023FFF7BAFB20F07F4061
:100990002860BDE8F08100BF8D49FD1A0700000006
:1009A00000CA9A3B000000002DE9F04FA94C94F8D2
:1009B0004E608FB006F00106002800F05581B6BBEE
:1009C00094F8392094F82D3094F8290004EB820231
:1009D00004EB830300F00300FF21D2F83C80D3F83E
:1009E000309084F82A1018F0D5F994F84E00420798
:1009F00000F11481B9F1000F11D09648494613F067
:100A00006FFF99F800305B0605D506210EF004FE55
:100A1000002800F046828F48414613F061FF99F8A4
:100A2000003013F00E0F40F0CF80636A23B10C2624
:100A300030460FB0BDE8F08F13F0EEF88246002884
:100A400000F04C8213F0F4F88346002800F05F8237
:100A500014F064FC0546002800F056824FF6FF7340
:100A6000806FAB8505F11C030B93002800F03282E8
:100A700005F16C0205F168010EF0DAFDB5F86420AD
:100A8000754895F83D1095F8DC7095F840C0734BAB
:100A90002B66024042F4887295F82601C5F830A111
:100AA00042F0010201F03F0127F0030E61F07F01E7
:100AB0000027A5F864204FF01B1220F0030085F8F2
:100AC0003D1067F3000C0621EA65654A85F8DCE015
:100AD00085F840C085F82601A5F8C410C5F81C218A
:100AE000C5E9137785F83F706F866F636F65A5F86A
:100AF000C870A5F8CC70A5F8E87085F8EA70C5F85C
:100B00000071A5F80471A5F81871C5F82071A5F851
:100B1000247185F82F71AF67A5F87C7095F872C1C4
:100B200095F89A0195F87E1095F85221A5F8507124
:100B300067F3041C21F01F0122F0070267F3C300D2
:100B400085F872C185F87E1085F85221A5F870717C
:100B5000A5F89871A5F8A47185F89A0114F0F4FE2F
:100B6000A5F8D60014F0F6FED5F8A8113D4AA5F870
:100B7000D8000A40C5F8A82114F0F2FE95F8AC217F
:100B800060F3020285F8AC2114F0F0FEC4E911AB69
:100B90000B9B636295F8AC2195F82030C5F8C071C5
:100BA00060F3C50267F30003C5E96E77C5E96C77AA
:100BB000C5E90577ED6185F8AC2185F8203019F09D
:100BC00031FB002840F06F8194F828300121C3F3F5
:100BD00042030DA88DF834300EF0A2FE90B399F8C0
:100BE000003003F00F03022B00F1FF3200F0A18070
:100BF000012B00F05C8198F801001030C000002B40
:100C000040F0478199F801301033DB0003F54D7156
:100C1000084403F59A7303FB020095E0C0F3C0009B
:100C2000324604F14F0118F031FAFF2884F82A0007
:100C30003FF4E0AE304618F0F3F8B9F1000F7FF45E
:100C4000DCAEECE6636A002B3FF4F1AE13F0DAFBA6
:100C5000EDE600BF7C1E002080F8FFFF4801480140
:100C6000FF4901000000FFF6002E3FF4E0AE2046F1
:100C700013F088F884420CD0AF4AB049B04840F233
:100C80007D731EF038FD404080F311884FF0030063
:100C900002DF94F82830D9070DAD0ED502220D924F
:100CA0000321A84B00950122002010F04FF929469E
:100CB00013F040F8002840F02F8102220321A14BBD
:100CC000009500200D9210F041F9294613F032F8FA
:100CD000002840F005819C4813F090F8002840F06F
:100CE000EB809A4813F05AF884420CD0924A934908
:100CF000934840F29F731EF0FEFC404080F3118841
:100D00004FF0030002DF636A0BB113F07BFB94F832
:100D10004E3000206FF3000384F84E3013F000FFD4
:100D20000646002800F08280002630460FB0BDE85D
:100D3000F08F99F801301033DB0000FB03F000F571
:100D4000AA70642303FB020094F82070804AE461D7
:100D50000025312365F30007A0FB0201236084F81E
:100D6000207073A3D3E90023C4E90555C4E90155F4
:100D7000FFF7C6F9B4F84C80E06010F08BF9074635
:100D8000B8F1000F08D199F8005005F00F05A5F152
:100D90000105B5FA85F56D0994F82820E36865F337
:100DA000000212F0010584F8282042D0DFF8949167
:100DB00068490493002002250DF130080193059144
:100DC000CDE907980321CDE9020006942A46009058
:100DD0003B460C9510F04EF8414612F0ABFF002850
:100DE0007FF430AF5C4905914AF2D8320092CDE9E8
:100DF0000798CDE90300CDE9010006943B460122A6
:100E000003210C9510F036F8414612F093FF0028AC
:100E10007FF418AF94F84E3043F0010384F84E305D
:100E200013F07EFE00287FF47FAF012017F0A0FFB3
:100E3000FEE54A484A4ADFF80CE1DFF818C106949B
:100E4000A8FB00014FF0910909FB081103F24718B4
:100E5000C2F800804FF00209049309920DF13008A6
:100E600033A3D3E900234FF6FF7ACDE907E80295D3
:100E7000CDF83090CDF814C0CDF80CA0FFF740F9B4
:100E80004A46CDE900503B46284603210FF09CFF1F
:100E9000BAE7062B3FF4B6AE4FF4DA734FF41B708B
:100EA000B9E61226C4E513F0ADFA0326C0E54FF407
:100EB000F2734FF47F70AEE61F4A2A49204840F291
:100EC0009C731EF018FC404080F311884FF0030023
:100ED00002DF06E705F17000A867C9E50726A7E568
:100EE0001A4812F05BFF84423FF4A1AD40F29673C2
:100EF000114A124912481EF0FEFB404080F311884F
:100F00004FF0030002DF92E5584612F097FE50467C
:100F100012F088FE07268BE50C4812F03FFF844252
:100F20003FF485AD4FF4F163E2E700BFAFF300801B
:100F30008D49FD1A070000006C5D02005C5E020036
:100F400084590200E52A0100981E00207C1E002022
:100F500000CA9A3B714101007D430100002AE784E9
:100F6000D41E0020485C0200F8B5194E9DF81840C8
:100F700096F8485015F0010721D196F832C0DFF8F5
:100F800054E0A6F84210E40004F018040CF0670CDA
:100F900044EAC01463F34205A2FB0E0144EA0C04C8
:100FA000912303FB021186F8485007A3D3E90023DD
:100FB00086F83240FFF7A4F870643846F8BD0C2775
:100FC0003846F8BDAFF300808D49FD1A07000000D8
:100FD000F81E0020002AE784F8B59DF81840104E4E
:100FE0000546E400807DEA8404F01804A3FB06674C
:100FF00000F06700912244EAC111014302FB03772C
:10100000A97505A3D3E9002330463946FFF778F8E0
:10101000A862F8BDAFF300808D49FD1A07000000FB
:10102000002AE784000000002DE9F04F90F83230EC
:10103000044600F1350190F8480003F0F903C0F3CD
:10104000400060F386138DB084F8323010F028F839
:10105000B4F8426094F820304F48E4610025A6FBC4
:10106000000165F30003912202FB0611C4E9055556
:1010700084F8203046A3D3E90023FFF741F8636CDE
:10108000656006460933A6F1310293424FF0310103
:10109000A56028BF6564216034BFE360E2600FF0A3
:1010A000F9FF656A80460DF12C09002D4ED03B4DAD
:1010B000CDF82090B4F842A039493748E268DFF80B
:1010C000ECC00492651BAD08A1FB0535AAFB00012D
:1010D000912303FB0A11334B05934FF0000A2CA315
:1010E000D3E900230227CDF81CC006940B97CDF856
:1010F0000CA0FFF705F8104619464FF47A7200234A
:10110000FEF7FEFF6D080435EDB22A460290434615
:101110000321CDF800A0504601960FF0ABFE4946E2
:1011200012F008FE054668B994F8483043F0010310
:1011300084F8483013F02CFB0446F8B128460DB073
:10114000BDE8F08F0C200DB0BDE8F08FE1680A9586
:101150004B460AAA03200B9502F05EFB0B9900296F
:10116000A5D011480AA3D3E90023A1FB0001FEF793
:10117000C7FF0A9B20F07F48984498E7384617F04D
:10118000F7FD20460DB0BDE8F08F00BFAFF3008043
:101190008D49FD1A07000000002AE784F81E002090
:1011A000BD86F21A4149010000CA9A3BE52A0100B6
:1011B0002DE9F04F044690F8E97090F8E800874276
:1011C0008DB00D4616460ED0C01B00F0030002285D
:1011D0001BD094F82D2194F82C319A4230D1002064
:1011E0000DB0BDE8F08F94F8523113F00108F0D142
:1011F00094F8051194F804218A4200F09883B81EEF
:10120000012384F8E90084F8EA3094F8983194F8DE
:1012100099219A4206D094F89A2102F006010429F5
:1012200000F0CA8394F8EA707B1E052B00F27183EC
:10123000DFE813F05C00080384026F033203B3019C
:1012400029480EF09FF958B394F82C3184F82D31C9
:101250000379022243F0030342710371C271D4F88F
:10126000B03194F82E2102722BB394F852219107D9
:1012700021D494F8AB21D2071DD4D4F8BC219342D9
:1012800004BF1A68C4F8BC21D4F8B421B2B91A68F2
:10129000026018600368C4E96D000BB9C4F8C001AE
:1012A000B4F8CC0000289AD1B4F8C630012B0ED97E
:1012B000A4F8CC3093E7D4F8B42172B1D4F8B831A3
:1012C0001A68026018600368C4F8B801E5E70133E2
:1012D000A4F8CC300DB0BDE8F08F0360C4E96C0019
:1012E000C4F8B801D9E700BFA4210020DFF8488482
:1012F000D8F80030002B00F04C85E78E628E94F811
:1013000006311744374413F00303BFB240F0AE83F5
:10131000B4F8EC90A7EB09021FFA82FA12043FF529
:1013200058AF94F8701194F8712194F8040184F87E
:1013300005018A4294F8E80084F8E90009D094F89D
:10134000722102F00702052A04BF84F87111A4F883
:10135000CC30D8F800309C4204BF0023C8F80030DD
:10136000D4F80081B8F1000F00F0EC85D8F8000047
:10137000002800F0E785B4F80831E28D4168C4F830
:1013800000119342B4F80A11B4F80CC100F0EC86D5
:10139000A28DA8F806204FF0130E0022A8F81E30E8
:1013A000A8F82010A8F822C088F804E088F81C20CB
:1013B000414612F049FC12F051FC2368002B09DA77
:1013C000D4E9011223F000438A422CBFA9186918FE
:1013D0002360CD1AE38DB4F8088113FB0AF39BB2A6
:1013E000B3FBF8F118FB01F292B293421FFA81FBB2
:1013F00080F09685D31AC44840F2E24202FB03F320
:10140000A3FB0001BEA3D3E90023FEF779FE20F081
:101410007F400544628E94F93D30A9EB07073244C2
:101420005F44174440F2E249002B678609FB08F647
:10143000C0F2E486D4F81001B349B1A3D3E9002384
:10144000A0FB0101FEF75CFE20F07F4909F10109D4
:101450003746B4F80C21B4F80A11AC4BA4F82E802E
:1014600042F2107000FB0262A948218633443044E6
:10147000B3FBF6F3013AB2FBF6F2B0FBF6F6A4F8D2
:10148000C62098B28A1D9042A4F8D200A4F8CA607F
:1014900002DD401A063880B294F80631A4F8CE0076
:1014A0005B0744BF0023A4F8C830022101201BF0D1
:1014B000B3FB00220221824601200EF007F9954974
:1014C0004FF4E47220460EF093F800F105085FFA3D
:1014D00088F8914B00944246012100200FF036FD20
:1014E00030F002030CD08D4A8D498E4840F68B13A4
:1014F0001EF001F9404080F311884FF0030002DF35
:10150000814EA7FB06677EA3D3E900233046394608
:10151000FEF7F6FD844A20F07F4BABFB0223072148
:10152000B01A01FB0B3367EB03014FF47A7200230F
:10153000FEF7E6FD7D4A7E49E6687E4F034694F954
:101540003D00029311EA200138BF11460020CDE989
:1015500004612B46CDF804B008940694CDF80090B1
:1015600042460797039001210FF084FC30F00203FC
:101570000CD06A4A6A496B4840F6A5131EF0BBF8C6
:10158000404080F311884FF0030002DFBAF1000FF2
:1015900040F01A866FF0470022E6E28E638E94F8E0
:1015A000EC501A443244EF0796B2AB4600F1AD83DB
:1015B000B4F8EE20B61A37043FF50BAE94F8DC20F1
:1015C00094F8648094F865A094F8E810B4F8627018
:1015D00084F8E910D60708F007080AF0070A40F176
:1015E000FC85D4F81C21100540F1F785B4F8D8909B
:1015F000B9F5296F28BF4FF42969B9F5A47F4FF4D5
:10160000296338BF4FF4A4790B9315F01C0F40F0F9
:10161000A886B4F8606015F0E00F0CD094F865204F
:1016200094F85E00690961F3020284F865200B9A60
:1016300013F0FAFA0746D4F80051002D00F0738732
:101640002868002800F06F8794F8641094F86520EB
:101650004368C4F800311BF0020FC1F3020EC2F35D
:10166000020C01F0070102F0070202D1884501F0E7
:101670000081A38DEB801722002385F81DE085F8FB
:101680001EC02A712B77294612F0DEFAD4F80051D9
:10169000002D00F079872868002800F07587B4F8DD
:1016A00060304268C4F80021B34209D34B4507D8E3
:1016B000B4F86230BB4203D30B9A934241F2ED80FF
:1016C000A4F86060A4F862702B7FA28DEA8043F0DA
:1016D00003030221092229712B776A77B4F85E305F
:1016E000B4F85C202B841523AA84EB7729466F84F9
:1016F000EE8412F0A9FA12F0B1FA6AE5AFF30080B5
:101700008D49FD1A0700000000CA9A3B7FC3C9013A
:10171000FF596202581F0020594F0100E45E020089
:101720000C600200845902008D49FD1A09810100F4
:10173000197F0100014F01002021002094F8EC30B6
:1017400013F0030500F0868294F93D30002BBFF6BC
:1017500040AD012D7FF43DADC0480DF013FF0546AF
:1017600000283FF436AD03790D2243F0030304272C
:1017700000F1080603714271C7710C21304618F060
:1017800053FB3146082204F1F60020F02CF83A46CB
:1017900005F1100104F19C0020F025F8D4F8B031D7
:1017A000002B00F06B8794F85221900700F16687B8
:1017B00094F8AB21D10700F16187D4F8BC219342A2
:1017C00004BF1A68C4F8BC21D4F8B421002A01F07F
:1017D000B081D4F8B8311A682A601D602B68C4F84B
:1017E000B851002B01F05C8112F05CFA054600282C
:1017F0003FF4EFAC2B7FA28DEA8043F00303022677
:10180000172103222B776977EA7704F25511082212
:101810002E7105F120001FF0E6FF94F8533185F892
:10182000283094F8543185F829302868294612F078
:101830000BFA12F013FA94F8EC3066F3010384F813
:10184000EC30C6E4E28E618E94F8EC300A44324407
:10185000DF0796B200F1B081B4F8F220B61A350471
:101860003FF5B7AC94F8E83084F8E93004F1380576
:10187000052204F1ED0128461FF0B5FF2846052199
:101880000EF04EF894F83D30012260F3050384F821
:101890003D3084F8C4219CE470480DF073FE0028AC
:1018A0003FF497AC94F8E83084F8E93001230279EA
:1018B0004371D4F8B03142F0030212210271C171B8
:1018C000002B00F0228394F85221910700F11D8330
:1018D00094F8AB21D20700F11883D4F8BC219342CD
:1018E00004BF1A68C4F8BC21D4F8B421002A01F05E
:1018F000EF80D4F8B8311A68026018600368C4F841
:10190000B801002B00F02985B4F8CA30A4F8CC3017
:101910005FE4534A5349544840F2BF331DF0EBFE95
:10192000404080F311884FF0030002DF51E494F847
:10193000192194F818C1624554D194F8252194F8DE
:1019400024C1624500F00F83A2EB0C02D1077FF5A2
:1019500040AC94F82631DA0740F1DC879A0740F171
:10196000C38712F09FF90146002870D094F8243103
:1019700084F82531037FA28DC28043F003030B77E7
:10198000022006220C2308714A77CB7794F82701AE
:10199000B4F82821B4F82A31A1F8233081F82000C6
:1019A000A1F82120086812F04FF912F057F994F8C5
:1019B000E80094F8E97007E402F00701062901F253
:1019C000278201A050F821F0391E000025120000E6
:1019D0002512000025120000B51D0000B51D0000F5
:1019E00025120000A2EB0C02D3077FF5F2AB94F8AE
:1019F000DC1011F0010700F0558412F053F907468E
:101A000028B394F8183184F81931037FA28DC2806D
:101A100043F003030922022041463B7738717A776D
:101A2000FA7707F1200008221FF008FFD4F82031D0
:101A300087F82030C3F307221B0C87F8212087F892
:101A400022303946086812F0FFF812F007F994F8CE
:101A5000E80094F8E970FFF7B7BB00BFA4210020AD
:101A6000E45E0200F459020084590200012012F0E1
:101A7000FBF8804600283FF4ACABC8480DF082FD6F
:101A8000064600283FF4A5AB12F00CF9D8F8003058
:101A9000D4F800215A6094F80631C4F8008103F0AC
:101AA0000303012B00F07786022B00F0E085BC4A8F
:101AB000BC49BD4840F6B6031DF01DFE404080F312
:101AC00011884FF0030002DF0021238E94F806C135
:101AD00032793B44063398B26FF3010C0C23A4F81F
:101AE000EC0084F806C142F003027371D4F810319F
:101AF000AE4F32710022F271A7FB032394F81471E8
:101B000022683772B4F80871A6F80B70B4F80A713D
:101B1000A6F80D70C3F38F23B4F80C71A6F80F70FC
:101B2000002AA6F81100A6F80930C4F8F4500ADA21
:101B3000D4E9010322F0004283422CBFEB182B189A
:101B40009A1AC4F8F4209A4B06F109000122C4F84D
:101B5000F000D960104602219C600DF0EBFD0028DA
:101B600040F01C86D4F8B031002B00F03C8394F890
:101B70005221900700F1378394F8AB21D10700F18F
:101B80003283D4F8BC21934204BF1A68C4F8BC2144
:101B9000D4F8B421002A00F0B987D4F8B8311A6813
:101BA00032601E603368C4F8B861002B7FF411AB5B
:101BB000C4F8C061FFF70DBB78480DF0E3FC0546A3
:101BC00000283FF406AB238E027994F8EC103344DE
:101BD0000633A4F8F2306FF30001012342F0030250
:101BE000082084F8EC102A716871EB71052204F169
:101BF000ED0128181FF0F7FDD4F8B031B4F8F22049
:101C0000A5F80D20002B00F0B98094F8522191071F
:101C100000F1B48094F8AB21D20700F1AF80D4F882
:101C2000BC21934204BF1A68C4F8BC21D4F8B42183
:101C3000002A00F06087D4F8B8311A682A601D6065
:101C40002B68C4F8B851002B7FF4C3AAC4F8C05164
:101C5000FFF7BFBA51480DF095FC064600283FF447
:101C6000B8AA94F93D30002B00F1040880F29C845E
:101C700094F87E301D0700F1A08694F8ED50002DF9
:101C800000F01F85037994F8DC2043F0030303710F
:101C9000D00740F18C86D4F81C31590740F1878673
:101CA000112203237572F27133727771D4F8B03157
:101CB000002284F8ED20002B00F04D8594F852218D
:101CC000920700F1488594F8AB21D70700F14385CE
:101CD000D4F8BC21934204BF1A68C4F8BC21D4F8DC
:101CE000B421002A00F07B87D4F8B8311A6832603A
:101CF0001E60C4F8B8613368002B00F0B68594F814
:101D0000E83084F8E930FFF764BA022011F0ACFF44
:101D1000074600283FF45DAA20480DF033FC054635
:101D200000283FF456AA94F8EC306FF30003C3F395
:101D30008200C3F3421250EA020884F8EC30DBB2AE
:101D400040F0B48594F8E820A4F8EE80980784F871
:101D5000E92000F16E864346414605226A7185F806
:101D600008802A796B72D4F8B031698142F003029D
:101D700018212A71E971002B7FF447AFD4F8B42100
:101D8000002A7FF458AF2B60C4E96C55C4F8B851F1
:101D900059E7C8F80040FFF7B0BA00BFA4210020FF
:101DA000E45E0200F4590200845902005917B7D1C9
:101DB000C004002002F00702B4F89CC1B4F8A011DE
:101DC000B4F89E91B4F8A281A4F85EC0042AA4F8E5
:101DD000621000F0F28494F89A31062262F3020352
:101DE00084F89A31D4F80071002F00F0C08438686C
:101DF000002800F0BC843B7F4268B4F82CE0C4F8B3
:101E0000002143F0030302223B774FF0090A152318
:101E1000A7F806E0A7F820C079843A71FB77394625
:101E2000A7F82490A7F8268087F81DA011F00CFFD2
:101E300011F014FFFFF7F6B9DB480DF0A3FB002803
:101E40003FF4F0A994F89A21B4F89E11B4F8A231A5
:101E5000A4F8D6100127A4F8D83067F3020284F85A
:101E60009A2109270279477194F8DC70D4F81CE1B3
:101E7000818142F0030202711B224FF0140C0021F9
:101E80000272FA0780F807C0417240F1F3831EF432
:101E9000006F00F0EF83B3F5296F28BF4FF429637B
:101EA000B3F5A47F38BF4FF4A4734FF42961D4F87D
:101EB000B0214181C381002A00F0478394F8523158
:101EC0009B0700F1428394F8AB31DF0700F13D83BB
:101ED000D4F8BC319A4204BF1368C4F8BC31D4F8BA
:101EE000B431002B00F03C86D4F8B8311A68026097
:101EF00018600268C4F8B801002A00F08C85B4F8B4
:101F0000CA30A4F8CC30FFF78DB9D4F8B421002A38
:101F10007FF4EFAC0360C4E96C00C4F8B801F0E4EE
:101F200008FB113340F2E242A0489BB202FB03F3EC
:101F3000A3FB00019AA3D3E90023FEF7E1F82D1AD1
:101F4000FFF768BA9A4A9B499B4840F6E7031DF0A1
:101F5000D2FB404080F311884FF0030002DFD8F835
:101F60000000FFF708BA94F871C194F87021944505
:101F700000F00782DFF84C82D8F80020002A00F039
:101F8000798594427FF425A994F8722102F0070222
:101F9000052A00F24C870FF2080C5CF822F000BF13
:101FA0008920000009200000B91F0000C9110000AD
:101FB000C9110000C91100009B073FF50AA911F0E3
:101FC00071FE014600283FF442AD037F94F8722170
:101FD000032060F30202034384F87221A08D0B7783
:101FE000022718230F714B77B4F87421B4F87631B7
:101FF000C880B4F878010A84B4F87A214B840F239E
:102000008884CA84CB771DE594F87371002F40F063
:10201000AF8594F93D30002BC0F2448694F87231BC
:1020200094F87C01C4F81071052262F302030122C6
:1020300084F8723184F81421002800F0A886B4F8DE
:102040007431B3FBF0F3134413FB00F39BB294F829
:10205000722194F80601A4F80831C2F3C0039B0072
:1020600020F0070243F002031343B4F87801B4F8F8
:102070007A2184F80631013984F80511A4F80A019F
:10208000A4F80C21FFF7A5B84748B4F83690B4F887
:1020900032A00DF077FA074600283FF4D8AC027959
:1020A00094F87211042060F3020142F00302182038
:1020B00084F8721109EB0A033A717871B4F874016B
:1020C000B4F87611B4F8782138813344B4F87A0141
:1020D0007981BA810F210022A7F811304FF0FF3328
:1020E000F881F9713A74FA743A757B75BB75FB75B2
:1020F0003B767B76BB76FB763B777B77BB77394647
:10210000204612F0F9FD2268B4F8CA30C8F8004041
:10211000002AC4F89051A4F8CC300ADAD4E90113AB
:1021200022F000428B422CBFEB186B189B1AC4F8AC
:102130009031224B13370122C4F88C7110460221D2
:102140009C600DF0F7FA00283FF481AC184A1C4956
:1021500040F69E3318481DF0CEFA404080F31188B7
:102160004FF0030002DF72E4228E8A427FF410A94E
:1021700040F2E24202FB03FB42F21072B4F8C6E006
:1021800002FB0CB2013AB2FBFBF292B296457FF42D
:10219000FFA8032388F80430FFF70AB9AFF30080E3
:1021A0008D49FD1A07000000A421002000CA9A3BB7
:1021B000E45E0200F85F020084590200D0040020AF
:1021C000785C0200202100200122104602210DF03F
:1021D0007DFA6FF04700FFF703B84FF4A479CDF80C
:1021E0002C90FFF712BAD4F8B421002A7FF4D5ACB2
:1021F0003360C4E96C66C4F8B861D6E4E26C636C21
:10220000D94F03FB1A23E36418F04EF8804694F884
:10221000DC00C0F3820018F049F808EB000306FB6D
:1022200003F3D248E26C94F8141103F5742303F21B
:102230003F23A0FB03034FEA934808FB0BF073080E
:102240000244963B9A4209FB01FC28BF1A464FF014
:10225000000EC4E91232C4F84480C1A3D3E90023BC
:10226000A0FB0701C4F854C0C4F8E4E0FDF748FF40
:10227000D4F810318446BE48A0FB0330800A09FB25
:1022800000F0A0FB0701B6A3D3E90023A5EB0C05E2
:10229000FDF736FFA6EB080720F07F49B4F8088168
:1022A000FFF7D7B8B3480DF06DF9804600283FF42A
:1022B000CEAB94F81931B04AC4F81C21013B092275
:1022C00084F81931427194F93D200379002AACBF9A
:1022D00008220E2243F00303C2710822037139461B
:1022E00010441FF0ABFAD4F81C3188F80830C3F35F
:1022F00007221B0C88F8092088F80A30D4F8B0317E
:10230000002B00F0C78194F85221970700F1C28199
:1023100094F8AB21D00700F1BD81D4F8BC219342E1
:1023200004BF1A68C4F8BC21D4F8B421002A00F014
:102330005D84D4F8B8311A68C8F80020C3F800806A
:10234000D8F80030C4F8B881002B00F0AD83B4F8A1
:10235000CA30A4F8CC30FFF77ABBC4F8C001FFF74D
:10236000D3BA94F8642094F85C00C5F3820161F359
:10237000020284F864204A4612F056FC0646FFF733
:102380004AB994F8981194F899318B4200F0208260
:1023900094F89A3103F00702062A00F25B850FF2E7
:1023A000080C5CF822F000BF4F240000C9110000A7
:1023B000C9110000C9110000C5230000C523000099
:1023C000C9110000B4F89C21A4F85E2003F00702B4
:1023D000B4F8A001B4F89E91B4F8A281A4F8620008
:1023E000042A00F0EA83062262F3020384F89A3199
:1023F000D4F80071002F00F0A4833868002800F0A2
:10240000A0833B7F4268B4F82CC0C4F8002143F09D
:1024100003033B77022209237B773A71B4F85E10FD
:10242000B4F862207A841523A7F806C03984FB77B4
:102430003946A7F82490A7F8268011F005FC11F082
:102440000DFC94F8E80094F8E970FEF7BDBE494829
:102450000DF098F8014600283FF4F9AA94F89A2163
:10246000B4F89E01B4F8A231A4F8D6000127A4F86C
:10247000D83067F30202092784F89A210A794F714C
:1024800094F8DC70888142F0030214204FF0000CB5
:102490000A71FF07D4F81C21C8714FF01B0081F8A6
:1024A00009C0087240F1AD83100540F15484B3F5C2
:1024B000296F28BF4FF42963B3F5A47F38BF4FF4C9
:1024C000A4734FF42962D4F8B001CB81B2F5A47F94
:1024D00038BF4FF4A4724A81002800F01F8394F89B
:1024E00052319B0700F11A8394F8AB31DF0700F1FA
:1024F0001583D4F8BC31984204BF0368C4F8BC31DA
:10250000D4F8B431002B00F07C84D4F8B8311A68C8
:102510000A601960C4F8B8110B68002B7FF417AF7C
:10252000C4F8C01113E7154A1549164840F65F6311
:102530001DF0E1F8404080F311884FF0030002DF06
:10254000286894F8ECB0FFF77FB8D4F8B431002BCA
:102550007FF4CAAC0260C4E96C00C4F8B801CBE4F3
:102560008D49FD1A0700000000CA9A3B83DE1B4319
:102570005917B7D1A4210020FF490100E45E0200F1
:10258000F85F020084590200DA4ADB49DB4840F672
:102590008B631DF0B0F8404080F311884FF00300CA
:1025A00002DF2868FFF77BB804F17F073B462A4625
:1025B00004F1EE0104F25D1019F06EFD39461022AF
:1025C00004F1A0001FF00FF9082204F1980104F1B2
:1025D000B9001FF008F994F8970094F8B82094F81F
:1025E0007E3084F88F5043F0080365F3000042F01A
:1025F000010284F8970084F87E3084F8905084F8C3
:10260000915084F8925084F8935084F8945084F850
:10261000955084F89650C4F8B0504146C4F8B45070
:1026200084F8B820204612F035FDD4F8B031002BE4
:102630003CD094F85221920738D494F8AB21D707B4
:1026400034D4D4F8BC21934204BF1A68C4F8BC2126
:10265000D4F8B421002A00F0BA82D4F8B8311A684C
:1026600032601E603368C4F8B861FFF745BBA44907
:10267000FFF72BBA4FF4A473194618E4D4F8B42129
:10268000002A7FF4A6A82B60C4E96C55C4F8B851A1
:10269000FFF7A7B8D4F8B421002A7FF44AAEC8F8EF
:1026A0000030C4E96C88C4F8B8814DE6D4F8B42190
:1026B000002AD2D13360C4E96C66C4F8B861FFF770
:1026C0001BBB04F17F073B462A4604F1EE0104F2EE
:1026D0005D1019F0E1FC3946102204F1A0001FF052
:1026E00082F8082204F1980104F1B9001FF07BF888
:1026F00094F8972094F8B81094F87E3084F88F50AE
:1027000042F0010265F3000143F00803012084F860
:10271000972084F8B81084F87E3084F8905084F8BC
:10272000915084F8925084F8935084F8945084F82F
:10273000955084F89650C4F8B050C4F8B45032792B
:102740007071D4F8B03142F0030205213271F17199
:10275000002B7FF4B3AAD4F8B421002A7FF4C4AAD2
:102760003360C4E96C66C4F8B861FFF7C4BA614A63
:10277000614962484FF453631CF0BDFF404080F351
:1027800011884FF0030002DF3868B4F85EC0B4F877
:102790006210FFF730BB5B49FFF797B9554A5A49BA
:1027A000564840F671031CF0A6FF404080F31188A4
:1027B0004FF0030002DFFFF7D5B9B4F8A421002AD7
:1027C00040F0758184F89931A4F8CC20FFF70ABB5A
:1027D00094F8A83194F8A9219A423EF4FAAC94F8FE
:1027E000AA2102F00301032900F0188200297EF4D7
:1027F000F0AC46480CF0C6FE014600283FF427A97D
:1028000094F8AA3194F8AC2194F8AB7194F864C0B0
:10281000012060F30103C3F3820060F30202C3F3FB
:10282000421060F3C502C7F34007087984F8AC2171
:1028300067F3C30CC3F3820284F8AA3184F864C03E
:10284000C3F3421340F003000A72032716224B72AF
:102850000871CA714F710022204612F04DFAB4F887
:10286000CA30A4F8CC30FFF7F2B8C4F8C061FFF763
:1028700046BA92457EF4FDAE03232B71294611F032
:10288000E3F9D4F80051002D00F06C82286800288C
:1028900000F068824368C4F8003103232B71294695
:1028A00011F0D2F911F0DAF9FEF793BC238E33441C
:1028B0000633A4F8EE3011F0F5F93B68D4F80021A6
:1028C0005A60C4F8007111F0EDF90368D4F80021E2
:1028D0005A6094F8EC30B4F8EE10C4F80001C3F379
:1028E00082085B09FFF739BA40F64F33014A0849BD
:1028F00030E400BFE45E0200F85F02008459020089
:10290000E9390000B5870100785C0200A4210020AD
:10291000F4590200BD480CF035FE00283FF497A89A
:1029200094F8252194F82631013A84F8252102797A
:1029300043F00103062184F8263142F0030241717D
:10294000D4F8B03102710B216FF00E020C27017226
:10295000427205214FF0FF32C7718172C272027359
:10296000002B00F0BD8094F85221970700F1B88049
:1029700094F8AB21D10700F1B380D4F8BC21934285
:1029800004BF1A68C4F8BC21D4F8B421002A00F0AE
:102990002B82D4F8B8311A6802601860C4F8B80104
:1029A0000368002B7FF4D3ACC4F8C001CFE40D233F
:1029B0003572F3710227FFF778B94146204612F0CD
:1029C00069FBD4F8B03153B394F85221950726D45B
:1029D00094F8AB21D00722D4D4F8BC21934204BF91
:1029E0001A68C4F8BC21D4F8B421002A00F0C981C7
:1029F000D4F8B8311A6832601E60C4F8B861336820
:102A0000002B00F0808094F8523123F0030384F807
:102A10005231FFF774B9C4F8C001FFF770BAD4F8A7
:102A2000B421002AE4D13360C4E96C66C4F8B8610B
:102A3000E5E711F037F91723A28D87F81C803B7169
:102A400094F864303868FA80C3F302037B7794F813
:102A50006530C3F30203BB77394611F0F5F811F086
:102A6000FDF894F8EC30B4F8EE10C3F382085B097B
:102A7000FFF773B994F8722102F00702052A00F2F9
:102A8000D68101A050F822F0892000000920000022
:102A9000B91F0000D3110000D3110000D3110000B2
:102AA000C4F8C051FEF7A0BEC4F8C0814FE494F84A
:102AB0009A01B4F8A671A4F89E21002363F30200E2
:102AC00084F89A01A4F8A431A4F8A271FFF78AB996
:102AD0001A68026018600368C4E96D00FEF711BF50
:102AE000D4F8B421002A7FF454AF0360C4E96C0029
:102AF000C4F8B80154E71A682A601D602B68C4E95D
:102B00006D55FFF7A0B8C4F8C0617CE71A68326061
:102B10001E603368C4E96D66FFF747B8D4F8B43176
:102B2000002B7FF4F2AC0860C4E96C11C4F8B81152
:102B3000F2E41A682A601D602B68C4E96D55FEF73F
:102B400050BE334A334934484FF453631CF0D3FD2D
:102B5000404080F311884FF0030002DF386850E4F2
:102B60001368036010600268C4E96D00FFF7C4B920
:102B700026480CF007FD014600283EF468AF0379B3
:102B800043F003030B71112003220F23C8714A7114
:102B90000B7294F873314B722046002212F0ACF89D
:102BA00094F8703184F87131002394F8E80094F8B7
:102BB000E970C8F80030FEF707BBB4F8A421002A7A
:102BC00040F0BA8084F89911A4F8CC2010E41A6877
:102BD00032601E603368C4E96D66FFF78DB81A680D
:102BE00032601E60C4E96D66FFF785B81A68C8F8E0
:102BF0000020C3F80080D8F80030C4E96D88FFF7E2
:102C0000A3BB4FF4A4731A465DE400BFA4210020C7
:102C1000E45E0200F85F020084590200110784F8A4
:102C2000A931C2F3820340F1BE8094F8AA31022296
:102C300062F3840384F8AA3194F8AA3158064FEA63
:102C4000531240F1A880022262F3471384F8AA319C
:102C500094F8AA2194F864C094F8650094F8AB3114
:102C600000F00700C2F382010CF0070CC3F38003ED
:102C70008C4508BF00215B00B0EB521F43F00103FD
:102C80004FEA521208BF002243EA4213B81E43EA39
:102C90008103062284F8E90084F8EC3084F8EA2005
:102CA000FEF7C0BA6D480CF06DFC014600283EF4FA
:102CB000CEAE0379182243F0030303714271B4F8D6
:102CC0007421B4F87631B4F878010A81B4F87A2125
:102CD0004B8110238881CA81CB7194F87C310B74AD
:102CE000B4F87E31B4F88001B4F88221A1F8113033
:102CF000B4F88431A1F81300B4F88601A1F81520C6
:102D0000B4F88821A1F81730B4F88A31A1F81D3041
:102D1000A1F81900A1F81B2020463A4611F0ECFF5B
:102D200094F87031C8F8007094F8E80094F8E970ED
:102D300084F87131FEF748BA002161F30203A4F868
:102D40009E21B4F8A62184F89A31A4F8A411A4F81D
:102D5000A221FFF74DBBD2054FF4A47341D5A822A1
:102D6000FFF7B1BB3E4A3F493F4840F66E631CF057
:102D7000C2FC404080F311884FF0030002DF286856
:102D800088E51A6832601E60C4E96D6637E6B4F8FB
:102D90007631FFF75CB9D1070FD5012262F34713F3
:102DA00084F8AA3154E7DA0710D594F8AA31012241
:102DB00062F3840384F8AA313EE712F0040218BFDC
:102DC000042262F3471384F8AA3141E713F00403A5
:102DD00010D094F8AA31042262F3840384F8AA3153
:102DE0002AE71A46FFF76FBB1A6802601860C4E949
:102DF0006D00D5E594F8AA2163F3840284F8AA2132
:102E00001AE703680B600160C4E96D11FFF784BB2A
:102E1000134A1649144840F658531CF06CFC4040C5
:102E200080F311884FF0030002DFFEF7FBB90C4A74
:102E30000E490D4840F65C431CF05DFC404080F3B9
:102E400011884FF0030002DF94F8E80094F8E9706D
:102E5000FEF7BAB940F6585348E500BFA421002058
:102E6000E45E0200F85F020084590200F459020097
:102E70002DE9F04F9C4695B05CF80C6B1D4613682D
:102E800086460C4660462E31174605F1080A032295
:102E9000D3F80090CDF828E005F11C081EF0A3FC43
:102EA00004F12A01042250461EF09DFC04F13A016F
:102EB000052240461EF097FC404605210CF030FDEF
:102EC00095F8213000F03F0060F30503012885F8F4
:102ED00021300AD994F83F3003F01F02053AC3F3BA
:102EE00004010B2A85F8221002D915B0BDE8F08F35
:102EF0003A6896F8DC1000209060B4F83480A5F8A9
:102F0000128094F8362094F837005B0942EA0022D8
:102F100063F38401AA82638E86F8DC10ADF830304A
:102F200017F0C2F9034696F8DC000B93C0F3820059
:102F300017F0BCF90B9BDFF828C394F83110AA8A6C
:102F400040F2E24B0BFB08F8184408FB00F000F5D8
:102F5000742000F23F20ACFB00C04FEA580C800CFC
:102F60000BFB01F1ACF1960CA862C5F82CC0E9632B
:102F7000218FB14BADF8361042F2107C0CFB018171
:102F8000AE48434402F1060C0139B3FBF8F3B1FB40
:102F9000F8F1A6F8C61099B261454044A6F8D210DF
:102FA000B0FBF8F0A6F8CA0002DD891A063989B22A
:102FB000A6F8CE100422514606F1E0001EF013FCE4
:102FC000237F04F11E0A5146C3F38013062212A880
:102FD0008DF840301EF007FC237F4FF48072A283EF
:102FE00099F82A0097F812B0C3F340128DF83C20EC
:102FF0000B9216F03DFB0146062204F12B0000293E
:1030000040F0ED801EF01AFC04F12503BBF1FF0F28
:103010000E9304F11F0300F0EB801A465146584608
:1030200015F0F4FDA27F0E980232A27712A90622B3
:103030001EF0D9FB96F8DC30698AAA8AA286C3F30F
:10304000820384F83830BDF83630E3866186304636
:1030500012F070F921462882E0807C680A9810F00E
:10306000F3FD2B8AE380162323710B9B2068002B32
:1030700000F0BA8095F809E02B7A95F80BC0A97A90
:1030800095F8212041EA0C2143EA0E234B4042F0FF
:10309000400201216B8485F821202177214610F020
:1030A000D3FD10F0DBFD95F84900012100F0070089
:1030B00017F024F8624A4FF0000A8346312300F2E9
:1030C0005240A0FB02013360C6E901AA58A3D3E92C
:1030D0000023FDF715F8FC68BDF83020AD6A20F03C
:1030E0007F4040F2E24303FB023302215246F0608C
:1030F000A4F5AE7401201C440CF0E8FA484611F027
:103100002DFB821C4F4BCDF80090D2B250460121CE
:103110000DF01CFF0128A8EB0508A4EB0B047FD0E1
:1031200099F82830DB0773D4304612F003F9DFF842
:1031300010B1A8FB0B893EA3D3E9002305464946FD
:103140004046FCF7DDFF404A069620F07F4AAAFB86
:103150000223072101FB0A3340F24511BF680891A1
:103160003A4907913A490591B8EB020069EB03012E
:10317000F368049300264FF47A7200230396FCF759
:10318000BFFF2BA3D3E900238446A4FB0B01CDE9A9
:1031900001ACFCF7B5FF053520F07F40EDB2313FC3
:1031A0003B4600902A46304601210DF063FE30F088
:1031B00002030CD0274A284928484FF4A3731CF077
:1031C0009AFA404080F311884FF0030002DF012299
:1031D000104602210CF07AFA15B0BDE8F08F04F128
:1031E00024011EF000FB0FE79DF83C30237755E7E4
:1031F0000E981193062200211EF020FB9DF840300E
:10320000A377119B12A9184606221EF0ECFA11E7CB
:10321000002301220093184611460DF097FE83E724
:1032200010F0C8FD81453FF47BAF14F051FE77E705
:103230008D49FD1A070000007FC3C901FF596202D2
:1032400000CA9A3BFD7E01008D49FD1AA17E010056
:10325000197F0100DC6002000C600200845902004A
:1032600083DE1B43000000002DE9F04F0E7F174660
:10327000126891B00C464FF0000A1D46C2F808A033
:10328000C6F3C013D2F800908DF8343024310622F2
:1032900080460EA82E681EF0A6FA237FA4F81CA074
:1032A000797C97F812A0C3F3401211F001018DF858
:1032B00030200B9204F12B004FF0060200F0EF805B
:1032C00004F11E011EF08FFABAF1FF0F04F125037D
:1032D00004F11F0B00F0ED805A46504604F11E0128
:1032E0000D9315F093FCA27F0D9B0232A2770EA9DD
:1032F000184606221EF077FA6B8AAA8A6386B9F806
:103300003030E386A28616F0CDFF84F838003046D0
:1033100012F010F8034628822146E38040467C687C
:1033200010F092FC2B8AE380162323710B9B2068FC
:10333000002B00F0B08095F809E02B7A95F80BC0CF
:10334000A97A95F8212041EA0C2143EA0E234B404B
:1033500042F0400201216B8485F82120217721462B
:1033600010F072FC10F07AFC95F84800DFF880A1AC
:10337000C0F3C00100F0070016F0BEFE0024834633
:10338000312300F252403360C6E9014450A3D3E92F
:103390000023A0FB0A01FCF7B3FEB5F812C0FB68DE
:1033A00020F07F40F06022460221012040F2E248F6
:1033B00008FB0CF8A3F587750CF088F9484611F066
:1033C00093FB021DD2B2444B0092012120460DF026
:1033D000BDFD234603220121009420460DF0B6FDD9
:1033E000304611F0A7FF06964FF43473BF683B4A8E
:1033F00008933B4B07920593F368049388FB0A8973
:1034000000F1050C32A3D3E90023404649465FFA98
:103410008CF60394FCF774FE104619464FF47A724A
:103420000023FCF76DFE2AA3D3E900238446494616
:103430004046CDF808C0FCF763FEA5EB0B058446BB
:1034400023A3D3E90023A5FB0A01CDF804C0FCF7B0
:1034500057FE313F20F07F403B46009032462046E9
:1034600001210DF007FD30F002030CD01D4A1E496A
:103470001E4840F2D1231CF03EF9404080F31188F1
:103480004FF0030002DF0122104602210CF01EF96A
:1034900011B0BDE8F08F9DF8303023775FE71EF064
:1034A000CDF9BAF1FF0F04F1250304F11F0B7FF4EE
:1034B00013AF1846062200211EF0C0F99DF83430E3
:1034C000A3770EA9584606221EF08DF914E700BF17
:1034D0008D49FD1A07000000D5800100D980010048
:1034E00009810100786102000C6002008459020029
:1034F00000CA9A3B000000002DE9F04F93B004464B
:10350000099090F93D00E4680D940028B8BF143488
:10351000CDE90B1207934FF0FF024FF00003B8BF45
:103520000D94CDE90F331C9EDFF8E4928DF83B201B
:1035300092461F4606921C469B4605931D4603E095
:10354000069333789C4258D211AB0293AA4B019355
:103550000FAB022100930DF13B0210AB0020119143
:103560000DF03AFD022800F0B880119B002B4FD1DE
:103570009DF83B30FF2B5CD0BAF1FF0F11D0109AB1
:103580005A450ED09D499E484FF4BC734A461CF0E4
:10359000B2F8404080F311884FF0030002DF9DF83D
:1035A0003B309A1E032A31D8052BC9D1069BFF2B2D
:1035B00028D1002011F0C6FE099B834226D00B992A
:1035C00090F93D203378002940F09380002AB9DB40
:1035D000C268DDF83C80DDF82CA028320A920C9AF3
:1035E00012684245C0F094800A9ADDF840B09DF818
:1035F0003BA005929C424546A6D39DF83B30FF2B4D
:1036000000F0ED80347013B0BDE8F08F337899E7A7
:103610007C497B4840F26F134A461CF06CF84040EE
:1036200080F311884FF0030002DF9DF83B30FF2B41
:10363000A2D10C9B1A683378954238BF1546A34235
:1036400045D9059BDFF8C481EB18A3FB08010727C8
:1036500007FB031166A3D3E90023FCF751FD6A4B76
:10366000A3FB0020079AC0F38F218A424FEA9020E3
:1036700040F2A3801C960FF2781BDBE900AB1D9E85
:1036800099460BE0FCF73CFDA9FB0030079BC0F31B
:103690008F218B424FEA902040F28E8006EB440C43
:1036A000090A06F814008CF801101C9991F800C062
:1036B00005990134283501EB050EE4B2AEFB080193
:1036C000A44552465B4607FB0E11DBD81C9E0C9BA3
:1036D0001D60347013B0BDE8F08F119B022B7FF496
:1036E00044AF022100200DF0BDFC119B022BF8D04D
:1036F0003BE7002AC168DDF83C8052DA01F13C0268
:103700000A920C9A126842454FF0140ABFF46CAF4B
:10371000954238BF15469C423CD2059B0D9A1C969B
:1037200013449A44CDF820A0DDF874A01BE0FCF708
:10373000E7FC354B079EA3FB0030C0F38F27B74251
:103740000AEB440204F101034FEA17214FEA9020EB
:1037500005F1280535D20AF8140051701C9A127828
:10376000DCB2A24223D9294640460DF095FC059BC8
:10377000264A089E2B448446B445A3FB02014FF021
:10378000070202FB03114FF0000B19A3D3E900233A
:10379000CDD21C9E0C9B1D60079BBB4216D9337873
:1037A00022E701F128020A924FF0000A17E70C9B6A
:1037B0001C9E1D60337817E71C9E0C9B00251D6026
:1037C00087E70C9B1C9EC3F800B05D469DF83B301C
:1037D000FF2B3FF42EAF347013B0BDE8F08F0C9B7D
:1037E0001B689D4238BF1D4671E700BFAFF30080E4
:1037F00000CA9A3B0000000099870100F4590200BA
:1038000084590200146202005917B7D18D49FD1A7C
:10381000D0610200000000002DE9F04F8FB01C467F
:10382000FF26099304310023DFF81081DFF810B17F
:10383000DFF810A1DFF8109123608DF82F60049657
:1038400005930446089115460C9306930DAF0CAEF4
:103850004FF0020CCDE9018700962B460DF12F02A7
:1038600021460020CDF834C00DF0B6FB02282FD041
:103870000D9B002B32D19DF82F30FF2B3ED0052B16
:10388000E6D1002011F05EFD0028E1D090F93D3036
:10389000002BDDDB0499C3680C9AFF2903F10403B4
:1038A0000CD006990793104604920DF0F5FB059B8A
:1038B000089A99188842049A079B22D8CDE90532C4
:1038C0009DF82F300493C3E7214600200DF0CAFB7A
:1038D0000D9B022BF8D00D9B002BCCD052235A46C7
:1038E000514648461BF007FF404080F311884FF0D7
:1038F000030002DF9DF82F30FF2BC0D1049BFF2B6C
:1039000010D0DDE905320C481344A3FB0001072267
:1039100002FB031106A3D3E90023FCF7F1FB099B8B
:10392000803018600FB0BDE8F08F00BFAFF30080AB
:1039300000CA9A3B000000008D49FD1A99870100DA
:10394000D0610200146202008459020000000000ED
:1039500070B51C4682B01546064601AA02200195A4
:10396000FFF75AFF23680BB30198431B1B021FD4B8
:1039700029460DF091FB1A4B0246A0FB03010723D9
:1039800003FB021114A3D3E90023FCF7B9FB22685F
:1039900002442260002A09DB40F2E24101FB06F00A
:1039A000904203D2121A9042FCD3226002B070BD42
:1039B000014628460DF070FB094B0246A0FB0301AF
:1039C000072303FB021104A3D3E90023FCF798FBB0
:1039D0002268121A2260DDE700CA9A3B000000004C
:1039E0008D49FD1A000000002DE9F041B0F880215A
:1039F00088B0054640F2E243454805AE03FB02F3BA
:103A0000002783FB000106243FA3D3E9002377604E
:103A10000597B7608DF80F40FCF772FB0DF10F02B0
:103A20000196B5F87631009204460121284604AA91
:103A30000494FFF761FD9DF80FC00CF1FF34E4B270
:103A40000DF11603394603EB44042F4605F10C0E25
:103A50004FF6FF7097F8813197F8802142EA0322F0
:103A60000FFA82F8BCF1000F09D03346824203D02E
:103A70001988914217D0012102339C42F6D10237B6
:103A8000BE45E7D1F1B9BDF81430D5F8F01040F2D9
:103A9000E24202FB03F2180AC5F810210B704870CD
:103AA00008B0BDE8F081D5F8F01040F2E24303FB26
:103AB00002F3120AC5F8103181F800804A7008B08C
:103AC000BDE8F08195F8E82095F8703185F8E92097
:103AD00085F8713114F0BAF9D5F8F03013F8052CE7
:103AE00003252A4311240F20202103F8052C03F875
:103AF000045C03F8024C03F8010C197008B0BDE82F
:103B0000F08100BFAFF300808D49FD1A070000006F
:103B100000CA9A3B0000000038B5044617F02CFAA2
:103B2000A27DC2F34103013303F00303032B34D01E
:103B300063F34202A27503F1250016F09BFAA36815
:103B40000BB32369FBB118F0C7FE05460DF0A2FACE
:103B5000C11C002018F086FE18F012FF18F0BCFE01
:103B600029460DF099FA124B0246A0FB03010723E8
:103B700003FB02110CA3D3E90023FCF7C1FA23696C
:103B80001B1A236138BD0DF085FAC11C002018F006
:103B900069FEBDE8384018F0F3BE6FF34202A2752B
:103BA0002520CAE7AFF3008000CA9A3B000000005E
:103BB0008D49FD1A000000002DE9F04F83B0044646
:103BC00018F00EFD10F0FF0F0AD116F0ABFAC24844
:103BD000214618F0C3FB03B0BDE8F04F18F0D2BC8B
:103BE00018F01EFD5FFA80F918F0A4FD5FFA80F866
:103BF00018F0AAFD074618F0DBFFC6B218F0BCFFAC
:103C0000834618F05FFD824616F08CFA012010F012
:103C100073F90546002800F0A480B8F1000F40F0C9
:103C2000B180002E40F0BA80FF27B9F1000FCED04E
:103C3000A37D1A075FFA8AFA40F1BA80B8F1000F43
:103C400000F0E181A368002B00F0B880287F10F01D
:103C50000F0340F0DF816B7F252B00F2FB800420F7
:103C600010F04AF90028B2D018F092FEA36A8046FC
:103C700043B9E28C40F2712303FB02F3B0FBF3F291
:103C800003FB120823689548DB680722A3FB0001A9
:103C900002FB03118EA3D3E90023FCF731FAA0F253
:103CA0004233434593D318F0E7FCD4F808A018F04A
:103CB000C5FC2B7F0278C3F38013DB0102F05002B6
:103CC00043F0250313432222037042708146384695
:103CD00015F0DCFCE37DDA07834609F1020040F1D0
:103CE000CF81BBF1000F00F0CB8199F8003043F099
:103CF000400389F80030062259461DF074FD062263
:103D000005F11E0109F108001DF06DFD04220AF104
:103D1000080109F10E001DF066FD03220AF10C01F5
:103D200009F112001DF05FFD012389F81530BAF882
:103D30001230019318F02CFED4F8108000F5DB63EC
:103D4000B8F1000F00F0BE81019940F2E24202FB9F
:103D500001F2B8F1000F02DB434540F2C780904406
:103D6000F7E75F4A5F4960484FF4DC731BF0C3FC20
:103D7000404080F311884FF0030002DFB8F1000FDC
:103D80003FF44FAFA07DF9B2C0F3C00015F09CFC2A
:103D90000746B9F1000F3FF41AAF49E75FFA8BF01D
:103DA00015F0FCFC0746B9F1000F3FF410AF3FE7F8
:103DB000B8F1000F72D1A268002A7DD1287F10F0DF
:103DC0000F0320D16B7F252B3FF601AF94F916200E
:103DD000002A03DAA268002A00F09681252B98BFFA
:103DE0004FF0000836D8002B3FF4F1AEA368002B4B
:103DF0007FF4EDAE002E14BF3946FF2142465046F7
:103E000017F004FAE3E6062B00F03381022B00F0F2
:103E10003581012B1ED16B7F0C2B7FF4D8AE05F1C1
:103E20002409C00949463A4615F0B8FD804688BBCA
:103E3000A37D287FC3F38012B2EBD01F00F0C481B2
:103E4000C3F3C1039A0704D595F91C30002BC0F2C7
:103E5000B081287F00F00F0004287FF4B8AE6B7F9C
:103E6000252B3FF6B4AEA37DDB077FF5B0AE18F08F
:103E7000E5FB2B7F0278C3F38013B3EBD21F7FF4F3
:103E8000A6AE0830062205F11E011DF09CFC00289C
:103E90007FF49DAE6B7F4FF00008A4E739463046B3
:103EA00015F00AFD002800F0A980A368002B85D03A
:103EB000A37D1A073FF5CAAEFF2F00F0F080237EE6
:103EC000DB1BB3FA83F35B09BDE600BFAFF30080F1
:103ED00000CA9A3B0000000009B001008D49FD1A9C
:103EE000146602006066020084590200CF4999F806
:103EF0001520A8EB0303A1FB0313C3F38F230132A7
:103F0000A9F8163089F81520BAF81210BAF814205A
:103F1000A38AA9F81C30A9F81810A9F81A200AF1E8
:103F20001C01052209F11E001DF05DFC9AF82220FB
:103F300099F8233062F3040389F8233016F0B2F9BC
:103F400099F8233060F3471389F82330484618F076
:103F5000EBFA18F03BFB002840F0C880B44821463B
:103F600018F0FCF9237943F00102DB07227100F11C
:103F7000AF800FF0DFFF1123824603714FF6FF730E
:103F800024222D7FC38049461C301DF02CFC9AF85A
:103F90001C30CAF80840C5F3401565F345138AF88C
:103FA0001C3018F099FC0021CAF81000084618F0DF
:103FB000CBFA002E08BFFF278AF81A70E27DA8EB23
:103FC000000012F00102CAF8140003D0BBF1000295
:103FD00018BF01229AF8193062F300038AF81930E9
:103FE0000FF0A8FF5146CAF80C00DAF800000FF0F5
:103FF000B9FF03B0BDE8F04F0FF0C4BFA37D1807B1
:104000007FF5E5AD1EE6384615F01AFC00287FF472
:104010004CAFDCE5012B7FF4F6AE6B7F0C2B7FF40D
:10402000D6AD05F12408C00941463A4615F0B6FC64
:1040300000287FF414AEE37DDB0700F1B380A37D9D
:10404000287FC3F38012B2EBD01F00F0D680C3F3F9
:10405000C10398077FF5B2AE95F91C30002BBFF66F
:10406000ADAE95F8293003F0C003402B7FF4A6AE27
:10407000F5E56B7F252B3FF6EDAEA7E66B7FADE652
:10408000A37D99F80020C3F3801363F3861289F8A7
:10409000002004F1190106221DF0A5FB2FE6287F60
:1040A000C3F34013C0F3801293427FF488AE06221C
:1040B00005F11E0104F11F001DF085FBB0FA80F32D
:1040C0005B09C0E589F8168089F8178098461BE7D8
:1040D000584A594959484FF465731BF00CFB40404E
:1040E00080F311884FF0030002DF42E7514A544940
:1040F000524840F26E331BF0FEFA404080F31188C4
:104100004FF0030002DF29E7962018F033FB002070
:1041100018F098FA002E14BF3946FF2150460022AD
:1041200017F074F800287FF452AD18F087FA2B7F4F
:104130000278C3F38013DB01064602F0700243F0FD
:10414000030313430C2233703846727015F09EFA45
:10415000E37D0146D80741D500293FD0337830466A
:1041600043F0400300F8023B06221DF03CFB05F142
:104170001E01062206F108001DF035FB304618F03E
:10418000D3F918F023FA002842D118F0F9FBA37DE7
:104190002C4843F001032146A37503B0BDE8F04F5E
:1041A00018F0DCB8384615F071FA00287FF406AE36
:1041B00045E795F8293003F0C003402B7FF449AE62
:1041C0006B7F4FF001080EE64946062204F1190004
:1041D0001DF0F9FA002837D0A37D31E6A37D3278AF
:1041E000C3F38013304663F3861200F8022B04F108
:1041F000190106221DF0F7FAB9E74146062204F13B
:1042000019001DF0E0FA00283FF429ADA37D1EE758
:10421000084A0B49094840F2EF331BF06CFA404062
:1042200080F311884FF0030002DFAEE75917B7D1D2
:1042300041AF010014660200485C0200845902008C
:10424000D86502001DB001006B7FCCE59389024860
:10425000D2881BF050BA00BFEC690200F8B50746DF
:1042600015460C4649B91E481BF045FA1422214652
:1042700028461DF0E3FA0020F8BD1A4E098A1A48B4
:104280001A4D1BF038FA3368286859681DF07AFB1C
:10429000336888B99B682B60238A01332B812946B8
:1042A000032338462B7408F047FE01460028E2D06D
:1042B0000F481BF020FADEE7996828681DF062FBC2
:1042C0000028D8D120461EF034FE31681BF0BFF91B
:1042D000084B094801221A701BF00DFACBE700BF0A
:1042E0001B6A02009C1100202E6A02008811002027
:1042F000456A0200122B00205F6A02007FB514227B
:10430000002101A81DF09AFA01230A498DF8043012
:1043100001A8094B039305F055FB014628B1074856
:104320001BF0E9F907B05DF804FB05481BF0E3F961
:10433000F8E700BF7D440000600030007C6A0200A6
:104340009F6A020070B503788AB004460E4607AD36
:10435000032B20D8DFE803F002191B1D1149284662
:104360001DF001FA63780493A3780393E378029332
:1043700023790193637900930B4AA37905951E2154
:1043800030461BF0C5F90AB070BD0849E7E7084997
:10439000E5E70849E3E7084A0A2128461BF0B8F98F
:1043A000E0E700BFBE6A0200E06A0200C56A0200E0
:1043B000CC6A0200D66A0200FE8702002DE9F041B5
:1043C00006468AB00D46284602A9FFF7BBFF3378A0
:1043D000023B012B03D901200AB0BDE8F0817478BB
:1043E00014F001043CD020481BF085F9F3E7716814
:1043F000022221440DEB02001DF0F5F900238DF897
:104400000430BDF80230ADF806303B6801A81968E9
:104410001DF0B8FA48B940461BF06DF905F036FBBF
:10442000014638B111481BF066F9023473789C429A
:10443000DDDBD0E73968284600F03AF9014610B1D3
:104440000B481BF058F969792B7928683A6843EAD8
:104450000123A97943EA01411BF0FEF80020BBE7E4
:10446000044FDFF81480E1E7036B0200246B0200C5
:10447000426B02009C110020116B020070B588B0E5
:104480001646694605461C46FFF75CFF012E04D818
:1044900003492A46204604F04DFD08B070BD00BF18
:1044A000BD43000070B588B00C461DF006FE69469D
:1044B000FFF748FF164B174D01261E707CB12246B0
:1044C000154869461BF017F92B68186B1DF0BEFDE7
:1044D0002B6800221A63FFF711FF08B070BD0F4868
:1044E00069461BF008F92B680D495A680A600D4AA5
:1044F0004A60186B0E814FF6FF72CA810C7408F087
:104500001BFD01460028E8D007481BF0F4F8E4E75B
:10451000132B00209C1100205F6B02007D6B0200BA
:10452000881100205D4200008C6B020070B588B0DD
:104530000D4604461DF0C1FD6946FFF703FF0A481A
:104540000A4E2A4669461BF0D6F8094B00251D7015
:104550003368186BA04205D11DF078FD33681D63E8
:10456000FFF7CCFE08B070BDA56B02009C110020C7
:10457000132B002013B5002004F0C8FF044628B117
:10458000014612481BF0B7F802B010BD10481BF0EE
:10459000B2F84FF6A173ADF8023001A94FF6A2733D
:1045A00068468DF800408DF80440ADF8063000F004
:1045B00099F8014608B10748E4E707481BF09BF863
:1045C000064805F055FCFFF799FEDDE7C76B0200D2
:1045D000E76B0200FE6B0200236C0200300100203A
:1045E00070B51B4A1B491C481C4C1D4E1BF008F89B
:1045F0001C4B20601D6828461DF0D2F8411C226823
:10460000284689B21BF025F82368174ADA60FFF7BD
:10461000B1FF164D2B7893B1154D00214FF47A70F0
:104620001AF092FB236803F10C01186B09F01EF8D5
:1046300001460028F1D028461BF05DF8EDE7002187
:104640004FF47A701AF080FB30461BF054F8E1E723
:104650005406002058060020560600209C11002019
:10466000496C02004C0100204D420000122B00203A
:10467000626C020098B500AF1C460733388A1146B9
:10468000DB086A46A2EBC3039D460319072B0ADC2D
:10469000224668441DF0A7F8044869461BF02BF831
:1046A0002046BD4698BD6FF00604F9E7876C02000E
:1046B000F0B50B4C06460F4694E80F0087B002ADEC
:1046C00085E80F0054F8100F61686B4603C36A4613
:1046D00007F130032946304605F0CEFE07B0F0BDA5
:1046E000505102002DE9F04705468CB03C20894628
:1046F0001AF05EFF044638B937481AF0FCFF4FF055
:10470000FF300CB0BDE8F08704201AF051FF4FF4E1
:104710002053022201A98046ADF8043000261DF086
:104720005BF94FF0010A2D4BC4F80080C4E9026523
:1047300084F812A06360268208201AF039FF05462B
:1047400008B92748D9E70A238371C0F8009086800A
:1047500004201AF02DFF42F60303022201A90746A6
:10476000ADF804301DF038F91E4B2562C4E9063659
:10477000432384F83A301C4BE3621C4B23631C4BED
:10478000676184F826A0A684C4F82890636326870E
:104790000C201AF00DFF054608B91648ADE70323B3
:1047A00043600460252202A9404602F0BFFE02A930
:1047B00011481AF0A0FF252202A9384602F0B6FEE1
:1047C00002A90D481AF097FF0C481AF094FF2846EA
:1047D00008F08CF995E700BF8F6C02006B2E020089
:1047E000B86C02006D2F0200E9F50100754600006B
:1047F000142B0020DB6C0200056D0200136D02001B
:104800000B6801330B60014B1B68184750010020F7
:10481000014B1860704700BF5001002007B50B46E0
:10482000002102460191034801A900F057FA03B0A4
:104830005DF804FB0148000030B585B0CDE9010109
:104840000446002501A90548039500F047FADDE973
:1048500002309842B8BF255405B030BDD1F60100F2
:104860002DE9F84FB0F8189019F00808044693465F
:104870000DD001290CBF49F0100949F02009A0F81A
:1048800018908BF31188BFF36F8FBDE8F88F09F094
:104890000709022907D120461AF047FF0028F0D067
:1048A0000128238B50D16769218B002F15DA2568E9
:1048B00021F00701C4E9008841F0010121830026AD
:1048C000218B01F0070ACA4502D0A368002B5CD1F6
:1048D0000DB9002E74D0002358E001F007035A1FD1
:1048E000012A20D821F00701062B256889B2C4E9E6
:1048F00000880CD1002D2B4638BF00232BB1628BD2
:104900001B6801326283002BF8D141F00201218340
:1049100020461AF00AFF06460028D1D0238B43F028
:1049200020032383CBE7042B0CD121F0070189B2AC
:10493000218320461AF0F9FE05460028BFD041F039
:10494000200121830025BAE7032809D1226923F039
:104950000703166843F00603238300252F46AFE7BD
:10496000042806D1226923F00703566843F00403A4
:10497000F2E7052806D1226923F00703966843F081
:104980000503E9E700252E46E8E7012341F0080189
:1049900021838BF31188BFF36F8F03BB002D33D1BD
:1049A00016B121492046B0474FF02003EFF3118B99
:1049B00083F31188BFF36F8F238B23F008032383C6
:1049C000238BDA0628D523F0100323830121B4F8C2
:1049D000189009F0070900297FF45BAF51E7A1683F
:1049E0000029DBD00B68D1F804B0002B38BF0023BE
:1049F000994652463B462046D847B9F1000FCDD0E4
:104A0000D9F800304946EEE729463B465246204653
:104A10002D681AF0A6FEC1E713F020011EBF23F097
:104A2000200323830221D2E78FF70100F0B5002293
:104A3000C0E9002282604A78252A034633D001313A
:104A4000084611F8012B2B2A3DD02FD8202A3ED022
:104A5000232A40D01A7802F04401442902D16FF38E
:104A600086121A7002782A2A4CD1198841F4C07132
:104A7000421C198011782E294FD151782A2945D00E
:104A80000132154600210A27104610F8014BA4F107
:104A90003006092E64D995421FBF5878996040F0BE
:104AA0000200587039E0881CDA70F0BD2D2A05D05C
:104AB000302ACFD11A7842F0400202E01A7842F050
:104AC00004021A70BCE71A7842F00802F9E71A7873
:104AD00042F01002F5E71A7842F02002F1E707FBF6
:104AE000015130392246144614F8015BA5F1300615
:104AF000092EF4D990421FBF1878596040F0800009
:104B00001870B7E7024600210A27ECE7597821F030
:104B1000060141F0060159700232114611F8010BED
:104B20006C2839D021D8682826D06A283DD04C2856
:104B300041D01146084610F8014BDC70782C00F289
:104B4000C680572C42D8412C03D0453C022C00F2A1
:104B5000BE809A78042161F302029A70012292E0E9
:104B600007FB0141303902468EE7742820D07A28AD
:104B7000DFD15A7806200BE050785C78682805D1A0
:104B8000012161F3C6045C70911CD3E72246022028
:104B900060F3C6025A70CDE750785C786C2801D17A
:104BA0000421EEE722460320F2E75A780520EFE7DA
:104BB0005A780720ECE71A8822F4F04222F0020229
:104BC00042F4804242F002021A80B3E7A4F1580294
:104BD000202A7CD801A151F822F000BF974C000098
:104BE000CF4C0000CF4C0000CF4C0000CF4C000059
:104BF000CF4C0000CF4C0000CF4C0000CF4C000049
:104C0000534B0000CF4C0000974C0000614C00005B
:104C1000534B0000534B0000534B0000CF4C00009F
:104C2000614C0000CF4C0000CF4C0000CF4C000086
:104C3000CF4C00009D4C0000974C0000B74C00008A
:104C4000CF4C0000CF4C0000B74C0000CF4C000010
:104C5000974C0000CF4C0000CF4C0000974C000058
:104C60009A78012161F302029A705A7802F0780270
:104C7000402A02BF197841F001011970632C2AD132
:104C8000003A18BF01221978C1F34004224362F3AD
:104C90004101197009E79A780221E3E79A78032124
:104CA00061F302029A705A7802F07802A2F1400190
:104CB0004A424A41E7E79A78032161F302029A7077
:104CC0005A7812F0780F14BF01220022DBE71A781D
:104CD00042F001021A700022D5E700BF2DE9F04F23
:104CE000824691B08B4691461C46002599F80000FB
:104CF00008B928460DE1252809D05946D047002893
:104D0000C0F2078109F10103029301355EE0182228
:104D100000210AA81CF092FD49460CA8FFF786FE68
:104D20009DF831300290D9071BD554F8048BB8F1A7
:104D3000000F07DA9DF8302042F004028DF8302091
:104D4000C8F100085A0715D554F8047B002F14DA6F
:104D50009DF831306FF341038DF831304FF0FF375C
:104D60000BE09DF93020002AB4BFDDF834804FF00D
:104D7000FF38E7E79F07F1D50E9F9DF8311000231C
:104D8000CDE90D339DF8323003F00703012BC1F359
:104D9000C3012ED1CB1E042B1BD8DFE803F0033A4E
:104DA0003A1A1A0054F8042BD317CDE90A239DF8B8
:104DB000303013F003064FD0029B4A465946504606
:104DC0001BF003F80028C0F2A4800544DDF8089029
:104DD0008CE754F8042B01294FEAE273CDE90A234A
:104DE00002D19DF8283010E00229E0D1BDF9282039
:104DF000DAE7022B20D1CB1E042B10D8DFE803F01A
:104E00000309090F0F0054F8043B0A9300230B9386
:104E1000CDE7073424F00704F4E80223C5E754F88B
:104E2000043B0A9301294FF000030B93D9D00229C8
:104E3000BDD1BDF82830E8E7042B07D1073424F0B2
:104E40000704F4E80223CDE90A23B0E7032B04BFEB
:104E500054F8043B0A93AAE79DF833007828B5D8A4
:104E600062281FD825284FD05828AFD10DF126032E
:104E70000093DDE90A0104AB0CAA1AF05BFF81463E
:104E8000002F0DF126000BDB9DF83020A0EB09036D
:104E90006FF386129F428DF8302001D9FF1A0D97CB
:104EA000074646E06338152890D801A252F820F052
:104EB0003B4F00009F4F0000CD4D0000CD4D000046
:104EC000CD4D0000CD4D00009F4F0000CD4D0000A6
:104ED000CD4D0000CD4D0000CD4D0000FD4F000038
:104EE000CB4F0000CF4F0000CD4D0000CD4D000056
:104EF000194F0000CD4D0000CB4F0000CD4D0000FC
:104F0000CD4D0000CB4F00005946D0470028BFF6DA
:104F1000FCAE11B0BDE8F08FDDF8289048461CF0DB
:104F20003FFC002F02DBB84228BF384609EB0007E0
:104F30000026B9F1000F08D148E70A9B8DF8103020
:104F400000260DF111070DF11009A7EB090306B1B9
:104F500001339DF83220D0066AD5023352060D99EE
:104F600048BF0E9A0B4448BF9B18B8F1000F73DD81
:104F70009DF83020A8EB0308C2F380030393530786
:104F80006AD4500640F1A6803EB159463046D0471B
:104F90000028BEDB039B01351E4630239BE01E0725
:104FA00011D413F0100618BF2026DDE90A23002AC9
:104FB00073F10001BFF65AAF524263EB4303CDE9F0
:104FC0000A232D2652E72B26EFE700264EE70A9804
:104FD00048B30DF1260300930CAA04AB00211AF08C
:104FE000A9FEBDF8323003F0EF0343F4F04343F081
:104FF00010038146ADF83230002641E70A9B0729AD
:105000003FF6E4AEDFE801F00D04060D08080D0DD3
:105010001D70DBE61D80D9E62846E917C3E90001CB
:10502000D4E61D60D2E6314F0646A7F105098CE7AC
:10503000110748BF013391E7184659460393D047FB
:105040000028039BFFF665AF4246002AA5EB080146
:1050500008F1FF38F0DC0D4636B159463046D047EE
:105060000028FFF656AF01359DF83230D90601D43D
:105070001A0706D559463020D0470028FFF649AF19
:1050800001359DF83230DB0607D59DF833005946CF
:10509000D0470028FFF63DAF01350D9E2E44731B0F
:1050A000002B1ADC3B464A46594650461AF08DFE04
:1050B0000028FFF62EAF0544A844A8EB0503002BFB
:1050C0007FF784AE59462020D0470028FFF621AF55
:1050D0000135F2E720234544B6E759463020D04752
:1050E0000028FFF616AF0135D9E700BF3B6D02007F
:1050F00030B51049104889B000221FF0ADFC0F4DAB
:105100000F4900220023CDE9062300240E23CDE918
:105110000334CDE901440B4B00944FF44072284610
:1051200019F0CEFE084928461FF0AAFB204609B018
:1051300030BD00BF4D510000D808002010090020EC
:10514000A0300020655500003C6D0200014819F0B8
:105150001DBE00BF6C07002008B500F065FA0948C5
:105160001AF04AFE04232822074908481FF08AF94A
:10517000074B084A1A604FF40040BDE8084000F0B1
:1051800099BC00BFAC110020E0550020B4110020F4
:105190005401002037FE0100F8B50F4BBFF35B8FC1
:1051A000002553E8007F43E80052002AF9D1BFF3FD
:1051B0005B8F0A4C0A4E361B3611B54200DBF8BD38
:1051C00063685B792BB12368DB6813B139462046ED
:1051D000984701351034F0E7A41100203051020047
:1051E00050510200064BBFF35B8F53E8002F013292
:1051F00043E800210029F8D1BFF35B8F704700BF5F
:10520000A4110020044A054B9B1AB1EBD30F34BF05
:1052100052F8310000207047D84F02003051020090
:10522000094B4268C31A1B11013310B5137143684F
:10523000064C196001225A71227812B9044819F0FB
:10524000A5FD0123237010BD305102001A2B002050
:105250006C07002070B5114BBFF35B8F53E8005F04
:105260006A1C43E800210029F8D1BFF35B8F2DB9F8
:105270000B4C0C4E361B3611B54200DB70BD237B48
:1052800043B123685B6903B198470422002120469B
:10529000FFF7C6FF01351034EEE700BFA81100206C
:1052A0003051020050510200164B984237B5044667
:1052B00002D3154B984220D314480022002301A9A1
:1052C00019F088F80546D8B90122019BBFF35B8F1E
:1052D00053E8001F43E800200028F9D1BFF35B8F9B
:1052E000019821461F2204301CF047FA019C7E23BE
:1052F00084F8233084F824500434204603B030BDB1
:10530000034CFAE79C4D0200C88A0200B411002049
:10531000446D020048B1054B984205D3A033984232
:105320002CBF00200120704700207047E05500206E
:105330002DE9F04F4C4B1B7885B0044603B960B3A0
:105340004FF02003EFF3118683F31188BFF36F8FC3
:1053500046481AF061FD054686F31188BFF36F8F4A
:1053600078B1BFF35B8F424B53E8002F013A43E81B
:1053700000210029F8D1BFF35B8F94B128461AF0C1
:1053800064FE24B93B4B1B680BB1FFF705FF3748A0
:105390001AF040FD041E18BF0124204605B0BDE8E8
:1053A000F08F354B1B78CBB92B7ADB0716D41AF06C
:1053B0005FFE804628461AF026FE014640461AF057
:1053C0003EFD2E4F2E4BDFF8D4B0DB1BDB080393E2
:1053D0002C4BDB1B06464FEAD30A36B92A4E2B4F1D
:1053E000BF1B3F114FF000083AE0B6FA86F1C1F159
:1053F0001F09494628461AF009FE254B98420146E6
:1054000002D3244B98421AD30846FFF783FF024683
:10541000A8B9214B994212D06B8903989909B0EB36
:10542000931F4FEA8A1343F0010388BF57F83120D6
:10543000ADF800304946434658461AF05AFD01215E
:1054400001FA09F126EA0106C7E773685B7923B11F
:10545000336829461B683046984708F10108103622
:10546000B845F2DB8AE700BF1A2B0020AC11002000
:10547000A0110020A41100201B2B0020D84F0200F7
:1054800030510200F8500200305102005051020029
:105490009C4D0200C88A0200446D02005E6D02004D
:1054A000294B73B51B68418104469847274DE0603E
:1054B000BFF35B8F55E8003F013345E80032002A17
:1054C000F8D1BFF35B8F4FF02003EFF3118683F326
:1054D0001188BFF36F8F1E4821461AF091FC86F3A6
:1054E0001188BFF36F8F1B4B1B7883B14FF02003E4
:1054F000EFF3118483F31188BFF36F8F0020FFF760
:1055000017FF84F31188BFF36F8F02B070BD124A8A
:105510002B681268002AF8D0012B0AD10022002340
:10552000CDE900230D484FF47A72002319F060FF93
:10553000EBE70A2BE9D109481FF09AFA084802B0B4
:10554000BDE8704019F022BC54010020A0110020D9
:10555000AC1100201B2B0020D0110020D808002007
:105560006C07002010B5FFF775FE19F009FC0C4B15
:10557000186030B10B4B1B68092B02DD0A4819F08B
:1055800005FC094C0020FFF7D3FE0028FAD14FF0AC
:10559000FF324FF0FF33204619F01EFCF2E700BF48
:1055A000D0110020A01100206C070020F8B50E4F8C
:1055B0003D7875B90D4C0E4EFFF74CFE361B36117B
:1055C000B54207DB0020FFF7B3FE0028FAD1012324
:1055D0003B70F8BD63685B791BB1236820461B698B
:1055E000984701351034EBE71B2B002030510200A7
:1055F0005051020007B504380190BFF35B8F50E8AB
:10560000003F5A1E40E800210029F8D1BFF35B8F0C
:10561000012B03D1034801A918F00EFF03B05DF878
:1056200004FB00BFB41100202023024902481A469F
:105630001EF028BF80560020D411002037B500236B
:10564000094D01930120FFF773FE0446FFF7CAFDE1
:105650000022002301A9284618F0BCFE08B1002C46
:10566000F0D1019803B030BDD411002007B500235C
:10567000019307480022002301A918F0ABFE10B1E6
:10568000FFF7DCFF0190019803B05DF804FB00BF59
:10569000D4110020F0B5037A457A85B02D09019028
:1056A000D8071CD4DDB100242646019831461AF0F3
:1056B000ADFC0746FFF72EFE70B134B9019B2946B9
:1056C00018691AF0BCFB044648B124FA06F3D9075E
:1056D00002D53846FFF78EFF0136AE42E5D3019B77
:1056E0001A7A920704D55B69084C0393039B2BB984
:1056F000064801A918F0A0FE05B0F0BD1D6803A979
:10570000204618F099FE0395F0E700BFD411002061
:105710000EB403B503AB014653F8042B04480193C0
:10572000FFF7DCFA02B05DF804EB03B0704700BF8E
:10573000190402002DE9F04F85B011F002049046E3
:105740009DF8387006461A4601F0010901F0080577
:1057500007D011F0440F37D13249FFF7D9FF014686
:105760000C46B9F1000F0AD02F4B304953F82720CF
:105770002F4B3046002A08BF1A46FFF7C9FF3DB13C
:105780002C4B2D4953F827203046FFF7C1FF054623
:10579000B8F1000F43D0012303FA07F7274B17F0A6
:1057A000100F274F18BF1F46BDF840109DF83C0052
:1057B000FFF728FD394602463046FFF7A9FF284487
:1057C000204405B0BDE8F08F1E4B19680029C7D0F2
:1057D0001D4B4FF4616E1B68B2FBF3F34FF47A7C00
:1057E000B3FBF1F4B4FBFEF20EFB124E01FB1434DA
:1057F0000CFB04F44FF03C0AB4FBF1FB01FB1B442F
:105800000CFB04F4BEFBFAF3B4FBF1F1CDE901B1FA
:105810000AFB13E100910D49FFF77AFF9FE7084F5C
:10582000C2E700BFAF6D020048520200697B020070
:10583000A16D02005C520200D46D0200AB6D02004B
:10584000A66D0200F0110020F4110020B86D0200D6
:1058500038B50C46E107054603D5084A0849FFF765
:1058600057FFE20608D4A30628464CBF054906495F
:10587000BDE83840FFF74CBF38BD00BFA16D020046
:10588000697B0200DB6D0200DA6D02002DE9F04752
:105890001D46089B1746DA0604460E4605D49906AF
:1058A0004CBF2A492A49FFF733FFDFF8AC904FF08D
:1058B0000008A8452ADBDFF8A480DFF8A490DFF811
:1058C00098A00025BD422FD2725D49462046FFF7C1
:1058D0001FFF0135102D20D11E49DFF87C80DFF835
:1058E00084902046FFF714FF0025AF4228D9725D4F
:1058F000A2F120035F2B28BF2E2249462046FFF746
:1059000007FF0135102D14D1BDE8F0874946204628
:10591000FFF7FEFE08F10108CBE76A07D2D1514636
:105920002046FFF7F5FECDE741462046FFF7F0FEA3
:10593000CFE76B07D9D141462046FFF7E9FED4E710
:1059400041462046FFF7E4FEDBE700BFDB6D0200C7
:10595000DA6D0200E76D0200E56D0200E36D020002
:10596000DD6D0200E96D02002DE9F0478B7A13F03E
:10597000070817468AB00A7A05460E4620D049899C
:10598000C3F3C2038909D243CDE900830291F368CE
:1059900002F001023946FFF7CDFE8146347AE44336
:1059A00014F001040ED0294630461AF0CBFBB8F1B2
:1059B000000F2BD0424639462846FFF749FF25E025
:1059C000C146EBE7B8F1000F26D12746EB680693F6
:1059D00006AA3B46A96830461AF0A0FB069A6B68F7
:1059E0001A603AB1AB68134413F8014CA4F10A03EE
:1059F0005C425C4128461AF002FD069B1F44002BC6
:105A0000E4D11CB113492846FFF782FE28461AF05C
:105A1000F6FC0AB0BDE8F08730461AF029FB0E49C3
:105A200002462846FFF774FE4FF0100A05AA2346E7
:105A300006A93046CDF814A01AF070FB059A002A8A
:105A4000B8D04B46009706A92846FFF71FFF059BD5
:105A50001C44EBE7EC6D0200697B020073B542F277
:105A60000F738B4228BF0B4605680F4A0446052179
:105A7000684619F04DFE63680C495B6806460B22C8
:105A800028461AF052FB63683246694628465B682E
:105A90001AF04BFB636806495B681B2228461AF024
:105AA00044FB02B070BD00BFEB8402002A6E02000E
:105AB0000E6E0200084A10B50123084C1360002145
:105AC000A04204D801B11360054B186010BD400816
:105AD0005B000121F4E700BFF411002040420F00F9
